:1000000044C000005FC000005DC000005BC0000095
:1000100059C0000057C0000055C0000053C0000088
:1000200051C000004FC000004DC00000D1C300000F
:1000300049C0000047C0000045C0000043C00000A8
:1000400041C000003FC000000BC4000048C40000D5
:1000500039C0000037C0000035C0000033C00000C8
:1000600031C000002FC0000045464765666700208C
:100070002B2D2E3031323334353637383968006322
:1000800064696E6F70737578580011241FBECFEFCE
:10009000D8E0DEBFCDBF11E0A0E0B1E0E6ECF7E3D1
:1000A00002C005900D92AA35B107D9F724E0AAE560
:1000B000B1E001C01D92A838B207E1F70E948F1588
:1000C0000C94E11B9DCF49D384E191E047D3C7D283
:1000D00040D300C0A8C3809184009091850008950A
:1000E000909389008093880082E086BB80936F00A4
:1000F000089510926F00089590938900809388006E
:100100000895AF92BF92CF92DF92EF92FF920F933A
:100110001F93CF93DF93EC016B018A018C819D814A
:100120008417950710F40C811D816C857D85E8840A
:10013000F984E61AF70A0E151F0598F1E016F10684
:10014000D0F0A801C6010E94F31A8E819F819D877D
:100150008C878C819D81801B910B9D838C83C80132
:10016000DF91CF911F910F91FF90EF90DF90CF9093
:10017000BF90AF900895A701C6010E94F31A5801DD
:10018000AE18BF086E817F81A501C6018E0D9F1D2F
:100190000E94F31A4E815F814A0D5B1D5D874C877B
:1001A000D8CFA801C6010E94F31A8C859D85800FC7
:1001B000911F9D878C87CDCFAF92BF92CF92DF9258
:1001C000EF92FF920F931F93CF93DF93EC016B019C
:1001D0008A018C819D818417950710F40C811D8103
:1001E0008A859B85E884F984E81AF90A0E151F05AB
:1001F00098F1E016F106D0F0A801B6010E94F31ABA
:100200008E819F819B878A878C819D81801B910B2A
:100210009D838C83C801DF91CF911F910F91FF9037
:10022000EF90DF90CF90BF90AF900895A701B601F7
:100230000E94F31A5801AE18BF08B6016E0D7F1D5B
:10024000A5018E819F810E94F31A4E815F814A0D24
:100250005B1D5B874A87D8CFA801B6010E94F31ABD
:100260008A859B85800F911F9B878A87CDCF0F93AF
:100270001F93FC0191838083938382831582148270
:10028000778366837587648773876287640F751FBA
:100290007187608737872687118B008B1F910F919D
:1002A0000895FC01A285B38584859585A817B907B3
:1002B000E9F084819581019695838483CD0101962F
:1002C000938782876C932285338580859185281753
:1002D000390720F08681978193878287CF0170E06C
:1002E00060E00E94780B90E080E008958481958121
:1002F000892BF9F28FEF9FEF0895CF92DF92EF9263
:10030000FF921F93CF93DF93EC016A017B01F89476
:1003100007C0B701A601CE010E94590B97FD2AC064
:100320008C819D81892BA9F38C819D8101979D836F
:100330008C83EC85FD85CF0101969D878C8710818C
:10034000288539858217930720F08E819F819D87AC
:100350008C87EE85FF85309711F0CE010995789452
:10036000812F90E0DF91CF911F91FF90EF90DF9070
:10037000CF9008957894DF91CF911F91FF90EF90E7
:10038000DF90CF9008954F925F926F927F928F92FD
:100390009F92AF92BF92CF92DF92EF92FF920F9314
:1003A0001F93CF93DF936C017B014A012801390130
:1003B000FC01A684B784F89441155105B9F08A016F
:1003C000A801B701C6019DDEEC01892B11F1A11432
:1003D000B10419F0C601F501099578940C1B1D0BA9
:1003E000EC0EFD1EF8940115110551F7C401789427
:1003F000DF91CF911F910F91FF90EF90DF90CF9001
:10040000BF90AF909F908F907F906F905F904F9034
:100410000895B301A201C6010E94590B892B81F2F4
:10042000C401801B910BE3CF0F931F93FC019183B9
:100430008083938382835583448377836683758720
:10044000648773876287640F751F7187608737873A
:100450002687118B008B1F910F910895CF92DF9209
:10046000EF92FF921F93CF93DF93EC01162F690158
:100470007A01F89407C0B701A601CE010E94590B7A
:1004800097FD2CC08C819D81892BA9F38C819D8146
:1004900001979D838C83EA85FB85CF0101969B871D
:1004A0008A8710832A853B8588859985281739078F
:1004B00020F08E819F819B878A87EE85FF8530970C
:1004C00011F0CE010995789490E080E0DF91CF9112
:1004D0001F91FF90EF90DF90CF9008957894DF9177
:1004E000CF911F91FF90EF90DF90CF900895CF9321
:1004F000FC01A485B585828593858A179B07E9F061
:1005000084819581019695838483CD010196958799
:100510008487CC91208531858217930748F4CF01D9
:1005200070E060E00E94780B8C2F90E0CF910895EE
:100530008681978195878487F2CF84819581892BE5
:10054000F9F28FEF9FEFCF9108954F925F926F92E4
:100550007F928F929F92AF92BF92CF92DF92EF9253
:10056000FF920F931F93CF93DF936C017B014A019E
:1005700028013901FC01A684B784F894411551057E
:10058000B9F08A01A801B701C60116DEEC01892B7A
:1005900011F1A114B10419F0C601F501099578947F
:1005A0000C1B1D0BEC0EFD1EF8940115110551F7E7
:1005B000C4017894DF91CF911F910F91FF90EF903C
:1005C000DF90CF90BF90AF909F908F907F906F9073
:1005D0005F904F900895B301A201C6010E94590B8C
:1005E000892B81F2C401801B910BE3CF0F931F93E2
:1005F0000596C9DE1F910F9108950F931F930FEF7A
:100600001FEF98010596BFDE1F910F9108950F937C
:100610001F9347969ADF1F910F9108950F931F9391
:100620000FEF1FEF9801479690DF1F910F910895EC
:10063000059663CE4FEF5FEFBA0105965ECE479603
:100640000DCF2FEF3FEFA901479608CF613071051D
:1006500019F08CEE9FEF089590E080E0089576C148
:10066000EF92FF920F931F93CF93DF93EC019B01C7
:100670007A01FC0180E091E081939193FB83EA830E
:1006800081E08C83BE01675D7F4F8E0140E150E0C9
:10069000CE010596ECDDBE01675C7F4F970140E11E
:1006A00050E0CE014796C0DEDF91CF911F910F91B0
:1006B000FF90EF900895CF93DF93EC01F8944DD124
:1006C00082E08C83789490E080E0DF91CF91089570
:1006D0001F93CF93DF93EC01162F89859A85892B81
:1006E00051F0612FCE010596DCDD97FD0FC0DF9143
:1006F000CF911F91089564E0CE0102960E94810D72
:10070000612FCE010596CDDD97FFF1CF60E0CE01E0
:100710000296DF91CF911F910C94810D0F931F933F
:10072000CF93DF938C014796E2DEEC0197FD06C084
:10073000CE01DF91CF911F910F91089568E0C8011C
:1007400002960E94810DCE01DF91CF911F910F91F2
:100750000895109269001DBA08950895FC018081E2
:1007600085B9818184B9828188B9838187B984817F
:100770008BB985818AB90895FC014230C9F098F09F
:100780004530B1F0463021F48181682B61830895B2
:100790004330E9F79181862F809589238183828177
:1007A000682B62830895442319F0413099F308952A
:1007B0008181609586238183828168236283089585
:1007C000282F862F622F792F0895CB010895089541
:1007D0001F920F920FB60F9211242F933F934F93B6
:1007E0005F936F937F938F939F93AF93BF93EF9399
:1007F000FF9381E08093870403D11092870468D52A
:10080000811176D5FF91EF91BF91AF919F918F911B
:100810007F916F915F914F913F912F910F900FBEFC
:100820000F901F90189510928000E1E8F0E088E0AA
:10083000808310928200109289001092880010929A
:1008400085001092840082E086BB10926F0085E0E4
:1008500080830895E1ECF0E08081806280830895D8
:100860001F920F920FB60F9211242F933F934F9325
:100870005F936F937F938F939F93AF93BF93EF9308
:10088000FF9381E0809387048091C000982F9C7132
:1008900049F060E282FF60E084FD1FC084EF93E0D6
:1008A0000E94810D6091C60082EF93E011DF1092EB
:1008B00087040ED581111CD5FF91EF91BF91AF91A7
:1008C0009F918F917F916F915F914F913F912F9168
:1008D0000F900FBE0F901F9018956064DFCF1F928E
:1008E0000F920FB60F9211242F933F934F935F9364
:1008F0006F937F938F939F93AF93BF93EF93FF93E8
:1009000081E08093870482EF93E008DF97FD18C0B1
:100910008093C60010928704DBD48111E9D4FF9143
:10092000EF91BF91AF919F918F917F916F915F9167
:100930004F913F912F910F900FBE0F901F901895E0
:100940008091C1008F7D8093C100E4CF4AE254E0E2
:1009500070E060E082EF93E083CE6115710521F0D5
:10096000825F934089F00895825F9340E1F783E3CB
:100970008093C4001092C50082E08093C00088E993
:100980008093C10086E01CC0FB0180818093C4007D
:1009900081818F708093C50082E08093C00088E9D8
:1009A0008093C1008281813091F078F0823059F0DB
:1009B000843041F78091C10084608093C10086E05B
:1009C0008093C200089584E0FBCF80E0F9CF82E0FD
:1009D000F7CFCF93DF93CBE3D4E081E088831A8213
:1009E00019820E94A60D0E94D60D6DE171E08EE382
:1009F00094E0CDD482E088837894DF91CF910895FC
:100A000030C20F931F93EEE3F4E0078D10A121A1F4
:100A100032A1DC01CB01802B912BA22BB32B878F32
:100A200090A3A1A3B2A31F910F9108958F929F92BB
:100A3000AF92BF92CF92DF92EF92FF920F931F93EC
:100A4000CF93DF93FC01EB0170934E0460934D0450
:100A5000248335834683578385E494E0938382839C
:100A6000A0914504B0914604B183A0831396FC93F2
:100A7000EE931297F0934604E093450469017A01DE
:100A800081E0C8168FEFD806E104F10420F0C12CF4
:100A9000D12C7601DA9482E0C816D104E104F10485
:100AA00028F492E0C92ED12CE12CF12CCE018C0D32
:100AB0009D1D16DB82E0882E912CA12CB12C0EC03E
:100AC000750164018FEFC81AD80AE80AF80ACE0146
:100AD0008C0D9D1D11DBE80146015701FCDA8C01EC
:100AE0008C1B9D0BB0E0A0E08C159D05AE05BF05ED
:100AF00038F783E088169104A104B10468F4DF910B
:100B0000CF911F910F91FF90EF90DF90CF90BF900A
:100B1000AF909F908F90089561E070E080E090E04A
:100B2000DF91CF911F910F91FF90EF90DF90CF90C9
:100B3000BF90AF909F908F9064CF8F929F92AF9213
:100B4000BF92CF92DF92EF92FF92CF93DF93EC01AF
:100B50006A017B0121E0C2162FEFD206E104F10405
:100B600020F0C12CD12C7601DA9482E0C816D10491
:100B7000E104F10428F492E0C92ED12CE12CF12CEF
:100B800082E0882E912CA12CB12C0AC07501640141
:100B90002FEFC21AD20AE20AF20AEC01460157010B
:100BA000CE018C0D9D1DA8DA96DAAC014C1B5D0BB5
:100BB00070E060E04C155D056E057F0538F783E059
:100BC00088169104A104B10458F4DF91CF91FF90ED
:100BD000EF90DF90CF90BF90AF909F908F9008954F
:100BE00061E070E080E090E0DF91CF91FF90EF90C6
:100BF000DF90CF90BF90AF909F908F9002CF8F9259
:100C00009F92AF92BF92CF92DF92EF92FF92CF93DB
:100C1000DF93EC014A015B015EDAE0914504F0915B
:100C2000460424E0E534F20709F473C020914D0432
:100C300030914E04AC01421B530B70E060E0750133
:100C40006401C40ED51EE61EF71EC416D506E606C0
:100C5000F70608F44FC04481558166817781C41638
:100C6000D506E606F70608F448C04C155D056E0586
:100C70007F0580F4C41AD50AE60AF70A0190F081CC
:100C8000E02D44815581668177814C155D056E05A7
:100C90007F0580F3CC82DD82EE82FF82F983E883D8
:100CA000A281B381BB83AA83CD93DC93D383C28318
:100CB00084819581A681B7818C199D09AE09BF09F0
:100CC00084839583A683B7838FEF9FEFDC018093A6
:100CD000490490934A04A0934B04B0934C04DF91D1
:100CE000CF91FF90EF90DF90CF90BF90AF909F900B
:100CF0008F90089575016401AECFB501A4011DDF89
:100D0000E0914504F09146044481558166817781E4
:100D1000ACCFA5019401BC01CE01DF91CF91FF9032
:100D2000EF90DF90CF90BF90AF909F908F907ECE4E
:100D30000F931F93FC011387028731872087148646
:100D40001586168617861F910F9159CF0F931F9303
:100D5000CF93DF93FC01A081B181809145049091F4
:100D60004604E817F90781F1C281D381B983A883CA
:100D7000A081B1811396DC93CE93129714964D9176
:100D80005D916D917C911797048115812681378142
:100D9000400F511F621F731F14964D935D936D9307
:100DA0007C931797118210828FEF9FEFDC01809365
:100DB000490490934A04A0934B04B0934C04DF91F0
:100DC000CF911F910F910895B0934604A0934504CD
:100DD00085E494E013969C938E931297118210826F
:100DE000A0914504B0914604A817B907A9F114963B
:100DF0004D915D916D917C911797048115812681AC
:100E00003781400F511F621F731F14964D935D93DE
:100E10006D937C9317975FD920914D0430914E04C8
:100E20008C01021B130B30E020E0E0914504F091AF
:100E3000460444815581668177810417150726078A
:100E4000370708F0BCCF401B510B620B730BDF91CF
:100E5000CF911F910F9171CEDF91CF911F910F9183
:100E600048C94F925F926F927F928F929F92AF92FA
:100E7000BF92CF92DF92EF92FF920F931F93CF9387
:100E8000DF93CC24CA94DC2C76010FC06A857B8565
:100E9000E885F985CE0109958C859D85AE85BF8550
:100EA000892B8A2B8B2B09F05AC0C0914504D09115
:100EB000460411D900914D0410914E044C01801A42
:100EC000910AB12CA12C4C815D816E817F818416A9
:100ED0009506A606B706F0F0040F151F10934E04F2
:100EE00000934D04EA81FB818881998191838083FD
:100EF000A881B9811396FC93EE93129719821882F8
:100F000080914504909146048554944009F0BECFE9
:100F1000F0D8BCCF2091450430914604255434408C
:100F200009F478C090934E0480934D0448195909F0
:100F30006A097B094C835D836E837F83DF91CF9148
:100F40001F910F91FF90EF90DF90CF90BF90AF90E7
:100F50009F908F907F906F905F904F90EECDBBD819
:100F60005C012C01401A510A712C612C8C859D85E5
:100F7000AE85BF8584159505A605B70508F45BC049
:100F80000091450410914604E4E005341E0709F47D
:100F900062C0F801448155816681778148175907FD
:100FA0006A077B0788F4841B950BA60BB70BF80127
:100FB00000811181F801448155816681778148174C
:100FC00059076A077B0778F38C839D83AE83BF83C1
:100FD00019830883F801228133813B832A83F90135
:100FE000D183C083F801D383C28344815581668154
:100FF0007781481B590B6A0B7B0B448355836683AF
:101000007783C0924904D0924A04E0924B04F09254
:101010004C044BCFDF91CF911F910F91FF90EF9038
:10102000DF90CF90BF90AF909F908F907F906F9008
:101030005F904F90089562E070E080E090E0E1DC26
:10104000009145041091460484E005341807E1F04E
:10105000D301C2019ECF9C01AD0124193509460977
:101060005709B501CE01DF91CF911F910F91FF90EC
:10107000EF90DF90CF90BF90AF909F908F907F9038
:101080006F905F904F90D2CC20E030E0A901E9CF83
:10109000CF93DF93DB011F968C911F978430F1F182
:1010A00080F5882359F1833031F45296ED91FC910B
:1010B0005397118210828FEF9FEF53969C938E93DC
:1010C00052971F961C921F971B96ED91FC911C97AF
:1010D00014969C9114970190F081E02D84818917DA
:1010E000D0F71196FC93EE93C281D3811396DC93D3
:1010F000CE931297B983A883B383A283DF91CF9154
:101100000895873059F08C3049F08530A1F6529619
:10111000ED91FC91539784818F5F84831296ED91BA
:10112000FC9113978D919C91119791838083CD9120
:10113000DC911197FB83EA83BECFCF93DF93DC0171
:101140001F961C921F971B96ED91FC911C9714966D
:101150008C9114970190F081E02D94819817D0F72D
:101160001196FC93EE93C281D3811396DC93CE93B8
:101170001297B983A883B383A283CD01DF91CF9166
:101180000895CF93DF93EEE3F4E065817681DB0190
:101190001F968C9380819181EC01A881B981B183E4
:1011A000A0831396FC93EE93129721E02F879683EA
:1011B000858309D5DF91CF910895DF92EF92FF9259
:1011C0000F931F93CF93DF93CDB7DEB760970FB622
:1011D000F894DEBF0FBECDBFD82EE0904304F09050
:1011E00044044F3F8FEF58076807780701F18701E4
:1011F00028E438E0CE0101969BDD8D2DC2DF898188
:101200009A81892B19F0CE010196A0DDF701828920
:10121000938960960FB6F894DEBF0FBECDBFDF9105
:10122000CF911F910F91FF90EF90DF9008958D2D3A
:10123000A8DFECCFCF93DF93DC01C0914304D091C2
:10124000440453967C936E93529714962C91149762
:101250009C819217E8F01F961C921F971B96ED91A8
:10126000FC911C970190F081E02D84818217D0F7CA
:101270001196FC93EE93C281D3811396DC93CE93A7
:101280001297B983A883B383A283DF91CF91089586
:101290001F86EB85FC850190F081E02D84819817F5
:1012A000D0F3CD01F983E883A281B381BB83AA8304
:1012B000CD93DC93D383C28321E0FC0127879093F5
:1012C000440480934304BE017ED4DF91CF910895FE
:1012D000A0913E04B0913F04E0914304F091440496
:1012E00081E014962C919481921708F080E0089583
:1012F000CF93DF93A0914304B091440440913E0406
:1013000050913F04EA01E881F981F0933F04E093B2
:101310003E048EE394E09383828381E08F87509331
:101320004404409343041F961C921F971B96ED9113
:10133000FC911C9714962C9114970190F081E02D4C
:1013400094812917D0F31196FC93EE9382819381B7
:1013500013969C938E931297EC01B983A883B38361
:10136000A283BD01CA012FD4DF91CF910895A0912E
:101370003E04B0913F04E0914304F091440414967C
:101380009C918481891708F00895B2CFFFCFCF9246
:10139000DF92FF920F931F93CF93DF93CDB7DEB70A
:1013A0002B970FB6F894DEBF0FBECDBF8C016B013B
:1013B00090933D0480933C04FC01168E158E74A31B
:1013C00063A3FF24F394F092870491838083938333
:1013D000828314824996928F818F948F838F178E88
:1013E00010A211A212A242979087878392878187C9
:1013F0008FEF9FEFDC0183879487A587B687108ADC
:1014000017860E946B009C01F801218B328B138A96
:10141000148A158A168A178A108EED5BFF4F118287
:101420001082B8016B5D7F4F20E84FE251E0C801A8
:101430002AD0F80196838583FC01F78683E291E048
:101440009A838983F601828193819C838B83848133
:1014500095819E838D83FF8286EC99E099878887AA
:101460001B861A86CE0101969ED02B960FB6F89455
:10147000DEBF0FBECDBFDF91CF911F910F91FF90C7
:10148000DF90CF900895CF93DF93FB01248332E068
:101490003787108A94878387258F148E138E128E38
:1014A00021E0218B568745879B01295F3F4FAC0187
:1014B000475E5F4F50874783EC01AB8DBC8DB28791
:1014C000A1872D933C933C8F2B8FCB014496958B1A
:1014D000848B0296978B868B918F808FCB01DF91C7
:1014E000CF910895CF93DF93DC0114962D913C9119
:1014F0001597F9017E97E901E397D683C58317967F
:101500009C91179718968C9118979A8B898B19969E
:101510009C9119971A968C911A97988B8F8782E1D4
:101520009EE09B8B8C8B16968C9116974D915C91BF
:10153000848392E09787108A6EE374E074876387F0
:10154000858F148E138E128E81E0818B568745878E
:10155000D901579787E594E011969C938E93EB0100
:101560008B8D9C8D13969C938E931297EC01B9836F
:10157000A883EB01BC8FAB8F1D960B2E11960C929E
:101580001197AC9312960B2E11960C921197AC9367
:101590000A2E1B2E13961C920E9211241297CF0125
:1015A000DF91CF9108959EDFC8CD0F931F93CF9306
:1015B000DF93F8946E517109EC01C60FD71FFE013D
:1015C0007597FE83ED83228B318B008B178782E129
:1015D0009EE0938B848B4C8382E08F87188AEEE3A6
:1015E000F4E0FC87EB874D8F1C8E1B8E1A8E81E0FA
:1015F000898B88E291E09E878D87CE01079627E54B
:1016000034E038872F83A38DB48DBA87A9878D9353
:101610009C93948F838F0D969D8B8C8B02969F8BC2
:101620008E8B998F888F70E060E0CE0103DE789416
:10163000CE01DF91CF911F910F9108950F931F93CA
:10164000CF93DF93C0914304D09144049B8B8A8B4A
:101650008E010C5E1F4F8C899D890817190759F060
:10166000FC01208131813D8B2C8B67DD8C899D892C
:1016700080179107A9F7898981110CC0E985FA853E
:101680008F81988591838083AF81B8851396FC9371
:10169000EE9312978FE0DF91CF911F910F9171CD53
:1016A000F894CCCFAB01BC01F89488E086DD789447
:1016B0000895CF93DF93E0914304F09144044115E2
:1016C00051056105710579F091838083EC01AA8150
:1016D000BB81B383A283ED93FC93FB83EA8384E015
:1016E000DF91CF916ACD8FEF9FEFDF91CF9108957A
:1016F000CF93DF93FC0180819181E817F90771F0A6
:10170000EC01A881B981B183A0831396FC93EE9379
:1017100012977B8B6A8BDF91CF910FCDDF91CF91A9
:101720000895FC01918380839383828315821482C0
:1017300008950F931F93CF93DF93EC01009143041F
:1017400010914404EC81FD81309709F47EC0D801EA
:1017500014968C919481981750F4848387858630F1
:1017600009F485C0873071F1882309F45BC09E01BC
:10177000FE0107C09481D80114968C91981708F443
:1017800062C00190F081E02DCE17DF0799F7F801D4
:1017900031832083D9011296ED91FC91D8011396E3
:1017A000FC93EE93129711830083F9011383028354
:1017B0005396DC93CE93529786E0DF91CF911F91A1
:1017C0000F91DFCC2281338180819181D9018D936A
:1017D0009C9380819181DC0113963C932E93129708
:1017E00022893389D90107C014969C91149784816A
:1017F000981708F478C00D90BC91A02D2A173B07CC
:1018000099F731832083D90112968D919C9193830E
:101810008283DC01ED93FC93D9011396FC93EE9344
:101820001297A5CF2281338180819181D9018D9337
:101830009C9380819181DC0113963C932E931297A7
:10184000CF017BDC94CF9F01A2CF1D830C83D801F5
:101850005B968D919C915C979F838E835C96DC93C5
:10186000CE935B97DF91CF911F910F9108952281C5
:10187000338180819181D9018D939C938081918165
:10188000DC0113963C932E93129722893389D90158
:1018900006C014969C9114978481981730F10D908E
:1018A000BC91A02D2A173B07A1F731832083D901D2
:1018B00012968D919C9193838283DC01ED93FC932E
:1018C000D9011396FC93EE9312970288F389E02DC9
:1018D0000480F581E02DD80114968C91948198179D
:1018E00008F43BCF44CF9D018CCF9D01DECFF8940F
:1018F00020DF78940895CF93DF93C0914304D09173
:101900004404F894DC011696ED91FC911797FC8F36
:10191000EB8F2D913C912817390781F13D8D309740
:1019200079F0A081B181EA17FB0729F014962C9178
:10193000321708F4322F0680F781E02D309789F7AF
:10194000FC013C83A081B181CD91DC911197D183C1
:10195000C0839B838A83B583A4835B968D919C917E
:101960005C97978386835C96FC93EE935B97CD019F
:10197000E4DBFDDC7894DF91CF910895F9011582C5
:1019800014827894DF91CF910895CF93DF93EC0187
:101990002091430430914404EE81FF81D9015C968B
:1019A000FC93EE935B97A881B981A817B90761F101
:1019B000D9015D969C91309779F0A081B181EA17A9
:1019C000FB0729F014968C91981708F4982F06803D
:1019D000F781E02D309789F7F9019483E881F98147
:1019E000A081B181B983A8831396DC93CE9312971B
:1019F000FD83EC83838D948D9F838E83D48FC38FDF
:101A0000CF01DF91CF9199CB15961C921E9214971E
:101A1000DF91CF910895FC0191838083938382832A
:101A20000895CF93DF93FC01F89480819181E817AA
:101A3000F90761F0EC01A881B981B183A083139605
:101A4000FC93EE93129770E060E0F4DB7894DF9102
:101A5000CF910895EF92FF920F931F93CF93DF934F
:101A60008C01C0914304D0914404EB8CFC8CC701E1
:101A70008CDF1B8B0A8BD801F80104C094818C8108
:101A8000981718F10190F081E02D0E171F07B1F79C
:101A9000B983A8831296ED91FC911397FB83EA8397
:101AA000D183C0831396DC93CE93129787E069DBD2
:101AB0000A88DB89C02DC7013CDECE01DF91CF91C2
:101AC0001F910F91FF90EF900895DF01E1CFF894FF
:101AD000C1DF78940895FC01828D682B628F878521
:101AE0008A3059F08B3009F0089582896823861373
:101AF000FBCF138A128ACF0120CB82896823C9F7D2
:101B00000895EF92FF921F93CF93DF937C01162FDE
:101B1000FC01C081D1818C179D0791F08D81812BB3
:101B20008D83112319F08E81812321F06C818A81AC
:101B30009B81D1DF0990D881C02DEC16FD0671F78D
:101B4000DF91CF911F91FF90EF900895E3E8F4E0CB
:101B500085EC91E09183808385E492E09383828396
:101B60000895F894E0918504F09186049F01281B64
:101B7000390BC901719561957109862397239C01E1
:101B8000241B350B4091830450918404241735079E
:101B900048F0E217F30730F0309386042093850471
:101BA0007894089590E080E078940895E5E4F2E078
:101BB00081EB9DE0918380831382128215821482CF
:101BC0008BE492E0AECD2F923F924F925F926F9254
:101BD0007F928F929F92AF92BF92CF92DF92EF92BD
:101BE000FF920F931F93CF93DF93FB010DB60582F6
:101BF0000EB60682FC0105800DBE06800EBEDF918A
:101C0000CF911F910F91FF90EF90DF90CF90BF90F9
:101C1000AF909F908F907F906F905F904F903F908C
:101C20002F9008957894C201F101099539CD089556
:101C300081E08093DA02089584EE92E072DD80EE16
:101C400092E0E9DE8CED92E0E6DE82EF92E09093A6
:101C5000EF028093EE029093F1028093F0021092D3
:101C6000ED021092EC020895CF93DF93EC0184EE25
:101C700092E03DDE8091EC029091ED02803891057A
:101C800050F08CED92E023DF8091EC029091ED0218
:101C900080389105B0F7E091EE02F091EF02C19328
:101CA000D19323E0E23FF20798F022EF32E0309345
:101CB000EF022093EE0201969093ED028093EC02E6
:101CC00080EE92E0AEDE84EE92E0DF91CF9113CE13
:101CD000F093EF02E093EE02EECFCF93DF9384EE2A
:101CE00092E005DE8091EC029091ED02009749F4BC
:101CF00080EE92E0ECDE8091EC029091ED02009794
:101D0000B9F3E091F002F091F102C191D19123E099
:101D1000E23FF207A8F022EF32E03093F102209385
:101D2000F00201979093ED028093EC028CED92E02B
:101D300078DE84EE92E0DFDDCE01DF91CF91089571
:101D4000F093F102E093F002ECCFCF93DF93CDB7A5
:101D5000DEB761970FB6F894DEBF0FBECDBF1A8213
:101D6000198282E0898BEE24E394F12C332433949E
:101D70009924939454E0852E66E0262E1DC063E0DE
:101D800083E290E00E94E0030E94E703782E63E084
:101D900083E290E00E94E0030E94E503FC0192814F
:101DA000970101C0220F7A94EAF7922B92836BE19C
:101DB00076E080E090E076DCE091DB02E930F8F656
:101DC000F0E0EB51F14F0C94A31A5E112811D410DE
:101DD00080100A10B60F4B0FEE0E0F12F894898187
:101DE0009A81892B21F0CE0101960E94A6068E01D0
:101DF0000F5F1F4F28E13EE040E15AE760E070E0EE
:101E0000C8010E94980678948091DA02882351F1E3
:101E100039C462E083E290E00E94E0030E94E5039F
:101E2000FC01728062E083E290E00E94E0030E9485
:101E3000E703682E62E083E290E00E94E0030E94E4
:101E4000E503970101C0220F6A94EAF77226FC01AC
:101E5000728261EA77E080E090E024DC8091DA022F
:101E6000811110C48091EC029091ED02892B89F2CE
:101E700034DF8330910509F48CC48430910509F472
:101E800098C48230910509F4F2C4019709F0C1CFDA
:101E9000BB24B394BECF62E083E290E00E94E003F3
:101EA0000E94E703A82E62E083E290E00E94E00334
:101EB0000E94E503FC019281970102C0220F331FAB
:101EC000AA94E2F7209530959223928363E083E20F
:101ED00090E00E94E0030E94E703A82E63E083E203
:101EE00090E00E94E0030E94E503FC0192819701CB
:101EF00001C0220FAA94EAF7922B9283F894898169
:101F00009A81892B21F0CE0101960E94A6068E01AE
:101F10000F5F1F4F28E13EE048E157EB60E070E0C3
:101F2000C8010E94980678948091DA02882351F0C3
:101F3000E8C36BE176E080E090E0B4DB8091DA0208
:101F40008111DFC38091EC029091ED02892B89F31E
:101F5000C4DE8330910509F413C48430910509F47B
:101F600048C4019731F7BB24B394E3CF65E089E21D
:101F700090E00E94E0030E94E703782E65E089E28A
:101F800090E00E94E0030E94E503FC01928197012A
:101F900001C0220F7A94EAF7922B9283F8948981F8
:101FA0009A81892B21F0CE0101960E94A6068E010E
:101FB0000F5F1F4F28E13EE040E15AE760E070E02C
:101FC000C8010E94980678948091DA02882351F023
:101FD0005EC36BE176E080E090E064DB8091DA0242
:101FE000811155C38091EC029091ED02892B89F308
:101FF00074DE8330910509F4CFC38430910509F470
:10200000CEC38230910509F42CC4019711F7BB248B
:10201000B394DFCF60E083E290E00E94E0030E948F
:10202000E703B82E60E083E290E00E94E0030E94A4
:10203000E503FC019281970102C0220F331FBA947D
:10204000E2F7209530959223928361E083E290E05D
:102050000E94E0030E94E703B82E61E083E290E073
:102060000E94E0030E94E503FC019281970101C0F8
:10207000220FBA94EAF7922B92838989853009F46A
:1020800023C41092DA0290E3492E9EE6592E66246C
:102090006394712CF89489819A81892B21F0CE0167
:1020A00001960E94A6068E010F5F1F4F28E13EE0B9
:1020B000B301A201C8010E94980678948091DA02C7
:1020C000882351F043C26BE176E080E090E0EADAE9
:1020D0008091DA0281113AC28091EC029091ED0276
:1020E000892B89F3FADD8330910509F434C38430F8
:1020F000910509F463C3029731F7AA24A394E3CFAF
:1021000064E089E290E00E94E0030E94E703782EF9
:1021100064E089E290E00E94E0030E94E503FC0194
:102120009281970101C0220F7A94EAF7922B928351
:10213000F89489819A81892B21F0CE0101960E9421
:10214000A6068E010F5F1F4F28E13EE040E15AE7EF
:1021500060E070E0C8010E94980678948091DA02ED
:10216000882351F055C26BE176E080E090E09ADA86
:102170008091DA0281114CC28091EC029091ED02C3
:10218000892B89F3AADD8330910509F4F3C28430E9
:10219000910509F424C38230910509F46BC30197BA
:1021A00011F7BB24B394DFCF64E089E290E00E9492
:1021B000E0030E94E703782E64E089E290E00E9449
:1021C000E0030E94E503FC019281970101C0220F08
:1021D0007A94EAF7922B9283F89489819A81892BD9
:1021E00021F0CE0101960E94A6068E010F5F1F4FBF
:1021F00028E13EE040E15AE760E070E0C8010E945B
:10220000980678948091DA02882351F0C7C16BE177
:1022100076E080E090E046DA8091DA028111BEC17A
:102220008091EC029091ED02892B89F356DD833089
:10223000910509F4A2C28430910509F4D5C2823017
:10224000910509F41AC3019711F7BB24B394DFCFAA
:102250007C2C73248091EC029091ED02892B09F083
:10226000EDC2872D8D2109F0C7C2872D8A2109F083
:1022700007C37B2009F49BCD83E08093DB0267E0FA
:1022800089E290E00E94E0030E94E703C82E67E025
:1022900089E290E00E94E0030E94E503FC01928144
:1022A000970102C0220F331FCA94E2F720953095A0
:1022B00092239283BB24B394C12C79CD66E089E24A
:1022C00090E00E94E0030E94E703782E66E089E236
:1022D00090E00E94E0030E94E503FC0192819701D7
:1022E00002C0220F331F7A94E2F720953095922393
:1022F000928367E089E290E00E94E0030E94E70396
:10230000782E67E089E290E00E94E0030E94E503F6
:10231000FC019281970101C0220F7A94EAF7922B77
:10232000928360E083E290E00E94E0030E94E70372
:10233000782E60E083E290E00E94E0030E94E503D3
:10234000FC019281970101C0220F7A94EAF7922B47
:10235000928362E083E290E00E94E0030E94E70340
:10236000782E62E083E290E00E94E0030E94E503A1
:10237000FC019281970101C0220F7A94EAF7922B17
:102380009283E989E13009F4E1C21092DA0230E582
:10239000432E32E6532E32E0632E712CF89489815D
:1023A0009A81892B21F0CE0101960E94A6068E010A
:1023B0000F5F1F4F28E13EE0B301A201C8010E9458
:1023C000980678948091DA02882351F0BAC06BE1C4
:1023D00076E080E090E066D98091DA028111B1C0A8
:1023E0008091EC029091ED02892B89F376DC3C011F
:1023F000049709F471C081E0D81609F46DC0E2E0D9
:102400006E16710409F47BC0F1E06F16710409F4D3
:10241000BAC183E068167104D1F6C324D8CFF8940A
:1024200089819A81892B21F0CE0101960E94A6060E
:102430008E010F5F1F4F28E13EE040E15AE760E068
:1024400070E0C8010E94980678948091DA0288238F
:1024500051F158C062E083E290E00E94E0030E94E4
:10246000E503FC01728062E083E290E00E94E003F9
:102470000E94E703682E62E083E290E00E94E0039E
:102480000E94E503970101C0220F6A94EAF77226C1
:10249000FC01728261EA77E080E090E003D98091EC
:1024A000DA0281112FC08091EC029091ED02892B0C
:1024B00089F213DC8330910509F468C184309105F9
:1024C00009F472C18230910509F4CEC1019709F077
:1024D000C1CFBB24B394BECFF89489819A81892B54
:1024E00021F0CE0101960E94A60678949092DA021D
:1024F000DD24D394E2E06E16710409F085CFAA249E
:10250000A39465CF1092DA021092DB0262E083E2BC
:1025100090E00E94E0030E94E703782E62E083E2ED
:1025200090E00E94E0030E94E503FC019281970184
:1025300001C0220F7A94EAF7922B9283F2E0F98B92
:1025400036CC1092DA029092DB0231CC1092DA0291
:10255000DD2019F0C2DB0497E9F785E08093DB0208
:1025600061E083E290E00E94E0030E94E703D82E3E
:1025700061E083E290E00E94E0030E94E503FC0139
:102580009281970102C0220F331FDA94E2F720955F
:10259000309592239283B12CD12C09CC1092DA027F
:1025A0002092DB0264E089E290E00E94E0030E9456
:1025B000E703782E64E089E290E00E94E0030E9445
:1025C000E503FC019281970102C0220F331F7A9428
:1025D000E2F7209530959223928366E089E290E0BD
:1025E0000E94E0030E94E703782E66E089E290E013
:1025F0000E94E0030E94E503FC019281970101C063
:10260000220F7A94EAF7922B9283F5E0F98BCFCBE5
:102610001092DA028092DB0264E089E290E00E948C
:10262000E0030E94E703782E64E089E290E00E94D4
:10263000E0030E94E503FC019281970102C0220F92
:10264000331F7A94E2F7209530959223928366E0C7
:1026500089E290E00E94E0030E94E703782E66E0A2
:1026600089E290E00E94E0030E94E503FC01928170
:10267000970101C0220F7A94EAF7922B9283E5E04A
:10268000E98B95CB1092DA028092DB023FCF109259
:10269000DA021092DB0265E089E290E00E94E0033A
:1026A0000E94E703782E65E089E290E00E94E00353
:1026B0000E94E503FC019281970102C0220F331FA3
:1026C0007A94E2F7209530959223928360E083E23A
:1026D00090E00E94E0030E94E703782E60E083E22E
:1026E00090E00E94E0030E94E503FC0192819701C3
:1026F00001C0220F7A94EAF7922B9283E1E0E98BF2
:1027000056CB1092DA02D11022C0B11020C088E05E
:102710008093DB0263E083E290E00E94E0030E948A
:10272000E703A82E63E083E290E00E94E0030E94AA
:10273000E503FC019281970102C0220F331FAA9486
:10274000E2F72095309592239283A12C30CBF7E0CD
:10275000F093DB02DFCFF89489819A81892B21F0F5
:10276000CE0101960E94A60678949092DA02CC24BB
:10277000C394A9CCCC24C394F6CCCC24C39447CD29
:10278000CC24C394D6CBBB24B39421CECC24C39405
:1027900061CECC24C3943DCBCC24C3941ACCBB24AF
:1027A000B394DD24D39415CCBB24B394DD24D3940B
:1027B00051CEBB24B394DD24D3942BCBD11082C053
:1027C000F89489819A81892B21F0CE0101960E948B
:1027D000A60678949092DA02DD24D39474CCBB24BC
:1027E000B394DD24D394BFCCBB24B394DD24D39421
:1027F0000ECDDD24D3949DCB83E08093DB0267E094
:1028000089E290E00E94E0030E94E703D82E67E08F
:1028100089E290E00E94E0030E94E503FC019281BE
:10282000970102C0220F331FDA94E2F7209530950A
:1028300092239283DD24D394C12CB9CA4EDA83301B
:10284000910509F4C7C08430910509F4C7C08230EE
:10285000910509F4D2C0019709F003CDBB24B394CC
:1028600000CDAA24A394B5CBAA24A394F3CDAA2483
:10287000A394CFCAAA24A39476CCAA24A394C7CCA9
:1028800082E08093DB0267E089E290E00E94E0034F
:102890000E94E703C82E67E089E290E00E94E0030F
:1028A0000E94E503FC019281970102C0220F331FB1
:1028B000CA94E2F72095309592239283AA24A39498
:1028C000C12C75CAD12CFFCBF89489819A81892BB0
:1028D00021F0CE0101960E94A6068E010F5F1F4FC8
:1028E00028E13EE048E251E361E070E0C8010E9467
:1028F000980678948091DA02882359F01EC06BE123
:1029000076E080E090E00E94520B8091DA02811123
:1029100014C08091EC029091ED02892B81F3DDD9F6
:102920008330910509F461C08430910509F463C0D6
:10293000029729F7AA24A394E2CF1092DA0288E042
:10294000482E8DE3582E612C712CA4CBF8948981EC
:102950009A81892B21F0CE0101960E94A6068E0154
:102960000F5F1F4F28E13EE048E251E361E070E075
:10297000C8010E94980678948091DA02882359F061
:102980001FC06BE176E080E090E00E94520B8091E6
:10299000DA02811115C08091EC029091ED02892B31
:1029A00081F39BD983309105F1F08430910501F1D9
:1029B0008230910529F1019721F7BB24B394E1CF2F
:1029C0001092DA0228E2422E21E3522E662463940A
:1029D000712CE4CC8C2DC72C782E43CCBB24B39423
:1029E000DD24D3943ECCC324CCCFCC24C39487CF56
:1029F000DD24D394C6CFD32482CFAA24A39431CC90
:102A0000AA24A394BECFCF92DF92EF92CF936B0113
:102A1000E82E413069F1423009F447C0433009F4EF
:102A200061C0443041F081E082278923CF91EF904B
:102A3000DF90CF9008950E94E503FC01C0818E2DA8
:102A4000B6010E94E7032C2F30E002C03595279590
:102A50008A95E2F7217090915302922720935302B6
:102A600081E082278923CF91EF90DF90CF90089566
:102A70000E94E503FC01C0818E2DB6010E94E70390
:102A80002C2F30E002C0359527958A95E2F721700A
:102A90009091560292272093560281E08227892343
:102AA000CF91EF90DF90CF9008950E94E503FC0155
:102AB000C0818E2DB6010E94E7032C2F30E002C0AA
:102AC000359527958A95E2F72170909155029227C6
:102AD0002093550281E082278923CF91EF90DF90E8
:102AE000CF9008950E94E503FC01C0818E2DB601B0
:102AF0000E94E7032C2F30E002C0359527958A9578
:102B0000E2F721709091540292272093540281E0C1
:102B100082278923CF91EF90DF90CF900895CF93B4
:102B2000DF9300D01F92CDB7DEB78FEC90E09A8391
:102B3000898383E08B8380D80E9463000E94E9042C
:102B4000BE016F5F7F4F82EF93E00E945B0362E004
:102B500086E290E00E94E0030E94E703F82E62E024
:102B600086E290E00E94E0030E94E50301E010E0AD
:102B7000B80101C0660FFA94EAF743E00E94BC0373
:102B800064E086E290E00E94E0030E94E703F82EF2
:102B900064E086E290E00E94E0030E94E503B80151
:102BA00001C0660FFA94EAF743E00E94BC0363E0B9
:102BB00086E290E00E94E0030E94E703F82E63E0C3
:102BC00086E290E00E94E0030E94E503B80101C0A4
:102BD000660FFA94EAF743E00E94BC0365E086E2E0
:102BE00090E00E94E0030E94E703F82E65E086E291
:102BF00090E00E94E0030E94E503B80101C0660F67
:102C0000FA94EAF743E00E94BC0363E083E290E0B9
:102C10000E94E0030E94E703F82E63E083E290E065
:102C20000E94E0030E94E503B80101C0660FFA9418
:102C3000EAF746E00E94BC0363E083E290E00E9472
:102C4000E0030E94E703F82E63E083E290E00E9435
:102C5000E0030E94E503FC019281980102C0220F6B
:102C6000331FFA94E2F7209530959223928362E025
:102C700083E290E00E94E0030E94E703F82E62E006
:102C800083E290E00E94E0030E94E503B80101C0E6
:102C9000660FFA94EAF746E00E94BC0362E083E222
:102CA00090E00E94E0030E94E703F82E62E083E2D6
:102CB00090E00E94E0030E94E503FC0192819801EC
:102CC00002C0220F331FFA94E2F720953095922329
:102CD000928367E089E290E00E94E0030E94E703AC
:102CE000F82E67E089E290E00E94E0030E94E5038D
:102CF000B80101C0660FFA94EAF746E00E94BC03EF
:102D000067E089E290E00E94E0030E94E703F82E6A
:102D100067E089E290E00E94E0030E94E503FC0185
:102D20009281980102C0220F331FFA94E2F7209596
:102D300030959223928364E089E290E00E94E00360
:102D40000E94E703F82E64E089E290E00E94E0032D
:102D50000E94E503B80101C0660FFA94EAF746E065
:102D60000E94BC0364E089E290E00E94E0030E94BC
:102D7000E703F82E64E089E290E00E94E0030E94FD
:102D8000E503FC019281980102C0220F331FFA94DF
:102D9000E2F7209530959223928366E089E290E0F5
:102DA0000E94E0030E94E703F82E66E089E290E0CB
:102DB0000E94E0030E94E503B80101C0660FFA9487
:102DC000EAF746E00E94BC0366E089E290E00E94D8
:102DD000E0030E94E703F82E66E089E290E00E949B
:102DE000E0030E94E503FC019281980102C0220FDA
:102DF000331FFA94E2F7209530959223928361E095
:102E000083E290E00E94E0030E94E703F82E61E075
:102E100083E290E00E94E0030E94E503B80101C054
:102E2000660FFA94EAF746E00E94BC0361E083E291
:102E300090E00E94E0030E94E703F82E61E083E245
:102E400090E00E94E0030E94E503FC01928198015A
:102E500002C0220F331FFA94E2F720953095922397
:102E6000928365E089E290E00E94E0030E94E7031C
:102E7000F82E65E089E290E00E94E0030E94E503FD
:102E8000B80101C0660FFA94EAF746E00E94BC035D
:102E900065E089E290E00E94E0030E94E703F82EDB
:102EA00065E089E290E00E94E0030E94E503FC01F6
:102EB0009281980102C0220F331FFA94E2F7209505
:102EC00030959223928360E083E290E00E94E003D9
:102ED0000E94E703F82E60E083E290E00E94E003A6
:102EE0000E94E503B80101C0660FFA94EAF746E0D4
:102EF0000E94BC0360E083E290E00E94E0030E9435
:102F0000E703F82E60E083E290E00E94E0030E9475
:102F1000E503FC019281980102C0220F331FFA944D
:102F2000E2F7209530952923228310E000E025EA7E
:102F30003EE040E863E870E087E592E00E94D50A51
:102F40000AC084E090E00E94340E6EE073E080E0FE
:102F500090E00E94520B65E086E290E00E94E00360
:102F600041E051DD8111EDCF63E086E290E00E9407
:102F7000E00342E048DD882329F083E090E00E94EE
:102F8000340EE3CF64E086E290E00E94E00343E089
:102F90003ADD882329F081E090E00E94340ED5CFFD
:102FA00062E086E290E00E94E00344E02CDD8823AA
:102FB00061F282E090E00E94340EC7CFABE0B0E057
:102FC000E3EEF7E1CAC26C017B013A01FC01178212
:102FD0001682838181FFFFC0CE0101964C01F6016C
:102FE000B380F701B3FC0591B3FE01917F0100238B
:102FF00041F1053239F4B3FC0591B3FE01917F0133
:10300000053239F5B601802F90E032D353013501F6
:10301000E6CF1068F701B3FC0591B3FE01917F0183
:1030200017FD0DC0002369F0602F70E08FE690E07F
:10303000CFD2892B79F7033251F00C3651F30111BD
:103040000AC0F601868197812B96EEE0A2C210E1BC
:10305000E1CF10E0E5CF602F70E088E690E0B8D2D5
:10306000892B49F05301F4E0AF0EB11CB6018FE398
:1030700090E0FED2CCCF033609F452C0033709F4F6
:1030800059C0033509F455C0043619F0093609F062
:1030900070C0530117FF62C0F4E0AF0EB11CF30122
:1030A00060817181828193811F7E97FF08C0909516
:1030B0008095709561957F4F8F4F9F4F10642AE0E8
:1030C00030E0A4011DD3082F081916FF04C0B60173
:1030D0008DE290E0CDD214FF13C0FE01E00FF11D90
:1030E0008081803369F0B60180E390E0C1D212FFA5
:1030F00007C01072812F90E0B601885A9F4FB8D256
:10310000015010E00F5F1F4F080D191DF80182914B
:103110008F01B60190E0ACD208151905B9F777CF49
:10312000530182E0A80EB11CB601F30180819181A8
:10313000A0CF11605301F2E0AF0EB11CF30160802B
:103140007180F30110FD859110FF81913F0188236B
:1031500009F45DCFB60190E08BD2F3CFF2E0AF0E71
:10316000B11CF30160817181072E000C880B990B53
:103170009BCF003709F140F4083501F10F3609F013
:1031800060CF28E030E00CC0053739F0083709F08F
:1031900058CF146220E130E003C01F7E2AE030E007
:1031A000530117FF0FC0F4E0AF0EB11CF3016081B3
:1031B00071818281938185CF1061EBCF146020E112
:1031C00032E0EECFF2E0AF0EB11CF301608171810D
:1031D00090E080E076CF8FEF9FEF36CF20FD09C0E3
:1031E000FC0123FD05C022FF02C07383628351836B
:1031F0004083089544FD17C046FD1DC0DB01FC015E
:10320000AA0FBB1FEE1FFF1F1094D1F76A0F7B1F81
:103210008E1F9F1F660F771F881F991F620F711DDA
:10322000811D911D089533E0660F771F881F991F38
:103230003150D1F7F3CF34E0F7CF0F931F93CF93F3
:10324000DF938C01C801D8D1EC0197FD06C0B8D13D
:10325000892BC1F7B801CE013BD2CE01DF91CF91CE
:103260001F910F9108958F929F92AF92BF92EF920C
:10327000FF920F931F93CF93DF938C01D62F7A0188
:10328000B22EBAD19C0133272B32310529F02D32D1
:103290003105A1F46894B7F8D15061F480E0DF9172
:1032A000CF911F910F91FF90EF90BF90AF909F90A3
:1032B0008F900895C801A0D197FDF0CFCB2DCD7F81
:1032C0002B2D2073E9F48033D9F4AA24AA94AD0EEF
:1032D00079F0C80191D197FD0BC0282F2F7D28359B
:1032E00059F4C264D25021F0C80186D197FF08C0BA
:1032F000812C912C54011AC0B6FE29C0C260DA2D6F
:10330000812C912C540120ED280F283018F1C4FD98
:1033100009C02A30F8F0C6FF05C02F7D3FEE320FFE
:103320003630B8F0B801D4D1C1FFB8CFC7FF08C05C
:10333000B094A09490948094811C911CA11CB11C09
:103340002C2FB501A401C70149DF81E0A8CFC261DC
:10335000D6CF27504C2FC501B4014CDF4B015C0187
:10336000C260D15019F3C80147D197FFCCCFDCCF51
:10337000B0E0A0E0EDEBF9E1EFC06C01EB015A0128
:10338000FC0117821682512CF601F380FE01F3FC3A
:103390008591F3FE8191182FEF018823C9F090E009
:1033A0000FD1892B19F0C60148DFEECF153241F459
:1033B000FE01F3FC1591F3FE1191EF01153259F462
:1033C000C6011AD197FD98C01817F1F2B60180D145
:1033D000852D90E095C000E01A3231F4F3FC159190
:1033E000F3FE1191EF0101E0E12C20ED210F2A30D5
:1033F00038F101FF34C0EE2059F3183699F11C362C
:1034000009F43AC0112321F3612F70E08FE790E0B7
:10341000DFD0892BE9F2912C812C00FD06C0F5014B
:1034200080809180C50102965C011E3669F5F60127
:103430004681578170E060E0202FC401CFDEA4CF29
:1034400002606E2D70E090E080E040E2D3DEE62E78
:10345000FE01F3FC1591F3FE1191EF01C6CFEE24AE
:10346000EA94CBCFFE01F3FC1591F3FE1191EF012D
:10347000183609F0C7CF08600460FE01F3FC15910F
:10348000F3FE1191EF01BECF1336B9F401FD02C076
:10349000EE24E394C601B0D097FD2EC081149104B0
:1034A00029F0F4018083C40101964C01EA94E110F3
:1034B000F1CF00FD69CF539467CFC601BEDE97FD03
:1034C0001BC01F3609F43DC030F4143641F01936E4
:1034D00039F0006405C0133711F11537D1F70062D8
:1034E000202FA4016E2DC601BEDE8111E2CFF601B0
:1034F0008381807309F46CCF8FEF9FEF511068CFF9
:10350000CDB7DEB7EFE044C08114910429F0F40197
:103510006082C40101964C01EA94EE2059F0C60184
:103520006BD03C0197FD06C04BD0892B69F3B601E7
:10353000C301CED08114910409F4BBCFF4011082F1
:10354000B8CF0061CDCFEE0FFF1F0590F491E02DB5
:1035500009942F923F924F925F926F927F928F9237
:103560009F92AF92BF92CF92DF92EF92FF920F9312
:103570001F93CF93DF93CDB7DEB7CA1BDB0B0FB61C
:10358000F894DEBF0FBECDBF09942A8839884888D9
:103590005F846E847D848C849B84AA84B984C8846F
:1035A000DF80EE80FD800C811B81AA81B981CE0F66
:1035B000D11D0FB6F894DEBF0FBECDBFED0108954B
:1035C0009111FCC0803219F089508550D0F70895D0
:1035D000FC010590061621F00020D9F7C0010895DE
:1035E0003197CF010895FB01DC0102C001900D92DB
:1035F00041505040D8F70895CF93DF93EC012B81D1
:1036000020FF1AC026FF0CC02F7B2B838E819F8149
:1036100001969F838E838A8190E0DF91CF910895F8
:1036200022FF18C0E881F9818081082E000C990BD7
:10363000009729F420622B838FEF9FEFEECF319616
:10364000F983E8832E813F812F5F3F4F3F832E8395
:103650009927E3CFEA85FB85099597FFF3CF2B8167
:10366000019621F080E2822B8B83E6CF80E1FBCFB5
:103670000F931F93CF93DF93182F092FEB018B81AB
:1036800081FD09C01FEF0FEF812F902FDF91CF91A8
:103690001F910F91089582FF14C02E813F818C816C
:1036A0009D81281739073CF4E881F981CF01019603
:1036B0009983888310838E819F8101969F838E8357
:1036C000E3CFE885F985812F0995892BA1F3DACF1E
:1036D000FB01238120FF11C026FD0FC08F3F9807FB
:1036E00071F082832F7D20642383268137812150CE
:1036F000310937832683992708958FEF9FEF089527
:10370000FA01AA27283051F1203181F1E8946F9312
:103710006E7F6E5F7F4F8F4F9F4FAF4FB1E03ED0B8
:10372000B4E03CD0670F781F891F9A1FA11D680F56
:10373000791F8A1F911DA11D6A0F711D811D911D89
:10374000A11D20D009F468943F912AE0269F1124FE
:103750003019305D3193DEF6CF010895462F477062
:10376000405D4193B3E00FD0C9F7F6CF462F4F70BD
:10377000405D4A3318F0495D31FD4052419302D01B
:10378000A9F7EACFB4E0A6959795879577956795C1
:10379000BA95C9F700976105710508959B01AC01C1
:1037A0000A2E06945795479537952795BA95C9F7E8
:1037B000620F731F841F951FA01D089599278827E6
:0637C0000895F894FFCF0C
:1037C60000000E03FD0221031A031F03180307035B
:1037D600F6022603FF20FF00FF026330001A015A9B
:1037E60001C50169646C65006E6F6E616D65006D83
:1037F60061696E002B043802021E040507090D00DC
:103806000F10000000000000001504010001000078
:0A38160000000000050007191D1F47
:00000001FF
