:1000000044C000005FC000005DC000005BC0000095
:1000100059C0000057C0000055C0000053C0000088
:1000200051C000004FC000004DC00000B8C3000028
:1000300049C0000047C0000045C0000043C00000A8
:1000400041C000003FC00000F2C300002EC4000009
:1000500039C0000037C0000035C0000033C00000C8
:1000600031C000002FC0000045464765666700208C
:100070002B2D2E3031323334353637383968006322
:1000800064696E6F70737578580011241FBECFEFCE
:10009000D8E0DEBFCDBF11E0A0E0B1E0EAEBF0E2D6
:1000A00002C005900D92AA35B107D9F723E0AAE561
:1000B000B1E001C01D92A737B207E1F70E94190C09
:1000C0000C945B109DCF38D384E191E036D3C6D237
:1000D0002FD300C08FC38091840090918500089534
:1000E000909389008093880082E086BB80936F00A4
:1000F000089510926F00089590938900809388006E
:100100000895AF92BF92CF92DF92EF92FF920F933A
:100110001F93CF93DF93EC016B018A018C819D814A
:100120008417950710F40C811D816C857D85E8840A
:10013000F984E61AF70A0E151F0598F1E016F10684
:10014000D0F0A801C6010E946D0F8E819F819D870E
:100150008C878C819D81801B910B9D838C83C80132
:10016000DF91CF911F910F91FF90EF90DF90CF9093
:10017000BF90AF900895A701C6010E946D0F58016E
:10018000AE18BF086E817F81A501C6018E0D9F1D2F
:100190000E946D0F4E815F814A0D5B1D5D874C870C
:1001A000D8CFA801C6010E946D0F8C859D85800F58
:1001B000911F9D878C87CDCFAF92BF92CF92DF9258
:1001C000EF92FF920F931F93CF93DF93EC016B019C
:1001D0008A018C819D818417950710F40C811D8103
:1001E0008A859B85E884F984E81AF90A0E151F05AB
:1001F00098F1E016F106D0F0A801B6010E946D0F4B
:100200008E819F819B878A878C819D81801B910B2A
:100210009D838C83C801DF91CF911F910F91FF9037
:10022000EF90DF90CF90BF90AF900895A701B601F7
:100230000E946D0F5801AE18BF08B6016E0D7F1DEC
:10024000A5018E819F810E946D0F4E815F814A0DB5
:100250005B1D5B874A87D8CFA801B6010E946D0F4E
:100260008A859B85800F911F9B878A87CDCF0F93AF
:100270001F93FC0191838083938382831582148270
:10028000778366837587648773876287640F751FBA
:100290007187608737872687118B008B1F910F919D
:1002A0000895FC01A285B38584859585A817B907B3
:1002B000E9F084819581019695838483CD0101962F
:1002C000938782876C932285338580859185281753
:1002D000390720F08681978193878287CF0170E06C
:1002E00060E00E940A0B90E080E00895848195818F
:1002F000892BF9F28FEF9FEF0895CF92DF92EF9263
:10030000FF921F93CF93DF93EC016A017B01F89476
:1003100007C0B701A601CE010E94EB0A97FD2AC0D3
:100320008C819D81892BA9F38C819D8101979D836F
:100330008C83EC85FD85CF0101969D878C8710818C
:10034000288539858217930720F08E819F819D87AC
:100350008C87EE85FF85309711F0CE010995789452
:10036000812F90E0DF91CF911F91FF90EF90DF9070
:10037000CF9008957894DF91CF911F91FF90EF90E7
:10038000DF90CF9008954F925F926F927F928F92FD
:100390009F92AF92BF92CF92DF92EF92FF920F9314
:1003A0001F93CF93DF936C017B014A012801390130
:1003B000FC01A684B784F89441155105B9F08A016F
:1003C000A801B701C6019DDEEC01892B11F1A11432
:1003D000B10419F0C601F501099578940C1B1D0BA9
:1003E000EC0EFD1EF8940115110551F7C401789427
:1003F000DF91CF911F910F91FF90EF90DF90CF9001
:10040000BF90AF909F908F907F906F905F904F9034
:100410000895B301A201C6010E94EB0A892B81F263
:10042000C401801B910BE3CF0F931F93FC019183B9
:100430008083938382835583448377836683758720
:10044000648773876287640F751F7187608737873A
:100450002687118B008B1F910F910895CF92DF9209
:10046000EF92FF921F93CF93DF93EC01162F690158
:100470007A01F89407C0B701A601CE010E94EB0AE9
:1004800097FD2CC08C819D81892BA9F38C819D8146
:1004900001979D838C83EA85FB85CF0101969B871D
:1004A0008A8710832A853B8588859985281739078F
:1004B00020F08E819F819B878A87EE85FF8530970C
:1004C00011F0CE010995789490E080E0DF91CF9112
:1004D0001F91FF90EF90DF90CF9008957894DF9177
:1004E000CF911F91FF90EF90DF90CF900895CF9321
:1004F000FC01A485B585828593858A179B07E9F061
:1005000084819581019695838483CD010196958799
:100510008487CC91208531858217930748F4CF01D9
:1005200070E060E00E940A0B8C2F90E0CF9108955C
:100530008681978195878487F2CF84819581892BE5
:10054000F9F28FEF9FEFCF9108954F925F926F92E4
:100550007F928F929F92AF92BF92CF92DF92EF9253
:10056000FF920F931F93CF93DF936C017B014A019E
:1005700028013901FC01A684B784F894411551057E
:10058000B9F08A01A801B701C60116DEEC01892B7A
:1005900011F1A114B10419F0C601F501099578947F
:1005A0000C1B1D0BEC0EFD1EF8940115110551F7E7
:1005B000C4017894DF91CF911F910F91FF90EF903C
:1005C000DF90CF90BF90AF909F908F907F906F9073
:1005D0005F904F900895B301A201C601FCD7892B0B
:1005E00089F2C401801B910BE4CF0F931F930596F2
:1005F000CADE1F910F9108950F931F930FEF1FEF06
:1006000098010596C0DE1F910F9108950F931F93D7
:1006100047969BDF1F910F9108950F931F930FEF44
:100620001FEF9801479691DF1F910F91089505964E
:1006300064CE4FEF5FEFBA0105965FCE47960ECFBF
:100640002FEF3FEFA901479609CF6130710519F0EF
:100650008CEE9FEF089590E080E008955DC1EF92E9
:10066000FF920F931F93CF93DF93EC019B017A01CD
:10067000FC0180E091E081939193FB83EA8381E028
:100680008C83BE01675D7F4F8E0140E150E0CE015B
:100690000596EDDDBE01675C7F4F970140E150E0BC
:1006A000CE014796C1DEDF91CF911F910F91FF9050
:1006B000EF9008951F93CF93DF93EC01162F898558
:1006C0009A85892B51F0612FCE010596EADD97FDC1
:1006D0000EC0DF91CF911F91089564E0CE01029684
:1006E000D0D7612FCE010596DCDD97FFF2CF60E019
:1006F000CE010296DF91CF911F91C3C70F931F9335
:10070000CF93DF938C014796F2DEEC0197FD06C094
:10071000CE01DF91CF911F910F91089568E0C8013C
:100720000296AFD7CE01DF91CF911F910F9108951F
:10073000109269001DBA08950895FC01808185B961
:10074000818184B9828188B9838187B984818BB999
:1007500085818AB90895FC014230C9F098F045308E
:10076000B1F0463021F48181682B618308954330D4
:10077000E9F79181862F8095892381838281682B77
:1007800062830895442319F0413099F308958181DB
:1007900060958623818382816823628308951F92F6
:1007A0000F920FB60F9211242F933F934F935F93A5
:1007B0006F937F938F939F93AF93BF93EF93FF9329
:1007C00081E080936B03C4D010926B0329D5811113
:1007D00037D5FF91EF91BF91AF919F918F917F910D
:1007E0006F915F914F913F912F910F900FBE0F909E
:1007F0001F90189510928000E1E8F0E088E0808377
:100800001092820010928900109288001092850048
:100810001092840082E086BB10926F0085E0808396
:100820000895E1ECF0E080818062808308951F925A
:100830000F920FB60F9211242F933F934F935F9314
:100840006F937F938F939F93AF93BF93EF93FF9398
:1008500081E080936B038091C000982F9C7141F0E0
:1008600060E282FF60E084FD1EC088ED92E009D75F
:100870006091C60086ED92E01DDF10926B03D0D42C
:100880008111DED4FF91EF91BF91AF919F918F9134
:100890007F916F915F914F913F912F910F900FBE7C
:1008A0000F901F9018956064E0CF1F920F920FB6C3
:1008B0000F9211242F933F934F935F936F937F93E6
:1008C0008F939F93AF93BF93EF93FF9381E08093B8
:1008D0006B0386ED92E012DF97FD18C08093C6008F
:1008E00010926B039DD48111ABD4FF91EF91BF9116
:1008F000AF919F918F917F916F915F914F913F91B8
:100900002F910F900FBE0F901F9018958091C100EE
:100910008F7D8093C100E4CF41E154E070E060E05E
:1009200086ED92E09CCECF93DF93CFE1D3E081E0E0
:1009300088831A821982CAD6F9D66DE171E082E203
:1009400093E0BED482E088837894DF91CF910895BC
:1009500030C20F931F93E2E2F3E0078D10A121A1B3
:1009600032A1DC01CB01802B912BA22BB32B878FE3
:1009700090A3A1A3B2A31F910F9108958F929F926C
:10098000AF92BF92CF92DF92EF92FF920F931F939D
:10099000CF93DF93FC01EB0170933203609331033B
:1009A000248335834683578389E293E0938382834C
:1009B000A0912903B0912A03B183A0831396FC93DD
:1009C000EE931297F0932A03E093290369017A01C9
:1009D00081E0C8168FEFD806E104F10420F0C12CA5
:1009E000D12C7601DA9482E0C816D104E104F10436
:1009F00028F492E0C92ED12CE12CF12CCE018C0DE3
:100A00009D1D6EDB82E0882E912CA12CB12C0EC096
:100A1000750164018FEFC81AD80AE80AF80ACE01F6
:100A20008C0D9D1D69DBE8014601570154DB8C01EB
:100A30008C1B9D0BB0E0A0E08C159D05AE05BF059D
:100A400038F783E088169104A104B10468F4DF91BB
:100A5000CF911F910F91FF90EF90DF90CF90BF90BB
:100A6000AF909F908F90089561E070E080E090E0FB
:100A7000DF91CF911F910F91FF90EF90DF90CF907A
:100A8000BF90AF909F908F9064CF8F929F92AF92C4
:100A9000BF92CF92DF92EF92FF92CF93DF93EC0160
:100AA0006A017B0121E0C2162FEFD206E104F104B6
:100AB00020F0C12CD12C7601DA9482E0C816D10442
:100AC000E104F10428F492E0C92ED12CE12CF12CA0
:100AD00082E0882E912CA12CB12C0AC075016401F2
:100AE0002FEFC21AD20AE20AF20AEC0146015701BC
:100AF000CE018C0D9D1D00DBEEDAAC014C1B5D0BB5
:100B000070E060E04C155D056E057F0538F783E009
:100B100088169104A104B10458F4DF91CF91FF909D
:100B2000EF90DF90CF90BF90AF909F908F900895FF
:100B300061E070E080E090E0DF91CF91FF90EF9076
:100B4000DF90CF90BF90AF909F908F9002CF8F9209
:100B50009F92AF92BF92CF92DF92EF92FF92CF938C
:100B6000DF93EC014A015B01B6DAE0912903F091D1
:100B70002A0323E0E932F20709F473C0209131031C
:100B800030913203AC01421B530B70E060E0750101
:100B90006401C40ED51EE61EF71EC416D506E60671
:100BA000F70608F44FC04481558166817781C416E9
:100BB000D506E606F70608F448C04C155D056E0537
:100BC0007F0580F4C41AD50AE60AF70A0190F0817D
:100BD000E02D44815581668177814C155D056E0558
:100BE0007F0580F3CC82DD82EE82FF82F983E88389
:100BF000A281B381BB83AA83CD93DC93D383C283C9
:100C000084819581A681B7818C199D09AE09BF09A0
:100C100084839583A683B7838FEF9FEFDC01809356
:100C20002D0390932E03A0932F03B0933003DF91F5
:100C3000CF91FF90EF90DF90CF90BF90AF909F90BB
:100C40008F90089575016401AECFB501A4011DDF39
:100C5000E0912903F0912A034481558166817781CF
:100C6000ACCFA5019401BC01CE01DF91CF91FF90E3
:100C7000EF90DF90CF90BF90AF909F908F907ECEFF
:100C80000F931F93FC0113870287318720871486F7
:100C90001586168617861F910F9159CF0F931F93B4
:100CA000CF93DF93FC01A081B181809129039091C2
:100CB0002A03E817F90781F1C281D381B983A88398
:100CC000A081B1811396DC93CE93129714964D9127
:100CD0005D916D917C9117970481158126813781F3
:100CE000400F511F621F731F14964D935D936D93B8
:100CF0007C931797118210828FEF9FEFDC01809316
:100D00002D0390932E03A0932F03B0933003DF9114
:100D1000CF911F910F910895B0932A03A0932903B7
:100D200089E293E013969C938E931297118210821E
:100D3000A0912903B0912A03A817B907A9F1149625
:100D40004D915D916D917C9117970481158126815C
:100D50003781400F511F621F731F14964D935D938F
:100D60006D937C931797B7D920913103309132035B
:100D70008C01021B130B30E020E0E0912903F0917D
:100D80002A03448155816681778104171507260758
:100D9000370708F0BCCF401B510B620B730BDF9180
:100DA000CF911F910F9171CEDF91CF911F910F9134
:100DB000A0C94F925F926F927F928F929F92AF9253
:100DC000BF92CF92DF92EF92FF920F931F93CF9338
:100DD000DF93CC24CA94DC2C76010FC06A857B8516
:100DE000E885F985CE0109958C859D85AE85BF8501
:100DF000892B8A2B8B2B09F05AC0C0912903D091E3
:100E00002A0369D900913103109132034C01801AF1
:100E1000910AB12CA12C4C815D816E817F81841659
:100E20009506A606B706F0F0040F151F10933203BF
:100E300000933103EA81FB818881998191838083CA
:100E4000A881B9811396FC93EE93129719821882A8
:100E50008091290390912A038952934009F0BECFD3
:100E600048D9BCCF2091290330912A03295233401D
:100E700009F478C0909332038093310348195909DB
:100E80006A097B094C835D836E837F83DF91CF91F9
:100E90001F910F91FF90EF90DF90CF90BF90AF9098
:100EA0009F908F907F906F905F904F90EECD13D971
:100EB0005C012C01401A510A712C612C8C859D8596
:100EC000AE85BF8584159505A605B70508F45BC0FA
:100ED0000091290310912A03E3E009321E0709F467
:100EE00062C0F801448155816681778148175907AE
:100EF0006A077B0788F4841B950BA60BB70BF801D8
:100F000000811181F80144815581668177814817FC
:100F100059076A077B0778F38C839D83AE83BF8371
:100F200019830883F801228133813B832A83F901E5
:100F3000D183C083F801D383C28344815581668104
:100F40007781481B590B6A0B7B0B4483558366835F
:100F50007783C0922D03D0922E03E0922F03F0925C
:100F600030034BCFDF91CF911F910F91FF90EF9006
:100F7000DF90CF90BF90AF909F908F907F906F90B9
:100F80005F904F90089562E070E080E090E0E1DCD7
:100F90000091290310912A0383E009321807E1F038
:100FA000D301C2019ECF9C01AD0124193509460928
:100FB0005709B501CE01DF91CF911F910F91FF909D
:100FC000EF90DF90CF90BF90AF909F908F907F90E9
:100FD0006F905F904F90D2CC20E030E0A901E9CF34
:100FE000CF93DF93DB011F968C911F978430F1F133
:100FF00080F5882359F1833031F45296ED91FC91BC
:101000005397118210828FEF9FEF53969C938E938C
:1010100052971F961C921F971B96ED91FC911C975F
:1010200014969C9114970190F081E02D848189178A
:10103000D0F71196FC93EE93C281D3811396DC9383
:10104000CE931297B983A883B383A283DF91CF9104
:101050000895873059F08C3049F08530A1F65296CA
:10106000ED91FC91539784818F5F84831296ED916B
:10107000FC9113978D919C91119791838083CD91D1
:10108000DC911197FB83EA83BECFCF93DF93DC0122
:101090001F961C921F971B96ED91FC911C9714961E
:1010A0008C9114970190F081E02D94819817D0F7DE
:1010B0001196FC93EE93C281D3811396DC93CE9369
:1010C0001297B983A883B383A283CD01DF91CF9117
:1010D0000895CF93DF93E2E2F3E065817681DB014F
:1010E0001F968C9380819181EC01A881B981B18395
:1010F000A0831396FC93EE93129721E02F8796839B
:10110000858321D3DF91CF910895DF92EF92FF92F3
:101110000F931F93CF93DF93CDB7DEB760970FB6D2
:10112000F894DEBF0FBECDBFD82EE0902703F0901D
:1011300028034F3F8FEF58076807780701F18701B1
:1011400020EF37E0CE0101969BDD8D2DC2DF898136
:101150009A81892B19F0CE010196A0DDF7018289D1
:10116000938960960FB6F894DEBF0FBECDBFDF91B6
:10117000CF911F910F91FF90EF90DF9008958D2DEB
:10118000A8DFECCFCF93DF93DC01C0912703D09190
:10119000280353967C936E93529714962C91149730
:1011A0009C819217E8F01F961C921F971B96ED9159
:1011B000FC911C970190F081E02D84818217D0F77B
:1011C0001196FC93EE93C281D3811396DC93CE9358
:1011D0001297B983A883B383A283DF91CF91089537
:1011E0001F86EB85FC850190F081E02D84819817A6
:1011F000D0F3CD01F983E883A281B381BB83AA83B5
:10120000CD93DC93D383C28321E0FC0127879093A5
:10121000280380932703BE0196D2DF91CF910895D2
:10122000A0912203B0912303E0912703F0912803BA
:1012300081E014962C919481921708F080E0089533
:10124000CF93DF93A0912703B0912803409122030D
:1012500050912303EA01E881F981F0932303E0939D
:10126000220382E293E09383828381E08F8750930D
:101270002803409327031F961C921F971B96ED91FE
:10128000FC911C9714962C9114970190F081E02DFD
:1012900094812917D0F31196FC93EE938281938168
:1012A00013969C938E931297EC01B983A883B38312
:1012B000A283BD01CA0147D2DF91CF910895FFCF2C
:1012C000CF92DF92FF920F931F93CF93DF93CDB70F
:1012D000DEB72B970FB6F894DEBF0FBECDBF8C01E3
:1012E0006B019093210380932003FC01168E158ED1
:1012F00074A363A3FF24F394F0926B039183808320
:101300009383828314824996928F818F948F838FE7
:10131000178E10A211A212A24297908787839287FC
:1013200081878FEF9FEFDC0183879487A587B6873E
:10133000108A17860E946B009C01F801218B328B6A
:10134000138A148A158A168A178A108EED5BFF4F4E
:1013500011821082B8016B5D7F4F20E84FE251E0AF
:10136000C8012AD0F80196838583FC01F78683E2C1
:1013700091E09A838983F601828193819C838B8398
:10138000848195819E838D83FF828FE599E0998783
:1013900088871B861A86CE0101969ED02B960FB6A3
:1013A000F894DEBF0FBECDBFDF91CF911F910F919B
:1013B000FF90DF90CF900895CF93DF93FB012483BC
:1013C00032E03787108A94878387258F148E138E97
:1013D000128E21E0218B568745879B01295F3F4F65
:1013E000AC01475E5F4F50874783EC01AB8DBC8DEE
:1013F000B287A1872D933C933C8F2B8FCB014496D2
:10140000958B848B0296978B868B918F808FCB01E7
:10141000DF91CF910895CF93DF93DC0114962D9146
:101420003C911597F9017E97E901E397D683C5832F
:1014300017969C91179718968C9118979A8B898B71
:1014400019969C9119971A968C911A97988B8F8759
:1014500082ED9BE09B8B8C8B16968C9116974D9111
:101460005C91848392E09787108A62E273E07487CC
:101470006387858F148E138E128E81E0818B568741
:101480004587D90157978BE393E011969C938E93F0
:10149000EB018B8D9C8D13969C938E931297EC0190
:1014A000B983A883EB01BC8FAB8F1D960B2E1196D1
:1014B0000C921197AC9312960B2E11960C921197D9
:1014C000AC930A2E1B2E13961C920E921124129787
:1014D000CF01DF91CF9108959EDFD7CD0F931F935A
:1014E000CF93DF93F8946E517109EC01C60FD71FAB
:1014F000FE017597FE83ED83228B318B008B17875E
:1015000082ED9BE0938B848B4C8382E08F87188ADB
:10151000E2E2F3E0FC87EB874D8F1C8E1B8E1A8E68
:1015200081E0898B88E291E09E878D87CE010796C6
:101530002BE333E038872F83A38DB48DBA87A98737
:101540008D939C93948F838F0D969D8B8C8B02969D
:101550009F8B8E8B998F888F70E060E0CE0112DEBA
:101560007894CE01DF91CF911F910F9108950F9341
:101570001F93CF93DF93C0912703D09128039B8BB8
:101580008A8B8E010C5E1F4F8C899D890817190765
:1015900059F0FC01208131813D8B2C8B76DD8C89CB
:1015A0009D8980179107A9F7898981110CC0E98568
:1015B000FA858F81988591838083AF81B885139652
:1015C000FC93EE9312978FE0DF91CF911F910F91D3
:1015D00080CDF894CCCFCF93DF93E0912703F091A7
:1015E0002803411551056105710579F091838083C8
:1015F000EC01AA81BB81B383A283ED93FC93FB83AF
:10160000EA8384E0DF91CF9180CD8FEF9FEFDF9170
:10161000CF910895CF93DF93FC0180819181E817EA
:10162000F90771F0EC01A881B981B183A083139609
:10163000FC93EE9312977B8B6A8BDF91CF9125CD34
:10164000DF91CF910895FC019183808393838283FE
:10165000158214820895FC01828D682B628F878524
:101660008A3059F08B3009F00895828968238613F7
:10167000FBCF138A128ACF0108CD82896823C9F76C
:101680000895EF92FF921F93CF93DF937C01162F63
:10169000FC01C081D1818C179D0791F08D81812B38
:1016A0008D83112319F08E81812321F06C818A8131
:1016B0009B81D1DF0990D881C02DEC16FD0671F712
:1016C000DF91CF911F91FF90EF900895E7E6F3E04F
:1016D00085EC91E09183808385E492E0938382831B
:1016E0000895F894E0916903F0916A039F01281B23
:1016F000390BC901719561957109862397239C0166
:10170000241B350B4091670350916803241735075C
:1017100048F0E217F30730F030936A03209369032F
:101720007894089590E080E078940895E5E4F2E0FC
:1017300081E79BE091838083138212821582148259
:101740008BE492E080CF2F923F924F925F926F9204
:101750007F928F929F92AF92BF92CF92DF92EF9241
:10176000FF920F931F93CF93DF93FB010DB605827A
:101770000EB60682FC0105800DBE06800EBEDF910E
:10178000CF911F910F91FF90EF90DF90CF90BF907E
:10179000AF909F908F907F906F905F904F903F9011
:1017A0002F9008957894C201F101099512CF089500
:1017B0000F931F93CF93DF93EC0185B190E28927BC
:1017C00085B988819981892B11F0CE0167DA8E0164
:1017D00028ED3BE048E251E361E070E0CE0150DAF1
:1017E000DF91CF911F910F910895CF93DF93CDB7E4
:1017F000DEB760970FB6F894DEBF0FBECDBF1A827A
:101800001982F89489819A81892B79F0CE01019609
:101810007C0144DA870128ED3BE048E251E361E0D6
:1018200070E0C7012DDA7894FFCFCE0101967C01DC
:10183000F1CF1092740310927503109276030E94F8
:10184000630071D846E060E889E290E00E94AB0353
:101850005F9846E060E489E290E00E94AB035E9806
:1018600046E062E083E290E00E94AB03299846E004
:1018700061E083E290E00E94AB03289846E068E0D4
:1018800083E290E00E94AB032B9846E064E083E2A1
:1018900090E00E94AB032A9846E060E283E290E089
:1018A0000E94AB032D9810E000E025EF3BE041E8FB
:1018B00063E870E083E592E011DEFFCFABE0B0E0DB
:1018C000E3E6FCE0C4C26C017B013A01FC01178233
:1018D0001682838181FFFFC0CE0101964C01F60183
:1018E000B380F701B3FC0591B3FE01917F010023A2
:1018F00041F1053239F4B3FC0591B3FE01917F014A
:10190000053239F5B601802F90E02CD35301350113
:10191000E6CF1068F701B3FC0591B3FE01917F019A
:1019200017FD0DC0002369F0602F70E08FE690E096
:10193000C9D2892B79F7033251F00C3651F30111DA
:101940000AC0F601868197812B96EEE09CC210E1D9
:10195000E1CF10E0E5CF602F70E088E690E0B2D2F2
:10196000892B49F05301F4E0AF0EB11CB6018FE3AF
:1019700090E0F8D2CCCF033609F452C0033709F413
:1019800059C0033509F455C0043619F0093609F079
:1019900070C0530117FF62C0F4E0AF0EB11CF30139
:1019A00060817181828193811F7E97FF08C090952D
:1019B0008095709561957F4F8F4F9F4F10642AE0FF
:1019C00030E0A40117D3082F081916FF04C0B60190
:1019D0008DE290E0C7D214FF13C0FE01E00FF11DAD
:1019E0008081803369F0B60180E390E0BBD212FFC2
:1019F00007C01072812F90E0B601885A9F4FB2D273
:101A0000015010E00F5F1F4F080D191DF801829162
:101A10008F01B60190E0A6D208151905B9F777CF66
:101A2000530182E0A80EB11CB601F30180819181BF
:101A3000A0CF11605301F2E0AF0EB11CF301608042
:101A40007180F30110FD859110FF81913F01882382
:101A500009F45DCFB60190E085D2F3CFF2E0AF0E8E
:101A6000B11CF30160817181072E000C880B990B6A
:101A70009BCF003709F140F4083501F10F3609F02A
:101A800060CF28E030E00CC0053739F0083709F0A6
:101A900058CF146220E130E003C01F7E2AE030E01E
:101AA000530117FF0FC0F4E0AF0EB11CF3016081CA
:101AB00071818281938185CF1061EBCF146020E129
:101AC00032E0EECFF2E0AF0EB11CF3016081718124
:101AD00090E080E076CF8FEF9FEF36CF20FD09C0FA
:101AE000FC0123FD05C022FF02C073836283518382
:101AF0004083089544FD17C046FD1DC0DB01FC0175
:101B0000AA0FBB1FEE1FFF1F1094D1F76A0F7B1F98
:101B10008E1F9F1F660F771F881F991F620F711DF1
:101B2000811D911D089533E0660F771F881F991F4F
:101B30003150D1F7F3CF34E0F7CF0F931F93CF930A
:101B4000DF938C01C801D2D1EC0197FD06C0B2D160
:101B5000892BC1F7B801CE0135D2CE01DF91CF91EB
:101B60001F910F9108958F929F92AF92BF92EF9223
:101B7000FF920F931F93CF93DF938C01D62F7A019F
:101B8000B22EB4D19C0133272B32310529F02D32EE
:101B90003105A1F46894B7F8D15061F480E0DF9189
:101BA000CF911F910F91FF90EF90BF90AF909F90BA
:101BB0008F900895C8019AD197FDF0CFCB2DCD7F9E
:101BC0002B2D2073E9F48033D9F4AA24AA94AD0E06
:101BD00079F0C8018BD197FD0BC0282F2F7D2835B8
:101BE00059F4C264D25021F0C80180D197FF08C0D7
:101BF000812C912C54011AC0B6FE29C0C260DA2D86
:101C0000812C912C540120ED280F283018F1C4FDAF
:101C100009C02A30F8F0C6FF05C02F7D3FEE320F15
:101C20003630B8F0B801CED1C1FFB8CFC7FF08C079
:101C3000B094A09490948094811C911CA11CB11C20
:101C40002C2FB501A401C70149DF81E0A8CFC261F3
:101C5000D6CF27504C2FC501B4014CDF4B015C019E
:101C6000C260D15019F3C80141D197FFCCCFDCCF6E
:101C7000B0E0A0E0EDE3FEE0E9C06C01EB015A0149
:101C8000FC0117821682512CF601F380FE01F3FC51
:101C90008591F3FE8191182FEF018823C9F090E020
:101CA00009D1892B19F0C60148DFEECF153241F476
:101CB000FE01F3FC1591F3FE1191EF01153259F479
:101CC000C60114D197FD98C01817F1F2B6017AD168
:101CD000852D90E095C000E01A3231F4F3FC1591A7
:101CE000F3FE1191EF0101E0E12C20ED210F2A30EC
:101CF00038F101FF34C0EE2059F3183699F11C3643
:101D000009F43AC0112321F3612F70E08FE790E0CE
:101D1000D9D0892BE9F2912C812C00FD06C0F50168
:101D200080809180C50102965C011E3669F5F6013E
:101D30004681578170E060E0202FC401CFDEA4CF40
:101D400002606E2D70E090E080E040E2D3DEE62E8F
:101D5000FE01F3FC1591F3FE1191EF01C6CFEE24C5
:101D6000EA94CBCFFE01F3FC1591F3FE1191EF0144
:101D7000183609F0C7CF08600460FE01F3FC159126
:101D8000F3FE1191EF01BECF1336B9F401FD02C08D
:101D9000EE24E394C601AAD097FD2EC081149104CD
:101DA00029F0F4018083C40101964C01EA94E1100A
:101DB000F1CF00FD69CF539467CFC601BEDE97FD1A
:101DC0001BC01F3609F43DC030F4143641F01936FB
:101DD00039F0006405C0133711F11537D1F70062EF
:101DE000202FA4016E2DC601BEDE8111E2CFF601C7
:101DF0008381807309F46CCF8FEF9FEF511068CF10
:101E0000CDB7DEB7EFE03EC08114910429F0F401B4
:101E10006082C40101964C01EA94EE2059F0C6019B
:101E200065D03C0197FD06C045D0892B69F3B6010A
:101E3000C301C8D08114910409F4BBCFF40110820E
:101E4000B8CF0061CDCF2F923F924F925F926F92A9
:101E50007F928F929F92AF92BF92CF92DF92EF923A
:101E6000FF920F931F93CF93DF93CDB7DEB7CA1BBB
:101E7000DB0B0FB6F894DEBF0FBECDBF09942A88E6
:101E8000398848885F846E847D848C849B84AA848E
:101E9000B984C884DF80EE80FD800C811B81AA811B
:101EA000B981CE0FD11D0FB6F894DEBF0FBECDBFE6
:101EB000ED0108959111FCC0803219F089508550D0
:101EC000D0F70895FC010590061621F00020D9F7FF
:101ED000C00108953197CF010895FB01DC0102C0D4
:101EE00001900D9241505040D8F70895CF93DF9361
:101EF000EC012B8120FF1AC026FF0CC02F7B2B8307
:101F00008E819F8101969F838E838A8190E0DF91ED
:101F1000CF91089522FF18C0E881F9818081082EB1
:101F2000000C990B009729F420622B838FEF9FEF11
:101F3000EECF3196F983E8832E813F812F5F3F4FAB
:101F40003F832E839927E3CFEA85FB85099597FF89
:101F5000F3CF2B81019621F080E2822B8B83E6CF99
:101F600080E1FBCF0F931F93CF93DF93182F092F9F
:101F7000EB018B8181FD09C01FEF0FEF812F902FA7
:101F8000DF91CF911F910F91089582FF14C02E8190
:101F90003F818C819D81281739073CF4E881F981C4
:101FA000CF0101969983888310838E819F8101964A
:101FB0009F838E83E3CFE885F985812F0995892B4F
:101FC000A1F3DACFFB01238120FF11C026FD0FC052
:101FD0008F3F980771F082832F7D206423832681B1
:101FE00037812150310937832683992708958FEF50
:101FF0009FEF0895FA01AA27283051F1203181F18D
:10200000E8946F936E7F6E5F7F4F8F4F9F4FAF4F00
:10201000B1E03ED0B4E03CD0670F781F891F9A1F13
:10202000A11D680F791F8A1F911DA11D6A0F711DC7
:10203000811D911DA11D20D009F468943F912AE0D3
:10204000269F11243019305D3193DEF6CF010895BB
:10205000462F4770405D4193B3E00FD0C9F7F6CFEC
:10206000462F4F70405D4A3318F0495D31FD4052B4
:10207000419302D0A9F7EACFB4E0A695979587954A
:1020800077956795BA95C9F7009761057105089529
:102090009B01AC010A2E06945795479537952795D5
:1020A000BA95C9F7620F731F841F951FA01D08956D
:0A20B000992788270895F894FFCFC0
:1020BA0000000D03FC02200319031E031703060385
:1020CA00F5022503FF20FF00FF026330001A015AC0
:1020DA0001C50169646C65006E6F6E616D65006DA6
:1020EA0061696E002B043802021E040507090D00FF
:1020FA000F1000000000000000150401000100009C
:0A210A0000000000050007191D1F6A
:00000001FF
