:1000000044C000005FC000005DC000005BC0000095
:1000100059C0000057C0000055C0000053C0000088
:1000200051C000004FC000004DC00000D1C300000F
:1000300049C0000047C0000045C0000043C00000A8
:1000400041C000003FC000000BC4000048C40000D5
:1000500039C0000037C0000035C0000033C00000C8
:1000600031C000002FC0000045464765666700208C
:100070002B2D2E3031323334353637383968006322
:1000800064696E6F70737578580011241FBECFEFCE
:10009000D8E0DEBFCDBF11E0A0E0B1E0E2ECFBE3D1
:1000A00002C005900D92A639B107D9F724E0A6E960
:1000B000B1E001C01D92A53CB207E1F70E94021415
:1000C0000C94DF1D9DCF49D387E191E047D3C7D280
:1000D00040D300C0A8C3809184009091850008950A
:1000E000909389008093880082E086BB80936F00A4
:1000F000089510926F00089590938900809388006E
:100100000895AF92BF92CF92DF92EF92FF920F933A
:100110001F93CF93DF93EC016B018A018C819D814A
:100120008417950710F40C811D816C857D85E8840A
:10013000F984E61AF70A0E151F0598F1E016F10684
:10014000D0F0A801C6010E94F11C8E819F819D877D
:100150008C878C819D81801B910B9D838C83C80132
:10016000DF91CF911F910F91FF90EF90DF90CF9093
:10017000BF90AF900895A701C6010E94F11C5801DD
:10018000AE18BF086E817F81A501C6018E0D9F1D2F
:100190000E94F11C4E815F814A0D5B1D5D874C877B
:1001A000D8CFA801C6010E94F11C8C859D85800FC7
:1001B000911F9D878C87CDCFAF92BF92CF92DF9258
:1001C000EF92FF920F931F93CF93DF93EC016B019C
:1001D0008A018C819D818417950710F40C811D8103
:1001E0008A859B85E884F984E81AF90A0E151F05AB
:1001F00098F1E016F106D0F0A801B6010E94F11CBA
:100200008E819F819B878A878C819D81801B910B2A
:100210009D838C83C801DF91CF911F910F91FF9037
:10022000EF90DF90CF90BF90AF900895A701B601F7
:100230000E94F11C5801AE18BF08B6016E0D7F1D5B
:10024000A5018E819F810E94F11C4E815F814A0D24
:100250005B1D5B874A87D8CFA801B6010E94F11CBD
:100260008A859B85800F911F9B878A87CDCF0F93AF
:100270001F93FC0191838083938382831582148270
:10028000778366837587648773876287640F751FBA
:100290007187608737872687118B008B1F910F919D
:1002A0000895FC01A285B38584859585A817B907B3
:1002B000E9F084819581019695838483CD0101962F
:1002C000938782876C932285338580859185281753
:1002D000390720F08681978193878287CF0170E06C
:1002E00060E00E94780B90E080E008958481958121
:1002F000892BF9F28FEF9FEF0895CF92DF92EF9263
:10030000FF921F93CF93DF93EC016A017B01F89476
:1003100007C0B701A601CE010E94590B97FD2AC064
:100320008C819D81892BA9F38C819D8101979D836F
:100330008C83EC85FD85CF0101969D878C8710818C
:10034000288539858217930720F08E819F819D87AC
:100350008C87EE85FF85309711F0CE010995789452
:10036000812F90E0DF91CF911F91FF90EF90DF9070
:10037000CF9008957894DF91CF911F91FF90EF90E7
:10038000DF90CF9008954F925F926F927F928F92FD
:100390009F92AF92BF92CF92DF92EF92FF920F9314
:1003A0001F93CF93DF936C017B014A012801390130
:1003B000FC01A684B784F89441155105B9F08A016F
:1003C000A801B701C6019DDEEC01892B11F1A11432
:1003D000B10419F0C601F501099578940C1B1D0BA9
:1003E000EC0EFD1EF8940115110551F7C401789427
:1003F000DF91CF911F910F91FF90EF90DF90CF9001
:10040000BF90AF909F908F907F906F905F904F9034
:100410000895B301A201C6010E94590B892B81F2F4
:10042000C401801B910BE3CF0F931F93FC019183B9
:100430008083938382835583448377836683758720
:10044000648773876287640F751F7187608737873A
:100450002687118B008B1F910F910895CF92DF9209
:10046000EF92FF921F93CF93DF93EC01162F690158
:100470007A01F89407C0B701A601CE010E94590B7A
:1004800097FD2CC08C819D81892BA9F38C819D8146
:1004900001979D838C83EA85FB85CF0101969B871D
:1004A0008A8710832A853B8588859985281739078F
:1004B00020F08E819F819B878A87EE85FF8530970C
:1004C00011F0CE010995789490E080E0DF91CF9112
:1004D0001F91FF90EF90DF90CF9008957894DF9177
:1004E000CF911F91FF90EF90DF90CF900895CF9321
:1004F000FC01A485B585828593858A179B07E9F061
:1005000084819581019695838483CD010196958799
:100510008487CC91208531858217930748F4CF01D9
:1005200070E060E00E94780B8C2F90E0CF910895EE
:100530008681978195878487F2CF84819581892BE5
:10054000F9F28FEF9FEFCF9108954F925F926F92E4
:100550007F928F929F92AF92BF92CF92DF92EF9253
:10056000FF920F931F93CF93DF936C017B014A019E
:1005700028013901FC01A684B784F894411551057E
:10058000B9F08A01A801B701C60116DEEC01892B7A
:1005900011F1A114B10419F0C601F501099578947F
:1005A0000C1B1D0BEC0EFD1EF8940115110551F7E7
:1005B000C4017894DF91CF911F910F91FF90EF903C
:1005C000DF90CF90BF90AF909F908F907F906F9073
:1005D0005F904F900895B301A201C6010E94590B8C
:1005E000892B81F2C401801B910BE3CF0F931F93E2
:1005F0000596C9DE1F910F9108950F931F930FEF7A
:100600001FEF98010596BFDE1F910F9108950F937C
:100610001F9347969ADF1F910F9108950F931F9391
:100620000FEF1FEF9801479690DF1F910F910895EC
:10063000059663CE4FEF5FEFBA0105965ECE479603
:100640000DCF2FEF3FEFA901479608CF613071051D
:1006500019F08CEE9FEF089590E080E0089576C148
:10066000EF92FF920F931F93CF93DF93EC019B01C7
:100670007A01FC0183E091E081939193FB83EA830B
:1006800081E08C83BE01675D7F4F8E0140E150E0C9
:10069000CE010596ECDDBE01675C7F4F970140E11E
:1006A00050E0CE014796C0DEDF91CF911F910F91B0
:1006B000FF90EF900895CF93DF93EC01F8944DD124
:1006C00082E08C83789490E080E0DF91CF91089570
:1006D0001F93CF93DF93EC01162F89859A85892B81
:1006E00051F0612FCE010596DCDD97FD0FC0DF9143
:1006F000CF911F91089564E0CE0102960E94810D72
:10070000612FCE010596CDDD97FFF1CF60E0CE01E0
:100710000296DF91CF911F910C94810D0F931F933F
:10072000CF93DF938C014796E2DEEC0197FD06C084
:10073000CE01DF91CF911F910F91089568E0C8011C
:1007400002960E94810DCE01DF91CF911F910F91F2
:100750000895109269001DBA08950895FC018081E2
:1007600085B9818184B9828188B9838187B984817F
:100770008BB985818AB90895FC014230C9F098F09F
:100780004530B1F0463021F48181682B61830895B2
:100790004330E9F79181862F809589238183828177
:1007A000682B62830895442319F0413099F308952A
:1007B0008181609586238183828168236283089585
:1007C000282F862F622F792F0895CB010895089541
:1007D0001F920F920FB60F9211242F933F934F93B6
:1007E0005F936F937F938F939F93AF93BF93EF9399
:1007F000FF9381E08093C20403D11092C20468D5B4
:10080000811176D5FF91EF91BF91AF919F918F911B
:100810007F916F915F914F913F912F910F900FBEFC
:100820000F901F90189510928000E1E8F0E088E0AA
:10083000808310928200109289001092880010929A
:1008400085001092840082E086BB10926F0085E0E4
:1008500080830895E1ECF0E08081806280830895D8
:100860001F920F920FB60F9211242F933F934F9325
:100870005F936F937F938F939F93AF93BF93EF9308
:10088000FF9381E08093C2048091C000982F9C71F7
:1008900049F060E282FF60E084FD1FC08FE294E0D7
:1008A0000E94810D6091C6008DE294E011DF1092EC
:1008B000C2040ED581111CD5FF91EF91BF91AF916C
:1008C0009F918F917F916F915F914F913F912F9168
:1008D0000F900FBE0F901F9018956064DFCF1F928E
:1008E0000F920FB60F9211242F933F934F935F9364
:1008F0006F937F938F939F93AF93BF93EF93FF93E8
:1009000081E08093C2048DE294E008DF97FD18C077
:100910008093C6001092C204DBD48111E9D4FF9108
:10092000EF91BF91AF919F918F917F916F915F9167
:100930004F913F912F910F900FBE0F901F901895E0
:100940008091C1008F7D8093C100E4CF4AE254E0E2
:1009500070E060E08DE294E083CE6115710521F0D6
:100960008D52944089F008958D529440E1F783E3CD
:100970008093C4001092C50082E08093C00088E993
:100980008093C10086E01CC0FB0180818093C4007D
:1009900081818F708093C50082E08093C00088E9D8
:1009A0008093C1008281813091F078F0823059F0DB
:1009B000843041F78091C10084608093C10086E05B
:1009C0008093C200089584E0FBCF80E0F9CF82E0FD
:1009D000F7CFCF93DF93C6E7D4E081E088831A8214
:1009E00019820E94A60D0E94D60D60E271E089E78F
:1009F00094E0CDD482E088837894DF91CF910895FC
:100A000030C20F931F93E9E7F4E0078D10A121A1F5
:100A100032A1DC01CB01802B912BA22BB32B878F32
:100A200090A3A1A3B2A31F910F9108958F929F92BB
:100A3000AF92BF92CF92DF92EF92FF920F931F93EC
:100A4000CF93DF93FC01EB017093890460938804DA
:100A5000248335834683578380E894E0938382839D
:100A6000A0918004B0918104B183A0831396FC937C
:100A7000EE931297F0938104E093800469017A0168
:100A800081E0C8168FEFD806E104F10420F0C12CF4
:100A9000D12C7601DA9482E0C816D104E104F10485
:100AA00028F492E0C92ED12CE12CF12CCE018C0D32
:100AB0009D1D16DB82E0882E912CA12CB12C0EC03E
:100AC000750164018FEFC81AD80AE80AF80ACE0146
:100AD0008C0D9D1D11DBE80146015701FCDA8C01EC
:100AE0008C1B9D0BB0E0A0E08C159D05AE05BF05ED
:100AF00038F783E088169104A104B10468F4DF910B
:100B0000CF911F910F91FF90EF90DF90CF90BF900A
:100B1000AF909F908F90089561E070E080E090E04A
:100B2000DF91CF911F910F91FF90EF90DF90CF90C9
:100B3000BF90AF909F908F9064CF8F929F92AF9213
:100B4000BF92CF92DF92EF92FF92CF93DF93EC01AF
:100B50006A017B0121E0C2162FEFD206E104F10405
:100B600020F0C12CD12C7601DA9482E0C816D10491
:100B7000E104F10428F492E0C92ED12CE12CF12CEF
:100B800082E0882E912CA12CB12C0AC07501640141
:100B90002FEFC21AD20AE20AF20AEC01460157010B
:100BA000CE018C0D9D1DA8DA96DAAC014C1B5D0BB5
:100BB00070E060E04C155D056E057F0538F783E059
:100BC00088169104A104B10458F4DF91CF91FF90ED
:100BD000EF90DF90CF90BF90AF909F908F9008954F
:100BE00061E070E080E090E0DF91CF91FF90EF90C6
:100BF000DF90CF90BF90AF909F908F9002CF8F9259
:100C00009F92AF92BF92CF92DF92EF92FF92CF93DB
:100C1000DF93EC014A015B015EDAE0918004F09120
:100C2000810424E0E038F20709F473C020918804BD
:100C300030918904AC01421B530B70E060E07501F8
:100C40006401C40ED51EE61EF71EC416D506E606C0
:100C5000F70608F44FC04481558166817781C41638
:100C6000D506E606F70608F448C04C155D056E0586
:100C70007F0580F4C41AD50AE60AF70A0190F081CC
:100C8000E02D44815581668177814C155D056E05A7
:100C90007F0580F3CC82DD82EE82FF82F983E883D8
:100CA000A281B381BB83AA83CD93DC93D383C28318
:100CB00084819581A681B7818C199D09AE09BF09F0
:100CC00084839583A683B7838FEF9FEFDC018093A6
:100CD000840490938504A0938604B0938704DF91E5
:100CE000CF91FF90EF90DF90CF90BF90AF909F900B
:100CF0008F90089575016401AECFB501A4011DDF89
:100D0000E0918004F091810444815581668177816E
:100D1000ACCFA5019401BC01CE01DF91CF91FF9032
:100D2000EF90DF90CF90BF90AF909F908F907ECE4E
:100D30000F931F93FC011387028731872087148646
:100D40001586168617861F910F9159CF0F931F9303
:100D5000CF93DF93FC01A081B181809180049091B9
:100D60008104E817F90781F1C281D381B983A8838F
:100D7000A081B1811396DC93CE93129714964D9176
:100D80005D916D917C911797048115812681378142
:100D9000400F511F621F731F14964D935D936D9307
:100DA0007C931797118210828FEF9FEFDC01809365
:100DB000840490938504A0938604B0938704DF9104
:100DC000CF911F910F910895B0938104A093800457
:100DD00080E894E013969C938E9312971182108270
:100DE000A0918004B0918104A817B907A9F11496C5
:100DF0004D915D916D917C911797048115812681AC
:100E00003781400F511F621F731F14964D935D93DE
:100E10006D937C9317975FD9209188043091890452
:100E20008C01021B130B30E020E0E0918004F09174
:100E3000810444815581668177810417150726074F
:100E4000370708F0BCCF401B510B620B730BDF91CF
:100E5000CF911F910F9171CEDF91CF911F910F9183
:100E600048C94F925F926F927F928F929F92AF92FA
:100E7000BF92CF92DF92EF92FF920F931F93CF9387
:100E8000DF93CC24CA94DC2C76010FC06A857B8565
:100E9000E885F985CE0109958C859D85AE85BF8550
:100EA000892B8A2B8B2B09F05AC0C0918004D091DA
:100EB000810411D900918804109189044C01801A91
:100EC000910AB12CA12C4C815D816E817F818416A9
:100ED0009506A606B706F0F0040F151F10938904B7
:100EE00000938804EA81FB818881998191838083C2
:100EF000A881B9811396FC93EE93129719821882F8
:100F000080918004909181048058944009F0BECF74
:100F1000F0D8BCCF20918004309181042058344017
:100F200009F478C09093890480938804481959097A
:100F30006A097B094C835D836E837F83DF91CF9148
:100F40001F910F91FF90EF90DF90CF90BF90AF90E7
:100F50009F908F907F906F905F904F90EECDBBD819
:100F60005C012C01401A510A712C612C8C859D85E5
:100F7000AE85BF8584159505A605B70508F45BC049
:100F80000091800410918104E4E000381E0709F408
:100F900062C0F801448155816681778148175907FD
:100FA0006A077B0788F4841B950BA60BB70BF80127
:100FB00000811181F801448155816681778148174C
:100FC00059076A077B0778F38C839D83AE83BF83C1
:100FD00019830883F801228133813B832A83F90135
:100FE000D183C083F801D383C28344815581668154
:100FF0007781481B590B6A0B7B0B448355836683AF
:101000007783C0928404D0928504E0928604F092A3
:1010100087044BCFDF91CF911F910F91FF90EF90FD
:10102000DF90CF90BF90AF909F908F907F906F9008
:101030005F904F90089562E070E080E090E0E1DC26
:10104000009180041091810484E000381807E1F0D9
:10105000D301C2019ECF9C01AD0124193509460977
:101060005709B501CE01DF91CF911F910F91FF90EC
:10107000EF90DF90CF90BF90AF909F908F907F9038
:101080006F905F904F90D2CC20E030E0A901E9CF83
:10109000CF93DF93DB011F968C911F978430F1F182
:1010A00080F5882359F1833031F45296ED91FC910B
:1010B0005397118210828FEF9FEF53969C938E93DC
:1010C00052971F961C921F971B96ED91FC911C97AF
:1010D00014969C9114970190F081E02D84818917DA
:1010E000D0F71196FC93EE93C281D3811396DC93D3
:1010F000CE931297B983A883B383A283DF91CF9154
:101100000895873059F08C3049F08530A1F6529619
:10111000ED91FC91539784818F5F84831296ED91BA
:10112000FC9113978D919C91119791838083CD9120
:10113000DC911197FB83EA83BECFCF93DF93DC0171
:101140001F961C921F971B96ED91FC911C9714966D
:101150008C9114970190F081E02D94819817D0F72D
:101160001196FC93EE93C281D3811396DC93CE93B8
:101170001297B983A883B383A283CD01DF91CF9166
:101180000895CF93DF93E9E7F4E065817681DB0191
:101190001F968C9380819181EC01A881B981B183E4
:1011A000A0831396FC93EE93129721E02F879683EA
:1011B000858309D5DF91CF910895DF92EF92FF9259
:1011C0000F931F93CF93DF93CDB7DEB760970FB622
:1011D000F894DEBF0FBECDBFD82EE0907E04F09015
:1011E0007F044F3F8FEF58076807780701F18701A9
:1011F00028E438E0CE0101969BDD8D2DC2DF898188
:101200009A81892B19F0CE010196A0DDF701828920
:10121000938960960FB6F894DEBF0FBECDBFDF9105
:10122000CF911F910F91FF90EF90DF9008958D2D3A
:10123000A8DFECCFCF93DF93DC01C0917E04D09187
:101240007F0453967C936E93529714962C91149727
:101250009C819217E8F01F961C921F971B96ED91A8
:10126000FC911C970190F081E02D84818217D0F7CA
:101270001196FC93EE93C281D3811396DC93CE93A7
:101280001297B983A883B383A283DF91CF91089586
:101290001F86EB85FC850190F081E02D84819817F5
:1012A000D0F3CD01F983E883A281B381BB83AA8304
:1012B000CD93DC93D383C28321E0FC0127879093F5
:1012C0007F0480937E04BE017ED4DF91CF91089588
:1012D000A0917904B0917A04E0917E04F0917F04AA
:1012E00081E014962C919481921708F080E0089583
:1012F000CF93DF93A0917E04B0917F044091790455
:1013000050917A04EA01E881F981F0937A04E0933C
:10131000790489E794E09383828381E08F875093F7
:101320007F0440937E041F961C921F971B96ED919D
:10133000FC911C9714962C9114970190F081E02D4C
:1013400094812917D0F31196FC93EE9382819381B7
:1013500013969C938E931297EC01B983A883B38361
:10136000A283BD01CA012FD4DF91CF910895A0912E
:101370007904B0917A04E0917E04F0917F04149690
:101380009C918481891708F00895B2CFFFCFCF9246
:10139000DF92FF920F931F93CF93DF93CDB7DEB70A
:1013A0002B970FB6F894DEBF0FBECDBF8C016B013B
:1013B0009093780480937704FC01168E158E74A3A5
:1013C00063A3FF24F394F092C204918380839383F8
:1013D000828314824996928F818F948F838F178E88
:1013E00010A211A212A242979087878392878187C9
:1013F0008FEF9FEFDC0183879487A587B687108ADC
:1014000017860E946B009C01F801218B328B138A96
:10141000148A158A168A178A108EED5BFF4F118287
:101420001082B8016B5D7F4F20E842E351E0C801B4
:101430002AD0F80196838583FC01F78686E291E045
:101440009A838983F601828193819C838B83848133
:1014500095819E838D83FF8286EC99E099878887AA
:101460001B861A86CE0101969ED02B960FB6F89455
:10147000DEBF0FBECDBFDF91CF911F910F91FF90C7
:10148000DF90CF900895CF93DF93FB01248332E068
:101490003787108A94878387258F148E138E128E38
:1014A00021E0218B568745879B01295F3F4FAC0187
:1014B000475E5F4F50874783EC01AB8DBC8DB28791
:1014C000A1872D933C933C8F2B8FCB014496958B1A
:1014D000848B0296978B868B918F808FCB01DF91C7
:1014E000CF910895CF93DF93DC0114962D913C9119
:1014F0001597F9017E97E901E397D683C58317967F
:101500009C91179718968C9118979A8B898B19969E
:101510009C9119971A968C911A97988B8F8782E1D4
:101520009EE09B8B8C8B16968C9116974D915C91BF
:10153000848392E09787108A69E774E074876387F1
:10154000858F148E138E128E81E0818B568745878E
:10155000D901579782E994E011969C938E93EB0101
:101560008B8D9C8D13969C938E931297EC01B9836F
:10157000A883EB01BC8FAB8F1D960B2E11960C929E
:101580001197AC9312960B2E11960C921197AC9367
:101590000A2E1B2E13961C920E9211241297CF0125
:1015A000DF91CF9108959EDFC8CD0F931F93CF9306
:1015B000DF93F8946E517109EC01C60FD71FFE013D
:1015C0007597FE83ED83228B318B008B178782E129
:1015D0009EE0938B848B4C8382E08F87188AE9E7A7
:1015E000F4E0FC87EB874D8F1C8E1B8E1A8E81E0FA
:1015F000898B8BE291E09E878D87CE01079622E949
:1016000034E038872F83A38DB48DBA87A9878D9353
:101610009C93948F838F0D969D8B8C8B02969F8BC2
:101620008E8B998F888F70E060E0CE0103DE789416
:10163000CE01DF91CF911F910F9108950F931F93CA
:10164000CF93DF93C0917E04D0917F049B8B8A8BD4
:101650008E010C5E1F4F8C899D890817190759F060
:10166000FC01208131813D8B2C8B67DD8C899D892C
:1016700080179107A9F7898981110CC0E985FA853E
:101680008F81988591838083AF81B8851396FC9371
:10169000EE9312978FE0DF91CF911F910F9171CD53
:1016A000F894CCCFAB01BC01F89488E086DD789447
:1016B0000895CF93DF93E0917E04F0917F0441156C
:1016C00051056105710579F091838083EC01AA8150
:1016D000BB81B383A283ED93FC93FB83EA8384E015
:1016E000DF91CF916ACD8FEF9FEFDF91CF9108957A
:1016F000CF93DF93FC0180819181E817F90771F0A6
:10170000EC01A881B981B183A0831396FC93EE9379
:1017100012977B8B6A8BDF91CF910FCDDF91CF91A9
:101720000895FC01918380839383828315821482C0
:1017300008950F931F93CF93DF93EC0100917E04E4
:1017400010917F04EC81FD81309709F47EC0D801AF
:1017500014968C919481981750F4848387858630F1
:1017600009F485C0873071F1882309F45BC09E01BC
:10177000FE0107C09481D80114968C91981708F443
:1017800062C00190F081E02DCE17DF0799F7F801D4
:1017900031832083D9011296ED91FC91D8011396E3
:1017A000FC93EE93129711830083F9011383028354
:1017B0005396DC93CE93529786E0DF91CF911F91A1
:1017C0000F91DFCC2281338180819181D9018D936A
:1017D0009C9380819181DC0113963C932E93129708
:1017E00022893389D90107C014969C91149784816A
:1017F000981708F478C00D90BC91A02D2A173B07CC
:1018000099F731832083D90112968D919C9193830E
:101810008283DC01ED93FC93D9011396FC93EE9344
:101820001297A5CF2281338180819181D9018D9337
:101830009C9380819181DC0113963C932E931297A7
:10184000CF017BDC94CF9F01A2CF1D830C83D801F5
:101850005B968D919C915C979F838E835C96DC93C5
:10186000CE935B97DF91CF911F910F9108952281C5
:10187000338180819181D9018D939C938081918165
:10188000DC0113963C932E93129722893389D90158
:1018900006C014969C9114978481981730F10D908E
:1018A000BC91A02D2A173B07A1F731832083D901D2
:1018B00012968D919C9193838283DC01ED93FC932E
:1018C000D9011396FC93EE9312970288F389E02DC9
:1018D0000480F581E02DD80114968C91948198179D
:1018E00008F43BCF44CF9D018CCF9D01DECFF8940F
:1018F00020DF78940895CF93DF93C0917E04D09138
:101900007F04F894DC011696ED91FC911797FC8FFB
:10191000EB8F2D913C912817390781F13D8D309740
:1019200079F0A081B181EA17FB0729F014962C9178
:10193000321708F4322F0680F781E02D309789F7AF
:10194000FC013C83A081B181CD91DC911197D183C1
:10195000C0839B838A83B583A4835B968D919C917E
:101960005C97978386835C96FC93EE935B97CD019F
:10197000E4DBFDDC7894DF91CF910895F9011582C5
:1019800014827894DF91CF910895CF93DF93EC0187
:1019900020917E0430917F04EE81FF81D9015C9615
:1019A000FC93EE935B97A881B981A817B90761F101
:1019B000D9015D969C91309779F0A081B181EA17A9
:1019C000FB0729F014968C91981708F4982F06803D
:1019D000F781E02D309789F7F9019483E881F98147
:1019E000A081B181B983A8831396DC93CE9312971B
:1019F000FD83EC83838D948D9F838E83D48FC38FDF
:101A0000CF01DF91CF9199CB15961C921E9214971E
:101A1000DF91CF910895FC0191838083938382832A
:101A20000895CF93DF93FC01F89480819181E817AA
:101A3000F90761F0EC01A881B981B183A083139605
:101A4000FC93EE93129770E060E0F4DB7894DF9102
:101A5000CF910895EF92FF920F931F93CF93DF934F
:101A60008C01C0917E04D0917F04EB8CFC8CC7016B
:101A70008CDF1B8B0A8BD801F80104C094818C8108
:101A8000981718F10190F081E02D0E171F07B1F79C
:101A9000B983A8831296ED91FC911397FB83EA8397
:101AA000D183C0831396DC93CE93129787E069DBD2
:101AB0000A88DB89C02DC7013CDECE01DF91CF91C2
:101AC0001F910F91FF90EF900895DF01E1CFF894FF
:101AD000C1DF78940895FC01828D682B628F878521
:101AE0008A3059F08B3009F0089582896823861373
:101AF000FBCF138A128ACF0120CB82896823C9F7D2
:101B00000895EF92FF921F93CF93DF937C01162FDE
:101B1000FC01C081D1818C179D0791F08D81812BB3
:101B20008D83112319F08E81812321F06C818A81AC
:101B30009B81D1DF0990D881C02DEC16FD0671F78D
:101B4000DF91CF911F91FF90EF900895EEEBF4E0BD
:101B500081E092E09183808381E892E093838283A5
:101B60000895F894E091C004F091C1049F01281BEE
:101B7000390BC901719561957109862397239C01E1
:101B8000241B350B4091BE045091BF042417350728
:101B900048F0E217F30730F03093C1042093C004FB
:101BA0007894089590E080E078940895E1E8F2E078
:101BB00081EB9DE0918380831382128215821482CF
:101BC00087E892E0AECD2F923F924F925F926F9254
:101BD0007F928F929F92AF92BF92CF92DF92EF92BD
:101BE000FF920F931F93CF93DF93FB010DB60582F6
:101BF0000EB60682FC0105800DBE06800EBEDF918A
:101C0000CF911F910F91FF90EF90DF90CF90BF90F9
:101C1000AF909F908F907F906F905F904F903F908C
:101C20002F9008957894C201F101099539CD089556
:101C300081E08093160308958FE193E072DD8BE1DC
:101C400093E0E9DE87E193E0E6DE8DE293E09093B6
:101C50002A038093290390932C0380932B031092E3
:101C60002803109227030895CF93DF93EC018FE1AF
:101C700093E03DDE80912703909128038038910501
:101C800050F087E193E023DF8091270390912803B0
:101C900080389105B0F7E0912903F0912A03C193B0
:101CA000D19324E0ED32F20798F02DE233E0309347
:101CB0002A032093290301969093280380932703F6
:101CC0008BE193E0AEDE8FE193E0DF91CF9113CE15
:101CD000F0932A03E0932903EECFCF93DF938FE1B4
:101CE00093E005DE8091270390912803009749F443
:101CF0008BE193E0ECDE809127039091280300971D
:101D0000B9F3E0912B03F0912C03C191D19124E020
:101D1000ED32F207A8F02DE233E030932C0320934C
:101D20002B030197909328038093270387E193E087
:101D300078DE8FE193E0DFDDCE01DF91CF91089572
:101D4000F0932C03E0932B03ECCFCF93DF93CDB72D
:101D5000DEB760970FB6F894DEBF0FBECDBF1A8214
:101D60001982EE24E394F12C3324339496E0292E47
:101D700023E8622E21E0722E3DE2A32E34E0B32E42
:101D80004DE5842E41E0942E59E6452E51E0552E26
:101D90001DC063E083E290E00E94E0030E94E7033D
:101DA000182F63E083E290E00E94E0030E94E503C5
:101DB000FC019281970101C0220F1A95EAF7922B3C
:101DC00092836BE176E080E090E06CDCE0910201D0
:101DD000E150EC30F0F6F0E0E051F14F0C94A11C32
:101DE0000711B21071100B10C90E0C12A71182123C
:101DF000C90E950F4D0FFC0EF89489819A81892B9D
:101E000021F0CE0101960E94A6068E010F5F1F4FA2
:101E100028E13EE040E15AE760E070E0C8010E943E
:101E20009806789480911603811129C062E083E2BC
:101E300090E00E94E0030E94E503FC01128162E051
:101E400083E290E00E94E0030E94E703082F62E033
:101E500083E290E00E94E0030E94E503970101C045
:101E6000220F0A95EAF71227FC01128361EA77E054
:101E700080E090E017DC809116038823B9F210927D
:101E800016033092020162E083E290E00E94E003D8
:101E90000E94E703182F62E085CFF89489819A8128
:101EA000892B21F0CE0101960E94A6068E010F5FBC
:101EB0001F4F28E13EE040E15AE760E070E0C801D2
:101EC0000E949806789480911603811129C062E0DF
:101ED00083E290E00E94E0030E94E503FC0112818E
:101EE00062E083E290E00E94E0030E94E703082F93
:101EF00062E083E290E00E94E0030E94E503970124
:101F000001C0220F0A95EAF71227FC01128361EA49
:101F100077E080E090E0C6DB809116038823B9F279
:101F20001092160320920201AECF62E083E290E0AD
:101F30000E94E0030E94E703182F62E083E290E032
:101F40000E94E0030E94E503FC019281970102C018
:101F5000220F331F1A95E2F7209530959223928332
:101F600063E083E290E00E94E0030E94E703182F01
:101F700063E083E290E00E94E0030E94E503FC013D
:101F80009281970101C0220F1A95EAF7922B928352
:101F9000F89489819A81892B21F0CE0101960E94C3
:101FA000A6068E010F5F1F4F28E13EE048E157EB88
:101FB00060E070E0C8010E94980678948091160352
:101FC000882369F04FC3049709F4DCC26BE176E023
:101FD00080E090E067DB80911603811143C3E091BC
:101FE0002B03F0912C03808191818330910559F767
:101FF00080910101882351F33092C404F8948981BF
:102000009A81892B21F0CE0101960E94A606789430
:1020100030921603DBCF64E089E290E00E94E00397
:102020000E94E703182F64E089E290E00E94E00339
:102030000E94E503FC019281970101C0220F1A95CD
:10204000EAF7922B9283F89489819A81892B21F067
:10205000CE0101960E94A6068E010F5F1F4F28E158
:102060003EE040E15AE760E070E0C8010E94980657
:10207000789480911603811109C06BE176E080E0CD
:1020800090E010DB809116038823B9F310921603B9
:102090002092020164E089E290E00E94E0030E9445
:1020A000E703182F64E089E290E00E94E0030E94B9
:1020B000E503FC019281970102C0220F331F1A959C
:1020C000E2F7209530959223928366E089E290E0D2
:1020D0000E94E0030E94E703182F66E089E290E087
:1020E00063CE64E089E290E00E94E0030E94E7038F
:1020F000182F64E089E290E00E94E0030E94E5036B
:10210000FC019281970101C0220F1A95EAF7922BE8
:102110009283F89489819A81892B21F0CE010196CE
:102120000E94A6068E010F5F1F4F28E13EE040E1AE
:102130005AE760E070E0C8010E94980678948091A8
:102140001603811109C06BE176E080E090E0AADA25
:10215000809116038823B9F3109216032AE0209386
:10216000020198CF809127039091280399279F938C
:102170008F939F928F92BF92AF920E948F19ADDD85
:102180006C01809127039091280399279F938F9347
:102190005F924F92BF92AF920E948F190FB6F89440
:1021A000DEBF0FBECDBF93E0C916D10409F48AC2C9
:1021B0008091C404E1E0CE16D10409F47FC2F4E0BA
:1021C000CF16D10409F089C28111FBCD3092C3042E
:1021D00084E08093020167E089E290E00E94E003DE
:1021E0000E94E703182F67E089E290E00E94E00375
:1021F0000E94E503FC019281970102C0220F331F68
:102200001A95E2F72095309592239283DACD66E015
:1022100089E290E00E94E0030E94E703182F66E045
:1022200089E290E00E94E0030E94E503FC019281B4
:10223000970102C0220F331F1A95E2F720953095BF
:102240009223928367E089E290E00E94E0030E947B
:10225000E703182F67E089E290E00E94E0030E9404
:10226000E503FC019281970101C0220F1A95EAF75C
:10227000922B928360E083E290E00E94E0030E9450
:10228000E703182F60E083E290E00E94E0030E94E1
:10229000E503FC019281970101C0220F1A95EAF72C
:1022A000922B928362E083E290E00E94E0030E941E
:1022B000E703182F62E083E290E00E94E0030E94AF
:1022C000E503FC019281970101C0220F1A95EAF7FC
:1022D000922B9283F89489819A81892B21F0CE01E7
:1022E00001960E94A6068E010F5F1F4F28E13EE077
:1022F00040E552E662E070E0C8010E9498067894DA
:1023000080911603882351F0A7C16BE176E080E04D
:1023100090E0C8D98091160381119EC1E0912B03F2
:10232000F0912C0380819181049779F780910001CD
:10233000882359F3F89489819A81892B21F0CE0161
:1023400001960E94A606789430921603DECF65E0CF
:1023500089E290E00E94E0030E94E703182F65E005
:1023600089E290E00E94E0030E94E503FC01928173
:10237000970101C0220F1A95EAF7922B9283F894E5
:1023800089819A81892B21F0CE0101960E94A606AF
:102390008E010F5F1F4F28E13EE040E15AE760E009
:1023A00070E0C8010E94980678948091160381110C
:1023B00009C06BE176E080E090E074D9809116036B
:1023C0008823B9F3109216038AE08093020165E036
:1023D00089E290E00E94E0030E94E703182F65E085
:1023E00089E290E00E94E0030E94E503FC019281F3
:1023F000970102C0220F331F1A95E2F720953095FE
:102400009223928360E083E290E00E94E0030E94C6
:10241000E703182F60E0C6CC60E083E290E00E9402
:10242000E0030E94E703182F60E083E290E00E943F
:10243000E0030E94E503FC019281970102C0220F94
:10244000331F1A95E2F7209530959223928361E02D
:1024500083E290E00E94E0030E94E703182F61E00E
:1024600083E290E00E94E0030E94E503FC01928178
:10247000970101C0220F1A95EAF7922B9283F894E4
:1024800089819A81892B21F0CE0101960E94A606AE
:102490008E010F5F1F4F28E13EE040E35EE661E002
:1024A00070E0C8010E9498067894809116038823F2
:1024B00069F097C0049709F473C06BE176E080E09F
:1024C00090E0F0D88091160381118BC0E0912B032E
:1024D000F0912C03808191818330910559F780918F
:1024E0000101882351F33092C404F89489819A81C0
:1024F000892B21F0CE0101960E94A6067894309295
:102500001603DBCF65E089E290E00E94E0030E94C1
:10251000E703182F65E089E290E00E94E0030E9443
:10252000E503FC019281970101C0220F1A95EAF799
:10253000922B9283F89489819A81892B21F0CE0184
:1025400001960E94A6068E010F5F1F4F28E13EE014
:1025500040E15AE760E070E0C8010E949806789474
:1025600080911603811109C06BE176E080E090E074
:1025700099D8809116038823B9F3109216033092EC
:10258000020125CF80910001882309F41FCD3092EC
:10259000C304F89489819A81892B09F034CD37CD11
:1025A00080910001882309F488CF8091C3048111B0
:1025B00084CF93DB3092C30480912703909128034A
:1025C00099279F938F9385E791E09F938F93BF9275
:1025D000AF92A5D60F900F900F900F900F900F9085
:1025E0006CCF809127039091280399279F938F9315
:1025F0007F926F92BF92AF9292D610921603809103
:10260000C3040F900F900F900F900F900F9007C082
:1026100064DB6C01049709F442C08091C30481110A
:10262000F7CF8091270390912803892B09F03FC0B1
:1026300088E022E0C216D10409F487E08093020109
:1026400061E083E290E00E94E0030E94E703182F1C
:1026500061E083E290E0CACD1092160382E080939D
:102660000201AFCB109216038091270390912803AB
:10267000892B81F591E0C916D104E1F0E4E0CE1692
:10268000D104C1F02CE02093020163E083E290E0EA
:102690000E94E0030E94E703182F63E0DACF109254
:1026A000C3048091270390912803892B09F215DB3D
:1026B0006C01BECFFBE0F0930201E7CF882309F461
:1026C00087CD7FCB81E09091C404911180E080930D
:1026D000C40477CB02DB6C01CDCFF2E0CF16D1047E
:1026E00009F06FCB81116DCB83E073CDCF92DF9278
:1026F000EF92CF936B01E82E413069F1423009F43B
:1027000047C0433009F461C0443041F081E0822782
:102710008923CF91EF90DF90CF9008950E94E50339
:10272000FC01C0818E2DB6010E94E7032C2F30E002
:1027300002C0359527958A95E2F7217090918F0216
:10274000922720938F0281E082278923CF91EF90F7
:10275000DF90CF9008950E94E503FC01C0818E2D8B
:10276000B6010E94E7032C2F30E002C03595279573
:102770008A95E2F72170909192029227209392021B
:1027800081E082278923CF91EF90DF90CF90089549
:102790000E94E503FC01C0818E2DB6010E94E70373
:1027A0002C2F30E002C0359527958A95E2F72170ED
:1027B0009091910292272093910281E082278923B0
:1027C000CF91EF90DF90CF9008950E94E503FC0138
:1027D000C0818E2DB6010E94E7032C2F30E002C08D
:1027E000359527958A95E2F721709091900292276E
:1027F0002093900281E082278923CF91EF90DF9090
:10280000CF900895CF93DF9300D01F92CDB7DEB75E
:102810008FEC90E09A83898383E08B830DDA0E94AA
:1028200063000E94E904BE016F5F7F4F8DE294E078
:102830000E945B0362E086E290E00E94E0030E9457
:10284000E703F82E62E086E290E00E94E0030E9437
:10285000E50301E010E0B80101C0660FFA94EAF761
:1028600043E00E94BC0364E086E290E00E94E00343
:102870000E94E703F82E64E086E290E00E94E00305
:102880000E94E503B80101C0660FFA94EAF743E03D
:102890000E94BC0363E086E290E00E94E0030E9495
:1028A000E703F82E63E086E290E00E94E0030E94D6
:1028B000E503B80101C0660FFA94EAF743E00E940D
:1028C000BC0365E086E290E00E94E0030E94E7031B
:1028D000F82E65E086E290E00E94E0030E94E503A6
:1028E000B80101C0660FFA94EAF743E00E94BC0306
:1028F00063E083E290E00E94E0030E94E703F82E89
:1029000063E083E290E00E94E0030E94E503B801E7
:1029100001C0660FFA94EAF746E00E94BC0363E048
:1029200083E290E00E94E0030E94E703F82E63E058
:1029300083E290E00E94E0030E94E503FC019281A3
:10294000980102C0220F331FFA94E2F720953095C8
:102950009223928362E083E290E00E94E0030E946F
:10296000E703F82E62E083E290E00E94E0030E9419
:10297000E503B80101C0660FFA94EAF746E00E9449
:10298000BC0362E083E290E00E94E0030E94E70360
:10299000F82E62E083E290E00E94E0030E94E503EB
:1029A000FC019281980102C0220F331FFA94E2F7D2
:1029B000209530959223928367E089E290E00E940F
:1029C000E0030E94E703F82E67E089E290E00E94AE
:1029D000E0030E94E503B80101C0660FFA94EAF72C
:1029E00046E00E94BC0367E089E290E00E94E003B9
:1029F0000E94E703F82E67E089E290E00E94E0037E
:102A00000E94E503FC019281980102C0220F331F4E
:102A1000FA94E2F7209530959223928364E089E25C
:102A200090E00E94E0030E94E703F82E64E089E250
:102A300090E00E94E0030E94E503B80101C0660F28
:102A4000FA94EAF746E00E94BC0364E089E290E071
:102A50000E94E0030E94E703F82E64E089E290E020
:102A60000E94E0030E94E503FC019281980102C0EC
:102A7000220F331FFA94E2F7209530959223928328
:102A800066E089E290E00E94E0030E94E703F82EEE
:102A900066E089E290E00E94E0030E94E503B8014D
:102AA00001C0660FFA94EAF746E00E94BC0366E0B4
:102AB00089E290E00E94E0030E94E703F82E66E0BE
:102AC00089E290E00E94E0030E94E503FC0192810C
:102AD000980102C0220F331FFA94E2F72095309537
:102AE0009223928361E083E290E00E94E0030E94DF
:102AF000E703F82E61E083E290E00E94E0030E9489
:102B0000E503B80101C0660FFA94EAF746E00E94B7
:102B1000BC0361E083E290E00E94E0030E94E703CF
:102B2000F82E61E083E290E00E94E0030E94E5035A
:102B3000FC019281980102C0220F331FFA94E2F740
:102B4000209530959223928365E089E290E00E947F
:102B5000E0030E94E703F82E65E089E290E00E941E
:102B6000E0030E94E503B80101C0660FFA94EAF79A
:102B700046E00E94BC0365E089E290E00E94E00329
:102B80000E94E703F82E65E089E290E00E94E003EE
:102B90000E94E503FC019281980102C0220F331FBD
:102BA000FA94E2F7209530959223928360E083E2D5
:102BB00090E00E94E0030E94E703F82E60E083E2C9
:102BC00090E00E94E0030E94E503B80101C0660F97
:102BD000FA94EAF746E00E94BC0360E083E290E0EA
:102BE0000E94E0030E94E703F82E60E083E290E099
:102BF0000E94E0030E94E503FC019281980102C05B
:102C0000220F331FFA94E2F720953095292322836F
:102C100010E000E025EA3EE040E863E870E083E988
:102C200092E00E94D50A09C084E090E01DD86EE0D1
:102C300073E080E090E00E94520B65E086E290E055
:102C40000E94E00341E052DD8111EECF63E086E2B5
:102C500090E00E94E00342E049DD882321F083E018
:102C600090E002D8E4CF64E086E290E00E94E003C6
:102C700043E03CDD882329F081E090E00E94340E9F
:102C8000D6CF62E086E290E00E94E00344E02EDDD1
:102C9000882369F282E090E00E94340EC8CF2F9220
:102CA0003F924F925F926F927F928F929F92AF92DC
:102CB000BF92CF92DF92EF92FF920F931F93CF9329
:102CC000DF93CDB7DEB764970FB6F894DEBF0FBEC3
:102CD000CDBF2C017B015C8B4B8B312C212C9E01B9
:102CE000245F3F4F3E872D87BE016F5F7F4F788BFC
:102CF0006F870CC0D201ED91FC910680F781E02D29
:102D0000C2010995BFEF2B1A3B0A780187010F5FBB
:102D10001F4FD7016C91662309F4AFC0653251F79C
:102D2000F7018181612C8D3231F487010E5F1F4FD5
:102D3000828166246394D12C8B3239F4D8011196A8
:102D40008C910F5F1F4FDD24D394E0E27E2E803301
:102D500031F4F80181810F5F1F4FF0E37F2E8A323B
:102D600009F0A5C0AB89BC891296EB89FC898080EB
:102D700091807801F2E0EF0EF11CF8018181A7014A
:102D80004F5F5F4F30E020E08E3209F439C1982F59
:102D90009F7D9C3409F4AFC09FEB980F41E09A31BE
:102DA00008F0EEC0ECEBE80FE53308F4B0C089831F
:102DB000E1E08E1A9108BC8BAB8BD12CC12C9E010B
:102DC0002F5F3F4F590197FC26C061105CC200275E
:102DD0001127081919098114910409F453C2D50166
:102DE0006C91D201ED91FC910680F781E02D6D325E
:102DF00009F44CC26B3239F449C2D201ED91FC9115
:102E00000680F781E02D672DC20109950F5F1F4FE6
:102E1000A1F7280C391C912C812CD7FC77CF860187
:102E2000F50161915F01D201ED91FC910680F7817E
:102E3000E02DC20109950150110990F7EFEF2E1A0C
:102E40003E0A2C0C3D1C8114910409F45FCF8401CF
:102E5000D201ED91FC910680F781E02D672DC20132
:102E6000099501501109A1F7280C391C87010F5F42
:102E70001F4FD7016C91611151CFC10164960FB6FC
:102E8000F894DEBF0FBECDBFDF91CF911F910F91A0
:102E9000FF90EF90DF90CF90BF90AF909F908F907A
:102EA0007F906F905F904F903F902F900895F80122
:102EB0003196882311F320ED280F912C812C2A3094
:102EC00038F00AC220ED280FF7012A3008F0BDC003
:102ED000C401880F991F880F991F880E991E880CAE
:102EE000991C820E911C7F012FEFE21AF20A808159
:102EF0008111E8CFC2CFF7018081882309F4BDCFCB
:102F0000ECEBE80FE53308F442C07A0150CFF0E073
:102F1000E557F84E16C5CD18D716D716D716D716BB
:102F2000CD18D716D716D716D716D716C718C11863
:102F3000D716D716D716D7167918D716D716C11899
:102F4000D716D716D716D716D716D716D716D71619
:102F5000D716D7163618CD18D716D716D716D716B0
:102F6000CD18D716D716D716D716D716C718C11823
:102F7000D716D7164A18D7167918D716D716C118E4
:102F800040E0ECEBE80FE53308F011CFC0CFF0E004
:102F9000E653F84ED6C4311985178517851785175E
:102FA0003119851785178517851785172919191957
:102FB00085178517851785173B19851785171919E3
:102FC0008517851785178517851785178517851721
:102FD00085178517351831198517851785178517B2
:102FE0003119851785178517851785172919191917
:102FF00085178517491885173B19851785171919DE
:10300000F7018081882309F438CF8A3209F1FA0167
:1030100030E020E08D0110C0C901880F991F880F92
:10302000991F280F391F220F331F260F311DD7017B
:103030008C91882309F421CF7F0160ED680F3196D0
:10304000AF016A3048F3D801A2CEAB89BC8997CED4
:103050002D913C9111978181A7014D5F5F4F129691
:10306000B7016E5F7F4F7B0192CE7A019D012E5F8B
:103070003F4F3C8B2B8B8C91898331E0831A9108D5
:10308000D12CC12CA0E27A2EBE016F5F7F4F5B0175
:103090009ACE7A01CD0102969C8B8B8BAD90BC9021
:1030A000A114B10409F430C1D5018C91A5012115F9
:1030B000310509F0FAC0882309F4FDC02EEF3FE77F
:1030C000F501319605C02150310908F4FAC0FB0121
:1030D000BF016F5F7F4F80818111F5CF6F01C41AEF
:1030E000D50A8C189D08B1E0CB1AD108E0E27E2EFB
:1030F0006ACE5AE0A52EB12CC12CD12C41119FC013
:10310000BD016E5F7F4F7C8B6B8B6D917C9190E0EE
:1031100080E00D851E8501C08F01A6019501F5D3C4
:10312000DB01D096BA8BA98BDA9724F0FB01F796D6
:10313000FA8BE98BF801A989A293CA01B90161153B
:1031400071058105910541F7CD84DE84CE1ADF0A31
:10315000FE013196C8019F012C0D3D1D4A2F03C071
:10316000DC014D91CD0141932E173F07C9F78C1813
:103170009D08F1E0CF1AD1089E012F5F3F4F590102
:1031800022CE10E1A12EB12CC12CD12CB7CF68E0FA
:10319000A62EB12CC12CD12CB1CF9A3108F460C02D
:1031A0009D012E5F3F4F3C8B2B8B6D917C91072EA9
:1031B000000C880B990B97FD95C0DD2009F49FC08A
:1031C000BBE2B983FE0132966F018601055F1F4F96
:1031D000580101C05F012AE030E040E050E095D3A3
:1031E000F501605D7F4FA62F6293B901CA01611599
:1031F00071058105910571F72A2FD601C5010E1BB6
:103200001F0B0C0D1D1D03C0FC012191CF012D933F
:10321000A017B107C9F76D016F857889C61AD70A5B
:103220008C189D0871E0C71AD108CE0101965C0187
:10323000CACD7A0140E1A42EB12CC12CD12C9D0124
:103240002C5F3F4F3C8B2B8B6D917D918D919C9191
:1032500060CF7A0138E0A32EB12CC12CD12CEFCF56
:10326000A701FD013496FC8BEB8B6D917D918D91C7
:103270009C917A01A0CF7A018AE0A82EB12CC12CB2
:10328000D12CDDCF4801D7FECACDDDCDB0E37B1216
:10329000BACD2FEF221A320A3FEFA31AB30AC201A6
:1032A000099561E0C61AD108A8CD882321F02150E4
:1032B000310937FF05CFCC24CA94DC2C20E2722ED2
:1032C00082CD6F01C41AD50A8C189D0891E0C91AE5
:1032D000D10870E2772E77CDAB89BC897F01912C24
:1032E000812C4DCD3DE23983909580957095619507
:1032F0007F4F8F4F9F4FDE0112966D0166CF9E016B
:103300002F5F3F4F690161CF4FE851E05A0121150E
:10331000310569F6FFE8AF2EF1E0BF2ECFCECF9397
:10332000DF93CDB7DEB7AE01475F5F4F6F81788522
:103330008D819E81B4DCDF91CF910895ABE0B0E048
:10334000E3EAF9E108C36C017B013A01FC01178251
:103350001682838181FFFFC0CE0101964C01F601E8
:10336000B380F701B3FC0591B3FE01917F01002307
:1033700041F1053239F4B3FC0591B3FE01917F01AF
:10338000053239F5B601802F90E070D35301350135
:10339000E6CF1068F701B3FC0591B3FE01917F0100
:1033A00017FD0DC0002369F0602F70E08FE690E0FC
:1033B0000DD3892B79F7033251F00C3651F30111FB
:1033C0000AC0F601868197812B96EEE0E0C210E1FB
:1033D000E1CF10E0E5CF602F70E088E690E0F6D214
:1033E000892B49F05301F4E0AF0EB11CB6018FE315
:1033F00090E03CD3CCCF033609F452C0033709F434
:1034000059C0033509F455C0043619F0093609F0DE
:1034100070C0530117FF62C0F4E0AF0EB11CF3019E
:1034200060817181828193811F7E97FF08C0909592
:103430008095709561957F4F8F4F9F4F10642AE064
:1034400030E0A4015BD3082F081916FF04C0B601B1
:103450008DE290E00BD314FF13C0FE01E00FF11DCD
:103460008081803369F0B60180E390E0FFD212FFE3
:1034700007C01072812F90E0B601885A9F4FF6D294
:10348000015010E00F5F1F4F080D191DF8018291C8
:103490008F01B60190E0EAD208151905B9F777CF88
:1034A000530182E0A80EB11CB601F3018081918125
:1034B000A0CF11605301F2E0AF0EB11CF3016080A8
:1034C0007180F30110FD859110FF81913F018823E8
:1034D00009F45DCFB60190E0C9D2F3CFF2E0AF0EB0
:1034E000B11CF30160817181072E000C880B990BD0
:1034F0009BCF003709F140F4083501F10F3609F090
:1035000060CF28E030E00CC0053739F0083709F00B
:1035100058CF146220E130E003C01F7E2AE030E083
:10352000530117FF0FC0F4E0AF0EB11CF30160812F
:1035300071818281938185CF1061EBCF146020E18E
:1035400032E0EECFF2E0AF0EB11CF3016081718189
:1035500090E080E076CF8FEF9FEF36CF20FD09C05F
:10356000FC0123FD05C022FF02C0738362835183E7
:103570004083089544FD17C046FD1DC0DB01FC01DA
:10358000AA0FBB1FEE1FFF1F1094D1F76A0F7B1FFE
:103590008E1F9F1F660F771F881F991F620F711D57
:1035A000811D911D089533E0660F771F881F991FB5
:1035B0003150D1F7F3CF34E0F7CF0F931F93CF9370
:1035C000DF938C01C80116D2EC0197FD06C0F6D13D
:1035D000892BC1F7B801CE0179D2CE01DF91CF910D
:1035E0001F910F9108958F929F92AF92BF92EF9289
:1035F000FF920F931F93CF93DF938C01D62F7A0105
:10360000B22EF8D19C0133272B32310529F02D320F
:103610003105A1F46894B7F8D15061F480E0DF91EE
:10362000CF911F910F91FF90EF90BF90AF909F901F
:103630008F900895C801DED197FDF0CFCB2DCD7FBF
:103640002B2D2073E9F48033D9F4AA24AA94AD0E6B
:1036500079F0C801CFD197FD0BC0282F2F7D2835D9
:1036600059F4C264D25021F0C801C4D197FF08C0F8
:10367000812C912C54011AC0B6FE29C0C260DA2DEB
:10368000812C912C540120ED280F283018F1C4FD15
:1036900009C02A30F8F0C6FF05C02F7D3FEE320F7B
:1036A0003630B8F0B80112D2C1FFB8CFC7FF08C09A
:1036B000B094A09490948094811C911CA11CB11C86
:1036C0002C2FB501A401C70149DF81E0A8CFC26159
:1036D000D6CF27504C2FC501B4014CDF4B015C0104
:1036E000C260D15019F3C80185D197FFCCCFDCCF90
:1036F000B0E0A0E0EDE7FBE12DC16C01EB015A0168
:10370000FC0117821682512CF601F380FE01F3FCB6
:103710008591F3FE8191182FEF018823C9F090E085
:103720004DD1892B19F0C60148DFEECF153241F497
:10373000FE01F3FC1591F3FE1191EF01153259F4DE
:10374000C60158D197FD98C01817F1F2B601BED145
:10375000852D90E095C000E01A3231F4F3FC15910C
:10376000F3FE1191EF0101E0E12C20ED210F2A3051
:1037700038F101FF34C0EE2059F3183699F11C36A8
:1037800009F43AC0112321F3612F70E08FE790E034
:103790001DD1892BE9F2912C812C00FD06C0F50189
:1037A00080809180C50102965C011E3669F5F601A4
:1037B0004681578170E060E0202FC401CFDEA4CFA6
:1037C00002606E2D70E090E080E040E2D3DEE62EF5
:1037D000FE01F3FC1591F3FE1191EF01C6CFEE242B
:1037E000EA94CBCFFE01F3FC1591F3FE1191EF01AA
:1037F000183609F0C7CF08600460FE01F3FC15918C
:10380000F3FE1191EF01BECF1336B9F401FD02C0F2
:10381000EE24E394C601EED097FD2EC081149104EE
:1038200029F0F4018083C40101964C01EA94E1106F
:10383000F1CF00FD69CF539467CFC601BEDE97FD7F
:103840001BC01F3609F43DC030F4143641F0193660
:1038500039F0006405C0133711F11537D1F7006254
:10386000202FA4016E2DC601BEDE8111E2CFF6012C
:103870008381807309F46CCF8FEF9FEF511068CF75
:10388000CDB7DEB7EFE082C08114910429F0F401D6
:103890006082C40101964C01EA94EE2059F0C60101
:1038A000A9D03C0197FD06C089D0892B69F3B601E8
:1038B000C3010CD18114910409F4BBCFF40110822F
:1038C000B8CF0061CDCFA1E21A2EAA1BBB1BFD0110
:1038D0000DC0AA1FBB1FEE1FFF1FA217B307E407EF
:1038E000F50720F0A21BB30BE40BF50B661F771F47
:1038F000881F991F1A9469F7609570958095909527
:103900009B01AC01BD01CF010895052E97FB16F474
:1039100000940FD057FD05D0D6DF07FC02D046F447
:1039200008C050954095309521953F4F4F4F5F4FC0
:10393000089590958095709561957F4F8F4F9F4F1B
:103940000895EE0FFF1F0590F491E02D09942F923A
:103950003F924F925F926F927F928F929F92AF921F
:10396000BF92CF92DF92EF92FF920F931F93CF936C
:10397000DF93CDB7DEB7CA1BDB0B0FB6F894DEBF03
:103980000FBECDBF09942A88398848885F846E8429
:103990007D848C849B84AA84B984C884DF80EE8073
:1039A000FD800C811B81AA81B981CE0FD11D0FB67C
:1039B000F894DEBF0FBECDBFED0108959111FCC09C
:1039C000803219F089508550D0F70895FC01059098
:1039D000061621F00020D9F7C00108953197CF01D4
:1039E0000895FB01DC0102C001900D92415050404E
:1039F000D8F70895CF93DF93EC012B8120FF1AC0F5
:103A000026FF0CC02F7B2B838E819F8101969F8385
:103A10008E838A8190E0DF91CF91089522FF18C0B4
:103A2000E881F9818081082E000C990B009729F418
:103A300020622B838FEF9FEFEECF3196F983E883DF
:103A40002E813F812F5F3F4F3F832E839927E3CF06
:103A5000EA85FB85099597FFF3CF2B81019621F02D
:103A600080E2822B8B83E6CF80E1FBCF0F931F9305
:103A7000CF93DF93182F092FEB018B8181FD09C0B4
:103A80001FEF0FEF812F902FDF91CF911F910F919B
:103A9000089582FF14C02E813F818C819D8128175B
:103AA00039073CF4E881F981CF0101969983888335
:103AB00010838E819F8101969F838E83E3CFE8855B
:103AC000F985812F0995892BA1F3DACFFB01238199
:103AD00020FF11C026FD0FC08F3F980771F0828331
:103AE0002F7D20642383268137812150310937833C
:103AF0002683992708958FEF9FEF0895FA01AA274B
:103B0000283051F1203181F1E8946F936E7F6E5F20
:103B10007F4F8F4F9F4FAF4FB1E03ED0B4E03CD0CE
:103B2000670F781F891F9A1FA11D680F791F8A1FB1
:103B3000911DA11D6A0F711D811D911DA11D20D018
:103B400009F468943F912AE0269F11243019305DD2
:103B50003193DEF6CF010895462F4770405D4193C3
:103B6000B3E00FD0C9F7F6CF462F4F70405D4A3310
:103B700018F0495D31FD4052419302D0A9F7EACFD8
:103B8000B4E0A6959795879577956795BA95C9F707
:103B900000976105710508959B01AC010A2E0694FA
:103BA0005795479537952795BA95C9F7620F731FB3
:103BB000841F951FA01D0895992788270895F894BC
:023BC000FFCF35
:103BC20001010100000E03FD0221031A031F031865
:103BD200030703F6022603FF20FF00FF0263300003
:103BE2001D019601010269646C65006E6F6E616D64
:103BF20065006D61696E002B043802021E04050720
:103C0200090D000F10000000000000001504010063
:103C120001000000000000050007191D1F51534953
:103C22005A45313A2025640A005153495A45323ADD
:103C32002025640A004348454755454920415155CE
:103C4200490A005153495A45333A2025640A00284B
:063C52006E756C6C290088
:00000001FF
