:1000000044C000005FC000005DC000005BC0000095
:1000100059C0000057C0000055C0000053C0000088
:1000200051C000004FC000004DC00000C4C300001C
:1000300049C0000047C0000045C0000043C00000A8
:1000400041C000003FC00000FEC300003BC40000F0
:1000500039C0000037C0000035C0000033C00000C8
:1000600031C000002FC0000045464765666700208C
:100070002B2D2E3031323334353637383968006322
:1000800064696E6F70737578580011241FBECFEFCE
:10009000D8E0DEBFCDBF11E0A0E0B1E0E4E3FBE2D9
:1000A00002C005900D92AA35B107D9F724E0AAE560
:1000B000B1E001C01D92A338B207E1F70E94360FEC
:1000C0000C9498159DCF3CD384E191E03AD3C7D2EC
:1000D00033D300C09BC38091840090918500089524
:1000E000909389008093880082E086BB80936F00A4
:1000F000089510926F00089590938900809388006E
:100100000895AF92BF92CF92DF92EF92FF920F933A
:100110001F93CF93DF93EC016B018A018C819D814A
:100120008417950710F40C811D816C857D85E8840A
:10013000F984E61AF70A0E151F0598F1E016F10684
:10014000D0F0A801C6010E94AA148E819F819D87CC
:100150008C878C819D81801B910B9D838C83C80132
:10016000DF91CF911F910F91FF90EF90DF90CF9093
:10017000BF90AF900895A701C6010E94AA1458012C
:10018000AE18BF086E817F81A501C6018E0D9F1D2F
:100190000E94AA144E815F814A0D5B1D5D874C87CA
:1001A000D8CFA801C6010E94AA148C859D85800F16
:1001B000911F9D878C87CDCFAF92BF92CF92DF9258
:1001C000EF92FF920F931F93CF93DF93EC016B019C
:1001D0008A018C819D818417950710F40C811D8103
:1001E0008A859B85E884F984E81AF90A0E151F05AB
:1001F00098F1E016F106D0F0A801B6010E94AA1409
:100200008E819F819B878A878C819D81801B910B2A
:100210009D838C83C801DF91CF911F910F91FF9037
:10022000EF90DF90CF90BF90AF900895A701B601F7
:100230000E94AA145801AE18BF08B6016E0D7F1DAA
:10024000A5018E819F810E94AA144E815F814A0D73
:100250005B1D5B874A87D8CFA801B6010E94AA140C
:100260008A859B85800F911F9B878A87CDCF0F93AF
:100270001F93FC0191838083938382831582148270
:10028000778366837587648773876287640F751FBA
:100290007187608737872687118B008B1F910F919D
:1002A0000895FC01A285B38584859585A817B907B3
:1002B000E9F084819581019695838483CD0101962F
:1002C000938782876C932285338580859185281753
:1002D000390720F08681978193878287CF0170E06C
:1002E00060E00E942F0B90E080E00895848195816A
:1002F000892BF9F28FEF9FEF0895CF92DF92EF9263
:10030000FF921F93CF93DF93EC016A017B01F89476
:1003100007C0B701A601CE010E94100B97FD2AC0AD
:100320008C819D81892BA9F38C819D8101979D836F
:100330008C83EC85FD85CF0101969D878C8710818C
:10034000288539858217930720F08E819F819D87AC
:100350008C87EE85FF85309711F0CE010995789452
:10036000812F90E0DF91CF911F91FF90EF90DF9070
:10037000CF9008957894DF91CF911F91FF90EF90E7
:10038000DF90CF9008954F925F926F927F928F92FD
:100390009F92AF92BF92CF92DF92EF92FF920F9314
:1003A0001F93CF93DF936C017B014A012801390130
:1003B000FC01A684B784F89441155105B9F08A016F
:1003C000A801B701C6019DDEEC01892B11F1A11432
:1003D000B10419F0C601F501099578940C1B1D0BA9
:1003E000EC0EFD1EF8940115110551F7C401789427
:1003F000DF91CF911F910F91FF90EF90DF90CF9001
:10040000BF90AF909F908F907F906F905F904F9034
:100410000895B301A201C6010E94100B892B81F23D
:10042000C401801B910BE3CF0F931F93FC019183B9
:100430008083938382835583448377836683758720
:10044000648773876287640F751F7187608737873A
:100450002687118B008B1F910F910895CF92DF9209
:10046000EF92FF921F93CF93DF93EC01162F690158
:100470007A01F89407C0B701A601CE010E94100BC3
:1004800097FD2CC08C819D81892BA9F38C819D8146
:1004900001979D838C83EA85FB85CF0101969B871D
:1004A0008A8710832A853B8588859985281739078F
:1004B00020F08E819F819B878A87EE85FF8530970C
:1004C00011F0CE010995789490E080E0DF91CF9112
:1004D0001F91FF90EF90DF90CF9008957894DF9177
:1004E000CF911F91FF90EF90DF90CF900895CF9321
:1004F000FC01A485B585828593858A179B07E9F061
:1005000084819581019695838483CD010196958799
:100510008487CC91208531858217930748F4CF01D9
:1005200070E060E00E942F0B8C2F90E0CF91089537
:100530008681978195878487F2CF84819581892BE5
:10054000F9F28FEF9FEFCF9108954F925F926F92E4
:100550007F928F929F92AF92BF92CF92DF92EF9253
:10056000FF920F931F93CF93DF936C017B014A019E
:1005700028013901FC01A684B784F894411551057E
:10058000B9F08A01A801B701C60116DEEC01892B7A
:1005900011F1A114B10419F0C601F501099578947F
:1005A0000C1B1D0BEC0EFD1EF8940115110551F7E7
:1005B000C4017894DF91CF911F910F91FF90EF903C
:1005C000DF90CF90BF90AF909F908F907F906F9073
:1005D0005F904F900895B301A201C6010E94100BD5
:1005E000892B81F2C401801B910BE3CF0F931F93E2
:1005F0000596C9DE1F910F9108950F931F930FEF7A
:100600001FEF98010596BFDE1F910F9108950F937C
:100610001F9347969ADF1F910F9108950F931F9391
:100620000FEF1FEF9801479690DF1F910F910895EC
:10063000059663CE4FEF5FEFBA0105965ECE479603
:100640000DCF2FEF3FEFA901479608CF613071051D
:1006500019F08CEE9FEF089590E080E0089569C155
:10066000EF92FF920F931F93CF93DF93EC019B01C7
:100670007A01FC0180E091E081939193FB83EA830E
:1006800081E08C83BE01675D7F4F8E0140E150E0C9
:10069000CE010596ECDDBE01675C7F4F970140E11E
:1006A00050E0CE014796C0DEDF91CF911F910F91B0
:1006B000FF90EF9008951F93CF93DF93EC01162FD7
:1006C00089859A85892B51F0612FCE010596E9DD48
:1006D00097FD0FC0DF91CF911F91089564E0CE0187
:1006E00002960E94380D612FCE010596DADD97FF44
:1006F000F1CF60E0CE010296DF91CF911F910C9473
:10070000380D0F931F93CF93DF938C014796EFDE45
:10071000EC0197FD06C0CE01DF91CF911F910F91A3
:10072000089568E0C80102960E94380DCE01DF915D
:10073000CF911F910F910895109269001DBA0895ED
:100740000895FC01808185B9818184B9828188B94D
:10075000838187B984818BB985818AB90895FC0129
:100760004230C9F098F04530B1F0463021F4818133
:10077000682B618308954330E9F79181862F809536
:10078000892381838281682B62830895442319F031
:10079000413099F308958181609586238183828118
:1007A000682362830895282F862F622F792F08955A
:1007B000CB01089508951F920F920FB60F92112446
:1007C0002F933F934F935F936F937F938F939F9359
:1007D000AF93BF93EF93FF9381E080938204C7D0E0
:1007E000109282042CD581113AD5FF91EF91BF91DF
:1007F000AF919F918F917F916F915F914F913F91B9
:100800002F910F900FBE0F901F901895109280009F
:10081000E1E8F0E088E08083109282001092890085
:1008200010928800109285001092840082E086BBAE
:1008300010926F0085E080830895E1ECF0E0808104
:100840008062808308951F920F920FB60F92112439
:100850002F933F934F935F936F937F938F939F93C8
:10086000AF93BF93EF93FF9381E0809382048091D5
:10087000C000982F9C7149F060E282FF60E084FD27
:100880001FC08FEE93E00E94380D6091C6008DEE80
:1008900093E011DF10928204D2D48111E0D4FF9151
:1008A000EF91BF91AF919F918F917F916F915F91E8
:1008B0004F913F912F910F900FBE0F901F90189561
:1008C0006064DFCF1F920F920FB60F9211242F9307
:1008D0003F934F935F936F937F938F939F93AF93C8
:1008E000BF93EF93FF9381E0809382048DEE93E0BA
:1008F00008DF97FD18C08093C600109282049FD431
:100900008111ADD4FF91EF91BF91AF919F918F91E4
:100910007F916F915F914F913F912F910F900FBEFB
:100920000F901F9018958091C1008F7D8093C1001A
:10093000E4CF4DE154E070E060E08DEE93E090CEC6
:10094000CF93DF93C6E3D4E081E088831A821982D3
:100950000E945D0D0E948D0D6DE171E089E394E0D0
:10096000CDD482E088837894DF91CF91089530C20E
:100970000F931F93E9E3F4E0078D10A121A132A1A9
:10098000DC01CB01802B912BA22BB32B878F90A363
:10099000A1A3B2A31F910F9108958F929F92AF923E
:1009A000BF92CF92DF92EF92FF920F931F93CF935C
:1009B000DF93FC01EB0170934904609348042483A6
:1009C00035834683578380E494E093838283A091A8
:1009D0004004B0914104B183A0831396FC93EE933D
:1009E0001297F0934104E093400469017A0181E099
:1009F000C8168FEFD806E104F10420F0C12CD12CE9
:100A00007601DA9482E0C816D104E104F10428F4F6
:100A100092E0C92ED12CE12CF12CCE018C0D9D1D24
:100A20005FDB82E0882E912CA12CB12C0EC07501C9
:100A300064018FEFC81AD80AE80AF80ACE018C0DB3
:100A40009D1D5ADBE8014601570145DB8C018C1BDB
:100A50009D0BB0E0A0E08C159D05AE05BF0538F7F5
:100A600083E088169104A104B10468F4DF91CF916A
:100A70001F910F91FF90EF90DF90CF90BF90AF90BC
:100A80009F908F90089561E070E080E090E0DF91AA
:100A9000CF911F910F91FF90EF90DF90CF90BF907B
:100AA000AF909F908F9064CF8F929F92AF92BF92A2
:100AB000CF92DF92EF92FF92CF93DF93EC016A0126
:100AC0007B0121E0C2162FEFD206E104F10420F0F1
:100AD000C12CD12C7601DA9482E0C816D104E1044D
:100AE000F10428F492E0C92ED12CE12CF12C82E003
:100AF000882E912CA12CB12C0AC0750164012FEF16
:100B0000C21AD20AE20AF20AEC0146015701CE01EA
:100B10008C0D9D1DF1DADFDAAC014C1B5D0B70E032
:100B200060E04C155D056E057F0538F783E088169B
:100B30009104A104B10458F4DF91CF91FF90EF909C
:100B4000DF90CF90BF90AF909F908F90089561E01D
:100B500070E080E090E0DF91CF91FF90EF90DF9028
:100B6000CF90BF90AF909F908F9002CF8F929F9227
:100B7000AF92BF92CF92DF92EF92FF92CF93DF932B
:100B8000EC014A015B01A7DAE0914004F0914104D5
:100B900024E0E034F20709F473C020914804309156
:100BA0004904AC01421B530B70E060E07501640125
:100BB000C40ED51EE61EF71EC416D506E606F706B9
:100BC00008F44FC04481558166817781C416D506EB
:100BD000E606F70608F448C04C155D056E057F056E
:100BE00080F4C41AD50AE60AF70A0190F081E02DD4
:100BF00044815581668177814C155D056E057F05C1
:100C000080F3CC82DD82EE82FF82F983E883A281C9
:100C1000B381BB83AA83CD93DC93D383C2838481C6
:100C20009581A681B7818C199D09AE09BF0984837E
:100C30009583A683B7838FEF9FEFDC0180934404F5
:100C400090934504A0934604B0934704DF91CF915D
:100C5000FF90EF90DF90CF90BF90AF909F908F90DC
:100C6000089575016401AECFB501A4011DDFE091C7
:100C70004004F09141044481558166817781ACCF75
:100C8000A5019401BC01CE01DF91CF91FF90EF90BF
:100C9000DF90CF90BF90AF909F908F907ECE0F93BC
:100CA0001F93FC01138702873187208714861586DE
:100CB000168617861F910F9159CF0F931F93CF93CD
:100CC000DF93FC01A081B1818091400490914104A7
:100CD000E817F90781F1C281D381B983A883A08184
:100CE000B1811396DC93CE93129714964D915D913A
:100CF0006D917C9117970481158126813781400F72
:100D0000511F621F731F14964D935D936D937C93D7
:100D10001797118210828FEF9FEFDC0180934404BC
:100D200090934504A0934604B0934704DF91CF917C
:100D30001F910F910895B0934104A093400480E463
:100D400094E013969C938E93129711821082A09137
:100D50004004B0914104A817B907A9F114964D9128
:100D60005D916D917C911797048115812681378162
:100D7000400F511F621F731F14964D935D936D9327
:100D80007C931797A8D920914804309149048C018D
:100D9000021B130B30E020E0E0914004F09141048D
:100DA0004481558166817781041715072607370727
:100DB00008F0BCCF401B510B620B730BDF91CF913E
:100DC0001F910F9171CEDF91CF911F910F9191C91A
:100DD0004F925F926F927F928F929F92AF92BF924B
:100DE000CF92DF92EF92FF920F931F93CF93DF93F7
:100DF000CC24CA94DC2C76010FC06A857B85E885FB
:100E0000F985CE0109958C859D85AE85BF85892B99
:100E10008A2B8B2B09F05AC0C0914004D091410419
:100E20005AD900914804109149044C01801A910A42
:100E3000B12CA12C4C815D816E817F818416950639
:100E4000A606B706F0F0040F151F1093490400938F
:100E50004804EA81FB818881998191838083A881FC
:100E6000B9811396FC93EE931297198218828091A0
:100E70004004909141048054944009F0BECF39D988
:100E8000BCCF20914004309141042054344009F4F7
:100E900078C09093490480934804481959096A0915
:100EA0007B094C835D836E837F83DF91CF911F919C
:100EB0000F91FF90EF90DF90CF90BF90AF909F90F9
:100EC0008F907F906F905F904F90EECD04D95C0132
:100ED0002C01401A510A712C612C8C859D85AE85A0
:100EE000BF8584159505A605B70508F45BC000917C
:100EF000400410914104E4E000341E0709F462C08C
:100F0000F8014481558166817781481759076A073E
:100F10007B0788F4841B950BA60BB70BF8010081A7
:100F20001181F801448155816681778148175907FD
:100F30006A077B0778F38C839D83AE83BF83198315
:100F40000883F801228133813B832A83F901D1830D
:100F5000C083F801D383C283448155816681778140
:100F6000481B590B6A0B7B0B44835583668377833D
:100F7000C0924404D0924504E0924604F0924704A3
:100F80004BCFDF91CF911F910F91FF90EF90DF90AA
:100F9000CF90BF90AF909F908F907F906F905F9019
:100FA0004F90089562E070E080E090E0E1DC009115
:100FB00040041091410484E000341807E1F0D301AB
:100FC000C2019ECF9C01AD0124193509460957097C
:100FD000B501CE01DF91CF911F910F91FF90EF905E
:100FE000DF90CF90BF90AF909F908F907F906F9049
:100FF0005F904F90D2CC20E030E0A901E9CFCF93B1
:10100000DF93DB011F968C911F978430F1F180F5FF
:10101000882359F1833031F45296ED91FC91539726
:10102000118210828FEF9FEF53969C938E9352976D
:101030001F961C921F971B96ED91FC911C9714967E
:101040009C9114970190F081E02D84818917D0F74D
:101050001196FC93EE93C281D3811396DC93CE93C9
:101060001297B983A883B383A283DF91CF910895A8
:10107000873059F08C3049F08530A1F65296ED91C9
:10108000FC91539784818F5F84831296ED91FC913C
:1010900013978D919C91119791838083CD91DC91D1
:1010A0001197FB83EA83BECFCF93DF93DC011F96BA
:1010B0001C921F971B96ED91FC911C9714968C9196
:1010C00014970190F081E02D94819817D0F7119634
:1010D000FC93EE93C281D3811396DC93CE93129747
:1010E000B983A883B383A283CD01DF91CF91089503
:1010F000CF93DF93E9E3F4E065817681DB011F960E
:101100008C9380819181EC01A881B981B183A08306
:101110001396FC93EE93129721E02F879683858395
:1011200009D5DF91CF910895DF92EF92FF920F934F
:101130001F93CF93DF93CDB7DEB760970FB6F894C8
:10114000DEBF0FBECDBFD82EE0903E04F0903F042E
:101150004F3F8FEF58076807780701F187012FEF9E
:1011600037E0CE0101969BDD8D2DC2DF89819A810A
:10117000892B19F0CE010196A0DDF70182899389B0
:1011800060960FB6F894DEBF0FBECDBFDF91CF9152
:101190001F910F91FF90EF90DF9008958D2DA8DFA4
:1011A000ECCFCF93DF93DC01C0913E04D0913F049C
:1011B00053967C936E93529714962C9114979C811E
:1011C0009217E8F01F961C921F971B96ED91FC91C9
:1011D0001C970190F081E02D84818217D0F7119641
:1011E000FC93EE93C281D3811396DC93CE93129736
:1011F000B983A883B383A283DF91CF9108951F861B
:10120000EB85FC850190F081E02D84819817D0F367
:10121000CD01F983E883A281B381BB83AA83CD93F7
:10122000DC93D383C28321E0FC01278790933F04A2
:1012300080933E04BE017ED4DF91CF910895A091AA
:101240003904B0913A04E0913E04F0913F0481E00A
:1012500014962C919481921708F080E00895CF9312
:10126000DF93A0913E04B0913F0440913904509126
:101270003A04EA01E881F981F0933A04E0933904F1
:1012800089E394E09383828381E08F8750933F04C6
:1012900040933E041F961C921F971B96ED91FC9164
:1012A0001C9714962C9114970190F081E02D948155
:1012B0002917D0F31196FC93EE93828193811396B4
:1012C0009C938E931297EC01B983A883B383A28376
:1012D000BD01CA012FD4DF91CF910895A0913904A7
:1012E000B0913A04E0913E04F0913F0414969C9131
:1012F0008481891708F00895B2CFFFCFCF92DF9293
:10130000FF920F931F93CF93DF93CDB7DEB72B9749
:101310000FB6F894DEBF0FBECDBF8C016B0190936A
:10132000380480933704FC01168E158E74A363A3D2
:10133000FF24F394F09282049183808393838283C9
:1013400014824996928F818F948F838F178E10A26B
:1013500011A212A2429790878783928781878FEF8D
:101360009FEFDC0183879487A587B687108A17864D
:101370000E946B009C01F801218B328B138A148A26
:10138000158A168A178A108EED5BFF4F1182108224
:10139000B8016B5D7F4F20E84FE251E0C8012AD0D1
:1013A000F80196838583FC01F78683E291E09A83B6
:1013B0008983F601828193819C838B8384819581CB
:1013C0009E838D83FF828DE799E0998788871B86AE
:1013D0001A86CE0101969ED02B960FB6F894DEBFEA
:1013E0000FBECDBFDF91CF911F910F91FF90DF9086
:1013F000CF900895CF93DF93FB01248332E03787AA
:10140000108A94878387258F148E138E128E21E085
:10141000218B568745879B01295F3F4FAC01475E73
:101420005F4F50874783EC01AB8DBC8DB287A1879E
:101430002D933C933C8F2B8FCB014496958B848BC3
:101440000296978B868B918F808FCB01DF91CF9106
:101450000895CF93DF93DC0114962D913C9115975D
:10146000F9017E97E901E397D683C58317969C918E
:10147000179718968C9118979A8B898B19969C912F
:1014800019971A968C911A97988B8F8789EC9DE003
:101490009B8B8C8B16968C9116974D915C918483C7
:1014A00092E09787108A69E374E074876387858F79
:1014B000148E138E128E81E0818B56874587D90159
:1014C000579782E594E011969C938E93EB018B8D58
:1014D0009C8D13969C938E931297EC01B983A883ED
:1014E000EB01BC8FAB8F1D960B2E11960C921197B2
:1014F000AC9312960B2E11960C921197AC930A2E68
:101500001B2E13961C920E9211241297CF01DF917D
:10151000CF9108959EDFC8CD0F931F93CF93DF9394
:10152000F8946E517109EC01C60FD71FFE01759733
:10153000FE83ED83228B318B008B178789EC9DE036
:10154000938B848B4C8382E08F87188AE9E3F4E0E5
:10155000FC87EB874D8F1C8E1B8E1A8E81E0898B4A
:1015600088E291E09E878D87CE01079622E534E0E0
:1015700038872F83A38DB48DBA87A9878D939C93C9
:10158000948F838F0D969D8B8C8B02969F8B8E8B69
:10159000998F888F70E060E0CE0103DE7894CE01F1
:1015A000DF91CF911F910F9108950F931F93CF93C8
:1015B000DF93C0913E04D0913F049B8B8A8B8E01B8
:1015C0000C5E1F4F8C899D890817190759F0FC0183
:1015D000208131813D8B2C8B67DD8C899D89801723
:1015E0009107A9F7898981110CC0E985FA858F8156
:1015F000988591838083AF81B8851396FC93EE9391
:1016000012978FE0DF91CF911F910F9171CDF894D8
:10161000CCCFAB01BC01F89488E086DD78940895C6
:10162000CF93DF93E0913E04F0913F0441155105C3
:101630006105710579F091838083EC01AA81BB81FA
:10164000B383A283ED93FC93FB83EA8384E0DF9171
:10165000CF916ACD8FEF9FEFDF91CF910895CF9318
:10166000DF93FC0180819181E817F90771F0EC01AB
:10167000A881B981B183A0831396FC93EE9312974E
:101680007B8B6A8BDF91CF910FCDDF91CF91089546
:10169000FC01918380839383828315821482089551
:1016A0000F931F93CF93DF93EC0100913E041091B1
:1016B0003F04EC81FD81309709F47EC0D801149677
:1016C0008C919481981750F484838785863009F42F
:1016D00085C0873071F1882309F45BC09E01FE014B
:1016E00007C09481D80114968C91981708F462C0B1
:1016F0000190F081E02DCE17DF0799F7F8013183D3
:101700002083D9011296ED91FC91D8011396FC9398
:10171000EE93129711830083F9011383028353968A
:10172000DC93CE93529786E0DF91CF911F910F917A
:10173000DFCC2281338180819181D9018D939C936B
:1017400080819181DC0113963C932E93129722891C
:101750003389D90107C014969C91149784819817F6
:1017600008F478C00D90BC91A02D2A173B0799F77B
:1017700031832083D90112968D919C91938382832A
:10178000DC01ED93FC93D9011396FC93EE93129731
:10179000A5CF2281338180819181D9018D939C9342
:1017A00080819181DC0113963C932E931297CF0197
:1017B0007BDC94CF9F01A2CF1D830C83D8015B9665
:1017C0008D919C915C979F838E835C96DC93CE93E6
:1017D0005B97DF91CF911F910F9108952281338103
:1017E00080819181D9018D939C9380819181DC01CD
:1017F00013963C932E93129722893389D90106C000
:1018000014969C9114978481981730F10D90BC9197
:10181000A02D2A173B07A1F731832083D901129607
:101820008D919C9193838283DC01ED93FC93D9018C
:101830001396FC93EE9312970288F389E02D0480AF
:10184000F581E02DD80114968C919481981708F4B5
:101850003BCF44CF9D018CCF9D01DECFF89420DF9C
:1018600078940895CF93DF93C0913E04D0913F04C4
:10187000F894DC011696ED91FC911797FC8FEB8F95
:101880002D913C912817390781F13D8D309779F0E2
:10189000A081B181EA17FB0729F014962C91321729
:1018A00008F4322F0680F781E02D309789F7FC018C
:1018B0003C83A081B181CD91DC911197D183C0830C
:1018C0009B838A83B583A4835B968D919C915C975F
:1018D000978386835C96FC93EE935B97CD01E4DB64
:1018E000FDDC7894DF91CF910895F901158214827F
:1018F0007894DF91CF910895CF93DF93EC012091FD
:101900003E0430913F04EE81FF81D9015C96FC9347
:10191000EE935B97A881B981A817B90761F1D90146
:101920005D969C91309779F0A081B181EA17FB0711
:1019300029F014968C91981708F4982F0680F78157
:10194000E02D309789F7F9019483E881F981A0812E
:10195000B181B983A8831396DC93CE931297FD834C
:10196000EC83838D948D9F838E83D48FC38FCF011F
:10197000DF91CF9199CB15961C921E921497DF910F
:10198000CF910895FC01918380839383828308958E
:10199000CF93DF93FC01F89480819181E817F907D8
:1019A00061F0EC01A881B981B183A0831396FC9307
:1019B000EE93129770E060E0F4DB7894DF91CF91C2
:1019C0000895EF92FF920F931F93CF93DF938C01B3
:1019D000C0913E04D0913F04EB8CFC8CC7018CDF9E
:1019E0001B8B0A8BD801F80104C094818C81981755
:1019F00018F10190F081E02D0E171F07B1F7B983A0
:101A0000A8831296ED91FC911397FB83EA83D1830F
:101A1000C0831396DC93CE93129787E069DB0A8824
:101A2000DB89C02DC7013CDECE01DF91CF911F9134
:101A30000F91FF90EF900895DF01E1CFF894C1DF9F
:101A400078940895FC01828D682B628F87858A3097
:101A500059F08B3009F00895828968238613FBCFF3
:101A6000138A128ACF0120CB82896823C9F708958F
:101A7000EF92FF921F93CF93DF937C01162FFC010F
:101A8000C081D1818C179D0791F08D81812B8D8331
:101A9000112319F08E81812321F06C818A819B8131
:101AA000D1DF0990D881C02DEC16FD0671F7DF91CA
:101AB000CF911F91FF90EF900895EEE7F4E085EC51
:101AC00091E09183808385E492E0938382830895FB
:101AD000F894E0918004F09181049F01281B390B58
:101AE000C901719561957109862397239C01241B77
:101AF000350B40917E0450917F042417350748F040
:101B0000E217F30730F03093810420938004789437
:101B1000089590E080E078940895E5E4F2E088E6A6
:101B20009DE09183808313821282158214828BE45C
:101B300092E0AECD2F923F924F925F926F927F9242
:101B40008F929F92AF92BF92CF92DF92EF92FF92CD
:101B50000F931F93CF93DF93FB010DB605820EB653
:101B60000682FC0105800DBE06800EBEDF91CF917E
:101B70001F910F91FF90EF90DF90CF90BF90AF90AB
:101B80009F908F907F906F905F904F903F902F909D
:101B900008957894C201F101099539CD08950F9304
:101BA0001F93CF93DF93EC0185B190E2892785B92C
:101BB00088819981892B11F0CE017FD88E012FEC7D
:101BC0003DE048E251E361E070E0CE0168D8DF918A
:101BD000CF911F910F9108958FED92E059DD8BED1C
:101BE00092E0D0DE87ED92E0CDDE8DEE92E0909334
:101BF000EA028093E9029093EC028093EB02109248
:101C0000E8021092E7020895CF93DF93EC018FED85
:101C100092E024DE8091E7029091E80280389105FD
:101C200050F087ED92E00ADF8091E7029091E802A0
:101C300080389105B0F7E091E902F091EA02C19392
:101C4000D19323E0ED3EF20798F02DEE32E0309391
:101C5000EA022093E90201969093E8028093E7025A
:101C60008BED92E095DE8FED92E0DF91CF91FACD92
:101C7000F093EA02E093E902EECFCF93DF938FED8A
:101C800092E0ECDD8091E7029091E802009749F440
:101C90008BED92E0D3DE8091E7029091E80200970D
:101CA000B9F3E091EB02F091EC02C191D19123E004
:101CB000ED3EF207A8F02DEE32E03093EC022093D7
:101CC000EB0201979093E8028093E70287ED92E0A0
:101CD0005FDE8FED92E0C6DDCE01DF91CF910895FA
:101CE000F093EC02E093EB02ECCFCF93DF93CDB710
:101CF000DEB760970FB6F894DEBF0FBECDBF1A8275
:101D00001982F89489819A81892B09F487C0FE0190
:101D100031967F01CF010E945D0687012FEC3DE0E7
:101D200048E251E361E070E0C7010E944F067894F9
:101D3000EE24E394F12C0FC08430910551F18130F1
:101D4000910509F447C0029709F45CC06BE176E0A5
:101D500080E090E05EDC91DF8C018330910561F7DB
:101D600067E089E290E00E94D3030E94DA03182F13
:101D700067E089E290E00E94D3030E94D803FC014F
:101D80009281970101C0220F1A95EAF7922B928354
:101D9000DDCF61E083E290E00E94D3030E94D8038C
:101DA000FC01128161E083E290E00E94D3030E9473
:101DB000DA03082F61E083E290E00E94D3030E94DF
:101DC000D803970101C0220F0A95EAF71227FC01F8
:101DD0001283BCCF60E083E290E00E94D3030E94B4
:101DE000DA03D82E60E083E290E00E94D3030E94E1
:101DF000D803FC01928101C0000FDA94EAF7092BA5
:101E00000283A4CF63E083E290E00E94D3030E94A8
:101E1000DA03182F63E083E290E0ADCFCE010196A4
:101E20007C017BCFCF92DF92EF92CF936B01E82EB4
:101E30000E94D803FC01C0818E2DB6010E94DA03F6
:101E40002C2F30E002C0359527958A95E2F7922F26
:101E500091708091530289279093530220952170AD
:101E60008223CF91EF90DF90CF900895B5DE0E944E
:101E700063000E94A00462E086E290E00E94D30327
:101E80000E94DA03182F62E086E290E00E94D303FA
:101E90000E94D803C1E0D0E0BE0101C0660F1A95D0
:101EA000EAF743E00E94AF0364E086E290E00E941C
:101EB000D3030E94DA03182F64E086E290E00E94C8
:101EC000D3030E94D803BE0101C0660F1A95EAF73A
:101ED00043E00E94AF0363E086E290E00E94D303F8
:101EE0000E94DA03182F63E086E290E00E94D30399
:101EF0000E94D803BE0101C0660F1A95EAF743E0BD
:101F00000E94AF0365E086E290E00E94D3030E9446
:101F1000DA03182F65E086E290E00E94D3030E9466
:101F2000D803BE0101C0660F1A95EAF743E00E948C
:101F3000AF0363E083E290E00E94D3030E94DA03E0
:101F4000182F63E083E290E00E94D3030E94D8033D
:101F5000BE0101C0660F1A95EAF746E00E94AF0382
:101F600063E083E290E00E94D3030E94DA03182F1B
:101F700063E083E290E00E94D3030E94D803FC0157
:101F800092819E0102C0220F331F1A95E2F720951D
:101F900030959223928362E083E290E00E94D30323
:101FA0000E94DA03182F62E083E290E00E94D303DC
:101FB0000E94D803BE0101C0660F1A95EAF746E0F9
:101FC0000E94AF0362E083E290E00E94D3030E948C
:101FD000DA03182F62E083E290E00E94D3030E94AC
:101FE000D803FC0192819E0102C0220F331F1A9573
:101FF000E2F7209530959223928367E089E290E0A2
:102000000E94D3030E94DA03182F67E089E290E070
:102010000E94D3030E94D803BE0101C0660F1A9527
:10202000EAF746E00E94AF0367E089E290E00E9491
:10203000D3030E94DA03182F67E089E290E00E9440
:10204000D3030E94D803FC0192819E0102C0220F9B
:10205000331F1A95E2F7209530959223928364E01E
:1020600089E290E00E94D3030E94DA03182F64E013
:1020700089E290E00E94D3030E94D803BE0101C010
:10208000660F1A95EAF746E00E94AF0364E089E222
:1020900090E00E94D3030E94DA03182F64E089E2E3
:1020A00090E00E94D3030E94D803FC0192819E011C
:1020B00002C0220F331F1A95E2F720953095922324
:1020C000928366E089E290E00E94D3030E94DA03E3
:1020D000182F66E089E290E00E94D3030E94D803A3
:1020E000BE0101C0660F1A95EAF746E00E94AF03F1
:1020F00066E089E290E00E94D3030E94DA03182F81
:1021000066E089E290E00E94D3030E94D803FC01BC
:1021100092819E0102C0220F331F1A95E2F720958B
:1021200030959223928361E083E290E00E94D30392
:102130000E94DA03182F61E083E290E00E94D3034B
:102140000E94D803BE0101C0660F1A95EAF746E067
:102150000E94AF0361E083E290E00E94D3030E94FB
:10216000DA03182F61E083E290E00E94D3030E941B
:10217000D803FC0192819E0102C0220F331F1A95E1
:10218000E2F7209530959223928365E089E290E012
:102190000E94D3030E94DA03182F65E089E290E0E1
:1021A0000E94D3030E94D803BE0101C0660F1A9596
:1021B000EAF746E00E94AF0365E089E290E00E9402
:1021C000D3030E94DA03182F65E089E290E00E94B1
:1021D000D3030E94D803FC0192819E0102C0220F0A
:1021E000331F1A95E2F7209530959223928360E091
:1021F00083E290E00E94D3030E94DA03182F60E08C
:1022000083E290E00E94D3030E94D803BE0101C084
:10221000660F1A95EAF746E00E94AF0360E083E29A
:1022200090E00E94D3030E94DA03182F60E083E25B
:1022300090E00E94D3030E94D803FC0192819E018A
:1022400002C0220F331F1A95E2F7209530952923FB
:10225000228310E000E025E73EE040E863E870E01C
:1022600084E592E059D908C084E090E0CDDC6EE0CE
:1022700073E080E090E0CDD965E086E290E00E94D6
:10228000D303D0DD8111F0CF63E086E290E00E94BD
:10229000D3030E94D803FC01C08163E086E290E092
:1022A0000E94D3030E94DA032C2F30E002C0359540
:1022B00027958A95E2F720FD04C083E090E0A4DC36
:1022C000D6CF64E086E290E00E94D3030E94D80358
:1022D000FC01C08164E086E290E00E94D3030E948A
:1022E000DA032C2F30E002C0359527958A95E2F766
:1022F00020FD04C081E090E087DCB9CF62E086E297
:1023000090E00E94D3030E94D803FC01C08162E0E8
:1023100086E290E00E94D3030E94DA032C2F30E083
:1023200002C0359527958A95E2F720FDA0CF82E07F
:1023300090E06ADC9CCFABE0B0E0E0EAF1E1C4C23F
:102340006C017B013A01FC0117821682838181FFB7
:10235000FFC0CE0101964C01F601B380F701B3FC3A
:102360000591B3FE01917F01002341F1053239F45B
:10237000B3FC0591B3FE01917F01053239F5B60139
:10238000802F90E02CD353013501E6CF1068F70180
:10239000B3FC0591B3FE01917F0117FD0DC0002331
:1023A00069F0602F70E08FE690E0C9D2892B79F751
:1023B000033251F00C3651F301110AC0F601868147
:1023C00097812B96EEE09CC210E1E1CF10E0E5CFC3
:1023D000602F70E088E690E0B2D2892B49F053017B
:1023E000F4E0AF0EB11CB6018FE390E0F8D2CCCF91
:1023F000033609F452C0033709F459C0033509F410
:1024000055C0043619F0093609F070C0530117FFA2
:1024100062C0F4E0AF0EB11CF30160817181828172
:1024200093811F7E97FF08C0909580957095619568
:102430007F4F8F4F9F4F10642AE030E0A40117D3E5
:10244000082F081916FF04C0B6018DE290E0C7D22C
:1024500014FF13C0FE01E00FF11D8081803369F08D
:10246000B60180E390E0BBD212FF07C01072812F4B
:1024700090E0B601885A9F4FB2D2015010E00F5F32
:102480001F4F080D191DF80182918F01B60190E0D0
:10249000A6D208151905B9F777CF530182E0A80E27
:1024A000B11CB601F30180819181A0CF116053016D
:1024B000F2E0AF0EB11CF30160807180F30110FDFA
:1024C000859110FF81913F01882309F45DCFB6010A
:1024D00090E085D2F3CFF2E0AF0EB11CF301608142
:1024E0007181072E000C880B990B9BCF003709F1E7
:1024F00040F4083501F10F3609F060CF28E030E0F4
:102500000CC0053739F0083709F058CF146220E1C4
:1025100030E003C01F7E2AE030E0530117FF0FC0F8
:10252000F4E0AF0EB11CF30160817181828193816F
:1025300085CF1061EBCF146020E132E0EECFF2E006
:10254000AF0EB11CF3016081718190E080E076CF25
:102550008FEF9FEF36CF20FD09C0FC0123FD05C0A2
:1025600022FF02C07383628351834083089544FD38
:1025700017C046FD1DC0DB01FC01AA0FBB1FEE1FEB
:10258000FF1F1094D1F76A0F7B1F8E1F9F1F660FCE
:10259000771F881F991F620F711D811D911D08955E
:1025A00033E0660F771F881F991F3150D1F7F3CFA3
:1025B00034E0F7CF0F931F93CF93DF938C01C801C3
:1025C000D2D1EC0197FD06C0B2D1892BC1F7B80179
:1025D000CE0135D2CE01DF91CF911F910F91089599
:1025E0008F929F92AF92BF92EF92FF920F931F93A1
:1025F000CF93DF938C01D62F7A01B22EB4D19C01F8
:1026000033272B32310529F02D323105A1F468949E
:10261000B7F8D15061F480E0DF91CF911F910F9115
:10262000FF90EF90BF90AF909F908F900895C8015A
:102630009AD197FDF0CFCB2DCD7F2B2D2073E9F4D0
:102640008033D9F4AA24AA94AD0E79F0C8018BD1B5
:1026500097FD0BC0282F2F7D283559F4C264D25026
:1026600021F0C80180D197FF08C0812C912C540122
:102670001AC0B6FE29C0C260DA2D812C912C5401FB
:1026800020ED280F283018F1C4FD09C02A30F8F0D9
:10269000C6FF05C02F7D3FEE320F3630B8F0B801CF
:1026A000CED1C1FFB8CFC7FF08C0B094A09490941A
:1026B0008094811C911CA11CB11C2C2FB501A4017C
:1026C000C70149DF81E0A8CFC261D6CF27504C2F88
:1026D000C501B4014CDF4B015C01C260D15019F35C
:1026E000C80141D197FFCCCFDCCFB0E0A0E0EAE752
:1026F000F3E1E9C06C01EB015A01FC01178216827B
:10270000512CF601F380FE01F3FC8591F3FE8191DB
:10271000182FEF018823C9F090E009D1892B19F017
:10272000C60148DFEECF153241F4FE01F3FC1591EE
:10273000F3FE1191EF01153259F4C60114D197FD42
:1027400098C01817F1F2B6017AD1852D90E095C0A6
:1027500000E01A3231F4F3FC1591F3FE1191EF0110
:1027600001E0E12C20ED210F2A3038F101FF34C0C7
:10277000EE2059F3183699F11C3609F43AC01123AA
:1027800021F3612F70E08FE790E0D9D0892BE9F237
:10279000912C812C00FD06C0F50180809180C5013F
:1027A00002965C011E3669F5F6014681578170E09C
:1027B00060E0202FC401CFDEA4CF02606E2D70E058
:1027C00090E080E040E2D3DEE62EFE01F3FC1591BE
:1027D000F3FE1191EF01C6CFEE24EA94CBCFFE01B8
:1027E000F3FC1591F3FE1191EF01183609F0C7CFF4
:1027F00008600460FE01F3FC1591F3FE1191EF01F6
:10280000BECF1336B9F401FD02C0EE24E394C60135
:10281000AAD097FD2EC08114910429F0F401808381
:10282000C40101964C01EA94E110F1CF00FD69CF9B
:10283000539467CFC601BEDE97FD1BC01F3609F457
:102840003DC030F4143641F0193639F0006405C04B
:10285000133711F11537D1F70062202FA4016E2D27
:10286000C601BEDE8111E2CFF6018381807309F4D7
:102870006CCF8FEF9FEF511068CFCDB7DEB7EFE091
:102880003EC08114910429F0F4016082C4010196D4
:102890004C01EA94EE2059F0C60165D03C0197FD49
:1028A00006C045D0892B69F3B601C301C8D0811495
:1028B000910409F4BBCFF4011082B8CF0061CDCFF1
:1028C0002F923F924F925F926F927F928F929F9240
:1028D000AF92BF92CF92DF92EF92FF920F931F932E
:1028E000CF93DF93CDB7DEB7CA1BDB0B0FB6F894DF
:1028F000DEBF0FBECDBF09942A88398848885F841F
:102900006E847D848C849B84AA84B984C884DF808F
:10291000EE80FD800C811B81AA81B981CE0FD11D73
:102920000FB6F894DEBF0FBECDBFED010895911133
:10293000FCC0803219F089508550D0F70895FC0111
:102940000590061621F00020D9F7C00108953197AF
:10295000CF010895FB01DC0102C001900D924150AE
:102960005040D8F70895CF93DF93EC012B8120FFDF
:102970001AC026FF0CC02F7B2B838E819F8101966E
:102980009F838E838A8190E0DF91CF91089522FF0B
:1029900018C0E881F9818081082E000C990B0097FE
:1029A00029F420622B838FEF9FEFEECF3196F983CE
:1029B000E8832E813F812F5F3F4F3F832E839927EE
:1029C000E3CFEA85FB85099597FFF3CF2B8101962D
:1029D00021F080E2822B8B83E6CF80E1FBCF0F9347
:1029E0001F93CF93DF93182F092FEB018B8181FD6C
:1029F00009C01FEF0FEF812F902FDF91CF911F9113
:102A00000F91089582FF14C02E813F818C819D819A
:102A1000281739073CF4E881F981CF0101969983A1
:102A2000888310838E819F8101969F838E83E3CF5D
:102A3000E885F985812F0995892BA1F3DACFFB0170
:102A4000238120FF11C026FD0FC08F3F980771F032
:102A500082832F7D20642383268137812150310991
:102A600037832683992708958FEF9FEF0895FA0102
:102A7000AA27283051F1203181F1E8946F936E7FBD
:102A80006E5F7F4F8F4F9F4FAF4FB1E03ED0B4E0AE
:102A90003CD0670F781F891F9A1FA11D680F791FEF
:102AA0008A1F911DA11D6A0F711D811D911DA11D00
:102AB00020D009F468943F912AE0269F1124301910
:102AC000305D3193DEF6CF010895462F4770405DAB
:102AD0004193B3E00FD0C9F7F6CF462F4F70405D5A
:102AE0004A3318F0495D31FD4052419302D0A9F7B5
:102AF000EACFB4E0A6959795879577956795BA95AF
:102B0000C9F700976105710508959B01AC010A2E74
:102B100006945795479537952795BA95C9F7620F4B
:102B2000731F841F951FA01D089599278827089556
:042B3000F894FFCF47
:102B340000000E03FD0221031A031F0318030703F9
:102B4400F6022603FF20FF00FF026330001A015A39
:102B540001C50169646C65006E6F6E616D65006D21
:102B640061696E002B043802021E040507090D007A
:102B74000F10000000000000001504010001000017
:0A2B840000000000050007191D1FE6
:00000001FF
