:1000000044C000005FC000005DC000005BC0000095
:1000100059C0000057C0000055C0000053C0000088
:1000200051C000004FC000004DC00000D1C300000F
:1000300049C0000047C0000045C0000043C00000A8
:1000400041C000003FC000000BC4000048C40000D5
:1000500039C0000037C0000035C0000033C00000C8
:1000600031C000002FC0000045464765666700208C
:100070002B2D2E3031323334353637383968006322
:1000800064696E6F70737578580011241FBECFEFCE
:10009000D8E0DEBFCDBF11E0A0E0B1E0E4E7F5E3DA
:1000A00002C005900D92AC35B107D9F724E0ACE55C
:1000B000B1E001C01D92AB38B207E1F70E946614AF
:1000C0000C94B81A9DCF49D386E191E047D3C7D2AB
:1000D00040D300C0A8C3809184009091850008950A
:1000E000909389008093880082E086BB80936F00A4
:1000F000089510926F00089590938900809388006E
:100100000895AF92BF92CF92DF92EF92FF920F933A
:100110001F93CF93DF93EC016B018A018C819D814A
:100120008417950710F40C811D816C857D85E8840A
:10013000F984E61AF70A0E151F0598F1E016F10684
:10014000D0F0A801C6010E94CA198E819F819D87A7
:100150008C878C819D81801B910B9D838C83C80132
:10016000DF91CF911F910F91FF90EF90DF90CF9093
:10017000BF90AF900895A701C6010E94CA19580107
:10018000AE18BF086E817F81A501C6018E0D9F1D2F
:100190000E94CA194E815F814A0D5B1D5D874C87A5
:1001A000D8CFA801C6010E94CA198C859D85800FF1
:1001B000911F9D878C87CDCFAF92BF92CF92DF9258
:1001C000EF92FF920F931F93CF93DF93EC016B019C
:1001D0008A018C819D818417950710F40C811D8103
:1001E0008A859B85E884F984E81AF90A0E151F05AB
:1001F00098F1E016F106D0F0A801B6010E94CA19E4
:100200008E819F819B878A878C819D81801B910B2A
:100210009D838C83C801DF91CF911F910F91FF9037
:10022000EF90DF90CF90BF90AF900895A701B601F7
:100230000E94CA195801AE18BF08B6016E0D7F1D85
:10024000A5018E819F810E94CA194E815F814A0D4E
:100250005B1D5B874A87D8CFA801B6010E94CA19E7
:100260008A859B85800F911F9B878A87CDCF0F93AF
:100270001F93FC0191838083938382831582148270
:10028000778366837587648773876287640F751FBA
:100290007187608737872687118B008B1F910F919D
:1002A0000895FC01A285B38584859585A817B907B3
:1002B000E9F084819581019695838483CD0101962F
:1002C000938782876C932285338580859185281753
:1002D000390720F08681978193878287CF0170E06C
:1002E00060E00E94780B90E080E008958481958121
:1002F000892BF9F28FEF9FEF0895CF92DF92EF9263
:10030000FF921F93CF93DF93EC016A017B01F89476
:1003100007C0B701A601CE010E94590B97FD2AC064
:100320008C819D81892BA9F38C819D8101979D836F
:100330008C83EC85FD85CF0101969D878C8710818C
:10034000288539858217930720F08E819F819D87AC
:100350008C87EE85FF85309711F0CE010995789452
:10036000812F90E0DF91CF911F91FF90EF90DF9070
:10037000CF9008957894DF91CF911F91FF90EF90E7
:10038000DF90CF9008954F925F926F927F928F92FD
:100390009F92AF92BF92CF92DF92EF92FF920F9314
:1003A0001F93CF93DF936C017B014A012801390130
:1003B000FC01A684B784F89441155105B9F08A016F
:1003C000A801B701C6019DDEEC01892B11F1A11432
:1003D000B10419F0C601F501099578940C1B1D0BA9
:1003E000EC0EFD1EF8940115110551F7C401789427
:1003F000DF91CF911F910F91FF90EF90DF90CF9001
:10040000BF90AF909F908F907F906F905F904F9034
:100410000895B301A201C6010E94590B892B81F2F4
:10042000C401801B910BE3CF0F931F93FC019183B9
:100430008083938382835583448377836683758720
:10044000648773876287640F751F7187608737873A
:100450002687118B008B1F910F910895CF92DF9209
:10046000EF92FF921F93CF93DF93EC01162F690158
:100470007A01F89407C0B701A601CE010E94590B7A
:1004800097FD2CC08C819D81892BA9F38C819D8146
:1004900001979D838C83EA85FB85CF0101969B871D
:1004A0008A8710832A853B8588859985281739078F
:1004B00020F08E819F819B878A87EE85FF8530970C
:1004C00011F0CE010995789490E080E0DF91CF9112
:1004D0001F91FF90EF90DF90CF9008957894DF9177
:1004E000CF911F91FF90EF90DF90CF900895CF9321
:1004F000FC01A485B585828593858A179B07E9F061
:1005000084819581019695838483CD010196958799
:100510008487CC91208531858217930748F4CF01D9
:1005200070E060E00E94780B8C2F90E0CF910895EE
:100530008681978195878487F2CF84819581892BE5
:10054000F9F28FEF9FEFCF9108954F925F926F92E4
:100550007F928F929F92AF92BF92CF92DF92EF9253
:10056000FF920F931F93CF93DF936C017B014A019E
:1005700028013901FC01A684B784F894411551057E
:10058000B9F08A01A801B701C60116DEEC01892B7A
:1005900011F1A114B10419F0C601F501099578947F
:1005A0000C1B1D0BEC0EFD1EF8940115110551F7E7
:1005B000C4017894DF91CF911F910F91FF90EF903C
:1005C000DF90CF90BF90AF909F908F907F906F9073
:1005D0005F904F900895B301A201C6010E94590B8C
:1005E000892B81F2C401801B910BE3CF0F931F93E2
:1005F0000596C9DE1F910F9108950F931F930FEF7A
:100600001FEF98010596BFDE1F910F9108950F937C
:100610001F9347969ADF1F910F9108950F931F9391
:100620000FEF1FEF9801479690DF1F910F910895EC
:10063000059663CE4FEF5FEFBA0105965ECE479603
:100640000DCF2FEF3FEFA901479608CF613071051D
:1006500019F08CEE9FEF089590E080E0089576C148
:10066000EF92FF920F931F93CF93DF93EC019B01C7
:100670007A01FC0182E091E081939193FB83EA830C
:1006800081E08C83BE01675D7F4F8E0140E150E0C9
:10069000CE010596ECDDBE01675C7F4F970140E11E
:1006A00050E0CE014796C0DEDF91CF911F910F91B0
:1006B000FF90EF900895CF93DF93EC01F8944DD124
:1006C00082E08C83789490E080E0DF91CF91089570
:1006D0001F93CF93DF93EC01162F89859A85892B81
:1006E00051F0612FCE010596DCDD97FD0FC0DF9143
:1006F000CF911F91089564E0CE0102960E94810D72
:10070000612FCE010596CDDD97FFF1CF60E0CE01E0
:100710000296DF91CF911F910C94810D0F931F933F
:10072000CF93DF938C014796E2DEEC0197FD06C084
:10073000CE01DF91CF911F910F91089568E0C8011C
:1007400002960E94810DCE01DF91CF911F910F91F2
:100750000895109269001DBA08950895FC018081E2
:1007600085B9818184B9828188B9838187B984817F
:100770008BB985818AB90895FC014230C9F098F09F
:100780004530B1F0463021F48181682B61830895B2
:100790004330E9F79181862F809589238183828177
:1007A000682B62830895442319F0413099F308952A
:1007B0008181609586238183828168236283089585
:1007C000282F862F622F792F0895CB010895089541
:1007D0001F920F920FB60F9211242F933F934F93B6
:1007E0005F936F937F938F939F93AF93BF93EF9399
:1007F000FF9381E08093880403D11092880468D528
:10080000811176D5FF91EF91BF91AF919F918F911B
:100810007F916F915F914F913F912F910F900FBEFC
:100820000F901F90189510928000E1E8F0E088E0AA
:10083000808310928200109289001092880010929A
:1008400085001092840082E086BB10926F0085E0E4
:1008500080830895E1ECF0E08081806280830895D8
:100860001F920F920FB60F9211242F933F934F9325
:100870005F936F937F938F939F93AF93BF93EF9308
:10088000FF9381E0809388048091C000982F9C7131
:1008900049F060E282FF60E084FD1FC085EF93E0D5
:1008A0000E94810D6091C60083EF93E011DF1092EA
:1008B00088040ED581111CD5FF91EF91BF91AF91A6
:1008C0009F918F917F916F915F914F913F912F9168
:1008D0000F900FBE0F901F9018956064DFCF1F928E
:1008E0000F920FB60F9211242F933F934F935F9364
:1008F0006F937F938F939F93AF93BF93EF93FF93E8
:1009000081E08093880483EF93E008DF97FD18C0AF
:100910008093C60010928804DBD48111E9D4FF9142
:10092000EF91BF91AF919F918F917F916F915F9167
:100930004F913F912F910F900FBE0F901F901895E0
:100940008091C1008F7D8093C100E4CF4AE254E0E2
:1009500070E060E083EF93E083CE6115710521F0D4
:10096000835F934089F00895835F9340E1F783E3C9
:100970008093C4001092C50082E08093C00088E993
:100980008093C10086E01CC0FB0180818093C4007D
:1009900081818F708093C50082E08093C00088E9D8
:1009A0008093C1008281813091F078F0823059F0DB
:1009B000843041F78091C10084608093C10086E05B
:1009C0008093C200089584E0FBCF80E0F9CF82E0FD
:1009D000F7CFCF93DF93CCE3D4E081E088831A8212
:1009E00019820E94A60D0E94D60D6FE171E08FE37F
:1009F00094E0CDD482E088837894DF91CF910895FC
:100A000030C20F931F93EFE3F4E0078D10A121A1F3
:100A100032A1DC01CB01802B912BA22BB32B878F32
:100A200090A3A1A3B2A31F910F9108958F929F92BB
:100A3000AF92BF92CF92DF92EF92FF920F931F93EC
:100A4000CF93DF93FC01EB0170934F0460934E044E
:100A5000248335834683578386E494E0938382839B
:100A6000A0914604B0914704B183A0831396FC93F0
:100A7000EE931297F0934704E093460469017A01DC
:100A800081E0C8168FEFD806E104F10420F0C12CF4
:100A9000D12C7601DA9482E0C816D104E104F10485
:100AA00028F492E0C92ED12CE12CF12CCE018C0D32
:100AB0009D1D16DB82E0882E912CA12CB12C0EC03E
:100AC000750164018FEFC81AD80AE80AF80ACE0146
:100AD0008C0D9D1D11DBE80146015701FCDA8C01EC
:100AE0008C1B9D0BB0E0A0E08C159D05AE05BF05ED
:100AF00038F783E088169104A104B10468F4DF910B
:100B0000CF911F910F91FF90EF90DF90CF90BF900A
:100B1000AF909F908F90089561E070E080E090E04A
:100B2000DF91CF911F910F91FF90EF90DF90CF90C9
:100B3000BF90AF909F908F9064CF8F929F92AF9213
:100B4000BF92CF92DF92EF92FF92CF93DF93EC01AF
:100B50006A017B0121E0C2162FEFD206E104F10405
:100B600020F0C12CD12C7601DA9482E0C816D10491
:100B7000E104F10428F492E0C92ED12CE12CF12CEF
:100B800082E0882E912CA12CB12C0AC07501640141
:100B90002FEFC21AD20AE20AF20AEC01460157010B
:100BA000CE018C0D9D1DA8DA96DAAC014C1B5D0BB5
:100BB00070E060E04C155D056E057F0538F783E059
:100BC00088169104A104B10458F4DF91CF91FF90ED
:100BD000EF90DF90CF90BF90AF909F908F9008954F
:100BE00061E070E080E090E0DF91CF91FF90EF90C6
:100BF000DF90CF90BF90AF909F908F9002CF8F9259
:100C00009F92AF92BF92CF92DF92EF92FF92CF93DB
:100C1000DF93EC014A015B015EDAE0914604F0915A
:100C2000470424E0E634F20709F473C020914E042F
:100C300030914F04AC01421B530B70E060E0750132
:100C40006401C40ED51EE61EF71EC416D506E606C0
:100C5000F70608F44FC04481558166817781C41638
:100C6000D506E606F70608F448C04C155D056E0586
:100C70007F0580F4C41AD50AE60AF70A0190F081CC
:100C8000E02D44815581668177814C155D056E05A7
:100C90007F0580F3CC82DD82EE82FF82F983E883D8
:100CA000A281B381BB83AA83CD93DC93D383C28318
:100CB00084819581A681B7818C199D09AE09BF09F0
:100CC00084839583A683B7838FEF9FEFDC018093A6
:100CD0004A0490934B04A0934C04B0934D04DF91CD
:100CE000CF91FF90EF90DF90CF90BF90AF909F900B
:100CF0008F90089575016401AECFB501A4011DDF89
:100D0000E0914604F09147044481558166817781E2
:100D1000ACCFA5019401BC01CE01DF91CF91FF9032
:100D2000EF90DF90CF90BF90AF909F908F907ECE4E
:100D30000F931F93FC011387028731872087148646
:100D40001586168617861F910F9159CF0F931F9303
:100D5000CF93DF93FC01A081B181809146049091F3
:100D60004704E817F90781F1C281D381B983A883C9
:100D7000A081B1811396DC93CE93129714964D9176
:100D80005D916D917C911797048115812681378142
:100D9000400F511F621F731F14964D935D936D9307
:100DA0007C931797118210828FEF9FEFDC01809365
:100DB0004A0490934B04A0934C04B0934D04DF91EC
:100DC000CF911F910F910895B0934704A0934604CB
:100DD00086E494E013969C938E931297118210826E
:100DE000A0914604B0914704A817B907A9F1149639
:100DF0004D915D916D917C911797048115812681AC
:100E00003781400F511F621F731F14964D935D93DE
:100E10006D937C9317975FD920914E0430914F04C6
:100E20008C01021B130B30E020E0E0914604F091AE
:100E30004704448155816681778104171507260789
:100E4000370708F0BCCF401B510B620B730BDF91CF
:100E5000CF911F910F9171CEDF91CF911F910F9183
:100E600048C94F925F926F927F928F929F92AF92FA
:100E7000BF92CF92DF92EF92FF920F931F93CF9387
:100E8000DF93CC24CA94DC2C76010FC06A857B8565
:100E9000E885F985CE0109958C859D85AE85BF8550
:100EA000892B8A2B8B2B09F05AC0C0914604D09114
:100EB000470411D900914E0410914F044C01801A3F
:100EC000910AB12CA12C4C815D816E817F818416A9
:100ED0009506A606B706F0F0040F151F10934F04F1
:100EE00000934E04EA81FB818881998191838083FC
:100EF000A881B9811396FC93EE93129719821882F8
:100F000080914604909147048654944009F0BECFE6
:100F1000F0D8BCCF20914604309147042654344089
:100F200009F478C090934F0480934E0448195909EE
:100F30006A097B094C835D836E837F83DF91CF9148
:100F40001F910F91FF90EF90DF90CF90BF90AF90E7
:100F50009F908F907F906F905F904F90EECDBBD819
:100F60005C012C01401A510A712C612C8C859D85E5
:100F7000AE85BF8584159505A605B70508F45BC049
:100F80000091460410914704E4E006341E0709F47A
:100F900062C0F801448155816681778148175907FD
:100FA0006A077B0788F4841B950BA60BB70BF80127
:100FB00000811181F801448155816681778148174C
:100FC00059076A077B0778F38C839D83AE83BF83C1
:100FD00019830883F801228133813B832A83F90135
:100FE000D183C083F801D383C28344815581668154
:100FF0007781481B590B6A0B7B0B448355836683AF
:101000007783C0924A04D0924B04E0924C04F09251
:101010004D044BCFDF91CF911F910F91FF90EF9037
:10102000DF90CF90BF90AF909F908F907F906F9008
:101030005F904F90089562E070E080E090E0E1DC26
:10104000009146041091470484E006341807E1F04B
:10105000D301C2019ECF9C01AD0124193509460977
:101060005709B501CE01DF91CF911F910F91FF90EC
:10107000EF90DF90CF90BF90AF909F908F907F9038
:101080006F905F904F90D2CC20E030E0A901E9CF83
:10109000CF93DF93DB011F968C911F978430F1F182
:1010A00080F5882359F1833031F45296ED91FC910B
:1010B0005397118210828FEF9FEF53969C938E93DC
:1010C00052971F961C921F971B96ED91FC911C97AF
:1010D00014969C9114970190F081E02D84818917DA
:1010E000D0F71196FC93EE93C281D3811396DC93D3
:1010F000CE931297B983A883B383A283DF91CF9154
:101100000895873059F08C3049F08530A1F6529619
:10111000ED91FC91539784818F5F84831296ED91BA
:10112000FC9113978D919C91119791838083CD9120
:10113000DC911197FB83EA83BECFCF93DF93DC0171
:101140001F961C921F971B96ED91FC911C9714966D
:101150008C9114970190F081E02D94819817D0F72D
:101160001196FC93EE93C281D3811396DC93CE93B8
:101170001297B983A883B383A283CD01DF91CF9166
:101180000895CF93DF93EFE3F4E065817681DB018F
:101190001F968C9380819181EC01A881B981B183E4
:1011A000A0831396FC93EE93129721E02F879683EA
:1011B000858309D5DF91CF910895DF92EF92FF9259
:1011C0000F931F93CF93DF93CDB7DEB760970FB622
:1011D000F894DEBF0FBECDBFD82EE0904404F0904F
:1011E00045044F3F8FEF58076807780701F18701E3
:1011F00028E438E0CE0101969BDD8D2DC2DF898188
:101200009A81892B19F0CE010196A0DDF701828920
:10121000938960960FB6F894DEBF0FBECDBFDF9105
:10122000CF911F910F91FF90EF90DF9008958D2D3A
:10123000A8DFECCFCF93DF93DC01C0914404D091C1
:10124000450453967C936E93529714962C91149761
:101250009C819217E8F01F961C921F971B96ED91A8
:10126000FC911C970190F081E02D84818217D0F7CA
:101270001196FC93EE93C281D3811396DC93CE93A7
:101280001297B983A883B383A283DF91CF91089586
:101290001F86EB85FC850190F081E02D84819817F5
:1012A000D0F3CD01F983E883A281B381BB83AA8304
:1012B000CD93DC93D383C28321E0FC0127879093F5
:1012C000450480934404BE017ED4DF91CF910895FC
:1012D000A0913F04B0914004E0914404F091450492
:1012E00081E014962C919481921708F080E0089583
:1012F000CF93DF93A0914404B091450440913F0403
:1013000050914004EA01E881F981F0934004E093B0
:101310003F048FE394E09383828381E08F8750932F
:101320004504409344041F961C921F971B96ED9111
:10133000FC911C9714962C9114970190F081E02D4C
:1013400094812917D0F31196FC93EE9382819381B7
:1013500013969C938E931297EC01B983A883B38361
:10136000A283BD01CA012FD4DF91CF910895A0912E
:101370003F04B0914004E0914404F0914504149678
:101380009C918481891708F00895B2CFFFCFCF9246
:10139000DF92FF920F931F93CF93DF93CDB7DEB70A
:1013A0002B970FB6F894DEBF0FBECDBF8C016B013B
:1013B00090933E0480933D04FC01168E158E74A319
:1013C00063A3FF24F394F092880491838083938332
:1013D000828314824996928F818F948F838F178E88
:1013E00010A211A212A242979087878392878187C9
:1013F0008FEF9FEFDC0183879487A587B687108ADC
:1014000017860E946B009C01F801218B328B138A96
:10141000148A158A168A178A108EED5BFF4F118287
:101420001082B8016B5D7F4F20E841E351E0C801B5
:101430002AD0F80196838583FC01F78685E291E046
:101440009A838983F601828193819C838B83848133
:1014500095819E838D83FF8286EC99E099878887AA
:101460001B861A86CE0101969ED02B960FB6F89455
:10147000DEBF0FBECDBFDF91CF911F910F91FF90C7
:10148000DF90CF900895CF93DF93FB01248332E068
:101490003787108A94878387258F148E138E128E38
:1014A00021E0218B568745879B01295F3F4FAC0187
:1014B000475E5F4F50874783EC01AB8DBC8DB28791
:1014C000A1872D933C933C8F2B8FCB014496958B1A
:1014D000848B0296978B868B918F808FCB01DF91C7
:1014E000CF910895CF93DF93DC0114962D913C9119
:1014F0001597F9017E97E901E397D683C58317967F
:101500009C91179718968C9118979A8B898B19969E
:101510009C9119971A968C911A97988B8F8782E1D4
:101520009EE09B8B8C8B16968C9116974D915C91BF
:10153000848392E09787108A6FE374E074876387EF
:10154000858F148E138E128E81E0818B568745878E
:10155000D901579788E594E011969C938E93EB01FF
:101560008B8D9C8D13969C938E931297EC01B9836F
:10157000A883EB01BC8FAB8F1D960B2E11960C929E
:101580001197AC9312960B2E11960C921197AC9367
:101590000A2E1B2E13961C920E9211241297CF0125
:1015A000DF91CF9108959EDFC8CD0F931F93CF9306
:1015B000DF93F8946E517109EC01C60FD71FFE013D
:1015C0007597FE83ED83228B318B008B178782E129
:1015D0009EE0938B848B4C8382E08F87188AEFE3A5
:1015E000F4E0FC87EB874D8F1C8E1B8E1A8E81E0FA
:1015F000898B8AE291E09E878D87CE01079628E548
:1016000034E038872F83A38DB48DBA87A9878D9353
:101610009C93948F838F0D969D8B8C8B02969F8BC2
:101620008E8B998F888F70E060E0CE0103DE789416
:10163000CE01DF91CF911F910F9108950F931F93CA
:10164000CF93DF93C0914404D09145049B8B8A8B48
:101650008E010C5E1F4F8C899D890817190759F060
:10166000FC01208131813D8B2C8B67DD8C899D892C
:1016700080179107A9F7898981110CC0E985FA853E
:101680008F81988591838083AF81B8851396FC9371
:10169000EE9312978FE0DF91CF911F910F9171CD53
:1016A000F894CCCFAB01BC01F89488E086DD789447
:1016B0000895CF93DF93E0914404F09145044115E0
:1016C00051056105710579F091838083EC01AA8150
:1016D000BB81B383A283ED93FC93FB83EA8384E015
:1016E000DF91CF916ACD8FEF9FEFDF91CF9108957A
:1016F000CF93DF93FC0180819181E817F90771F0A6
:10170000EC01A881B981B183A0831396FC93EE9379
:1017100012977B8B6A8BDF91CF910FCDDF91CF91A9
:101720000895FC01918380839383828315821482C0
:1017300008950F931F93CF93DF93EC01009144041E
:1017400010914504EC81FD81309709F47EC0D801E9
:1017500014968C919481981750F4848387858630F1
:1017600009F485C0873071F1882309F45BC09E01BC
:10177000FE0107C09481D80114968C91981708F443
:1017800062C00190F081E02DCE17DF0799F7F801D4
:1017900031832083D9011296ED91FC91D8011396E3
:1017A000FC93EE93129711830083F9011383028354
:1017B0005396DC93CE93529786E0DF91CF911F91A1
:1017C0000F91DFCC2281338180819181D9018D936A
:1017D0009C9380819181DC0113963C932E93129708
:1017E00022893389D90107C014969C91149784816A
:1017F000981708F478C00D90BC91A02D2A173B07CC
:1018000099F731832083D90112968D919C9193830E
:101810008283DC01ED93FC93D9011396FC93EE9344
:101820001297A5CF2281338180819181D9018D9337
:101830009C9380819181DC0113963C932E931297A7
:10184000CF017BDC94CF9F01A2CF1D830C83D801F5
:101850005B968D919C915C979F838E835C96DC93C5
:10186000CE935B97DF91CF911F910F9108952281C5
:10187000338180819181D9018D939C938081918165
:10188000DC0113963C932E93129722893389D90158
:1018900006C014969C9114978481981730F10D908E
:1018A000BC91A02D2A173B07A1F731832083D901D2
:1018B00012968D919C9193838283DC01ED93FC932E
:1018C000D9011396FC93EE9312970288F389E02DC9
:1018D0000480F581E02DD80114968C91948198179D
:1018E00008F43BCF44CF9D018CCF9D01DECFF8940F
:1018F00020DF78940895CF93DF93C0914404D09172
:101900004504F894DC011696ED91FC911797FC8F35
:10191000EB8F2D913C912817390781F13D8D309740
:1019200079F0A081B181EA17FB0729F014962C9178
:10193000321708F4322F0680F781E02D309789F7AF
:10194000FC013C83A081B181CD91DC911197D183C1
:10195000C0839B838A83B583A4835B968D919C917E
:101960005C97978386835C96FC93EE935B97CD019F
:10197000E4DBFDDC7894DF91CF910895F9011582C5
:1019800014827894DF91CF910895CF93DF93EC0187
:101990002091440430914504EE81FF81D9015C9689
:1019A000FC93EE935B97A881B981A817B90761F101
:1019B000D9015D969C91309779F0A081B181EA17A9
:1019C000FB0729F014968C91981708F4982F06803D
:1019D000F781E02D309789F7F9019483E881F98147
:1019E000A081B181B983A8831396DC93CE9312971B
:1019F000FD83EC83838D948D9F838E83D48FC38FDF
:101A0000CF01DF91CF9199CB15961C921E9214971E
:101A1000DF91CF910895FC0191838083938382832A
:101A20000895CF93DF93FC01F89480819181E817AA
:101A3000F90761F0EC01A881B981B183A083139605
:101A4000FC93EE93129770E060E0F4DB7894DF9102
:101A5000CF910895EF92FF920F931F93CF93DF934F
:101A60008C01C0914404D0914504EB8CFC8CC701DF
:101A70008CDF1B8B0A8BD801F80104C094818C8108
:101A8000981718F10190F081E02D0E171F07B1F79C
:101A9000B983A8831296ED91FC911397FB83EA8397
:101AA000D183C0831396DC93CE93129787E069DBD2
:101AB0000A88DB89C02DC7013CDECE01DF91CF91C2
:101AC0001F910F91FF90EF900895DF01E1CFF894FF
:101AD000C1DF78940895FC01828D682B628F878521
:101AE0008A3059F08B3009F0089582896823861373
:101AF000FBCF138A128ACF0120CB82896823C9F7D2
:101B00000895EF92FF921F93CF93DF937C01162FDE
:101B1000FC01C081D1818C179D0791F08D81812BB3
:101B20008D83112319F08E81812321F06C818A81AC
:101B30009B81D1DF0990D881C02DEC16FD0671F78D
:101B4000DF91CF911F91FF90EF900895E4E8F4E0CA
:101B500087EC91E09183808387E492E09383828392
:101B60000895F894E0918604F09187049F01281B62
:101B7000390BC901719561957109862397239C01E1
:101B8000241B350B4091840450918504241735079C
:101B900048F0E217F30730F030938704209386046F
:101BA0007894089590E080E078940895E7E4F2E076
:101BB00081EB9DE0918380831382128215821482CF
:101BC0008DE492E0AECD2F923F924F925F926F9252
:101BD0007F928F929F92AF92BF92CF92DF92EF92BD
:101BE000FF920F931F93CF93DF93FB010DB60582F6
:101BF0000EB60682FC0105800DBE06800EBEDF918A
:101C0000CF911F910F91FF90EF90DF90CF90BF90F9
:101C1000AF909F908F907F906F905F904F903F908C
:101C20002F9008957894C201F101099539CD089556
:101C300081E08093DC02089585EE92E072DD81EE12
:101C400092E0E9DE8DED92E0E6DE83EF92E09093A4
:101C5000F0028093EF029093F2028093F1021092CF
:101C6000EE021092ED020895CF93DF93EC0185EE22
:101C700092E03DDE8091ED029091EE028038910578
:101C800050F08DED92E023DF8091ED029091EE0215
:101C900080389105B0F7E091EF02F091F002C19326
:101CA000D19323E0E33FF20798F023EF32E0309343
:101CB000F0022093EF0201969093EE028093ED02E2
:101CC00081EE92E0AEDE85EE92E0DF91CF9113CE11
:101CD000F093F002E093EF02EECFCF93DF9385EE27
:101CE00092E005DE8091ED029091EE02009749F4BA
:101CF00081EE92E0ECDE8091ED029091EE02009791
:101D0000B9F3E091F102F091F202C191D19123E097
:101D1000E33FF207A8F023EF32E03093F202209382
:101D2000F10201979093EE028093ED028DED92E027
:101D300078DE85EE92E0DFDDCE01DF91CF91089570
:101D4000F093F202E093F102ECCFCF93DF93CDB7A3
:101D5000DEB760970FB6F894DEBF0FBECDBF1A8214
:101D60001982EE24E394F12CBB24B39456E0952E13
:101D70006BE0862E7AE0A72EE8E02E2EF7E03F2ECD
:101D80001DC063E083E290E00E94E0030E94E7034D
:101D9000782E63E083E290E00E94E0030E94E50376
:101DA000FC019281970101C0220F7A94EAF7922BED
:101DB00092836BE176E080E090E074DCE0910101D9
:101DC000E150EC30F0F6F0E0E851F14F0C947A1964
:101DD0002312ED11AD113711C10EBB107B1006108F
:101DE000C10E9F0F570FF40EF89489819A81892BA9
:101DF00021F0CE0101960E94A6068E010F5F1F4FB3
:101E000028E13EE040E15AE760E070E0C8010E944E
:101E1000980678948091DC02811129C062E083E207
:101E200090E00E94E0030E94E503FC01728062E002
:101E300083E290E00E94E0030E94E703682E62E0E4
:101E400083E290E00E94E0030E94E503970101C055
:101E5000220F6A94EAF77226FC01728261EA77E047
:101E600080E090E01FDC8091DC028823B9F21092C0
:101E7000DC02B092010162E083E290E00E94E003A4
:101E80000E94E703782E62E083E290E00E94E00384
:101E90000E94E503FC019281970101C0220F7A9410
:101EA000EAF7922B928382E08093000182CFF8942C
:101EB00089819A81892B21F0CE0101960E94A60684
:101EC0008E010F5F1F4F28E13EE040E15AE760E0DE
:101ED00070E0C8010E94980678948091DC0281111C
:101EE00029C062E083E290E00E94E0030E94E503E3
:101EF000FC01728062E083E290E00E94E0030E94B5
:101F0000E703682E62E083E290E00E94E0030E9413
:101F1000E503970101C0220F6A94EAF77226FC01DB
:101F2000728261EA77E080E090E0BCDB8091DC02C5
:101F30008823B9F21092DC02909201019CCF62E0FA
:101F400083E290E00E94E0030E94E703782E62E0C3
:101F500083E290E00E94E0030E94E503FC0192818D
:101F6000970102C0220F331F7A94E2F72095309533
:101F70009223928363E083E290E00E94E0030E9458
:101F8000E703782E63E083E290E00E94E0030E9482
:101F9000E503FC019281970101C0220F7A94EAF7D0
:101FA000922B9283F89489819A81892B21F0CE011A
:101FB00001960E94A6068E010F5F1F4F28E13EE0AA
:101FC00048E157EB60E070E0C8010E949806789401
:101FD0008091DC02882371F011C3049711F4B09250
:101FE00089046BE176E080E090E05CDB8091DC02CC
:101FF000811104C3E091F102F091F202808191819C
:102000008330910551F7B0928A04EBCF65E089E205
:1020100090E00E94E0030E94E703782E65E089E2E9
:1020200090E00E94E0030E94E503FC019281970189
:1020300001C0220F7A94EAF7922B9283F894898157
:102040009A81892B21F0CE0101960E94A6068E016D
:102050000F5F1F4F28E13EE040E15AE760E070E08B
:10206000C8010E94980678948091DC02811109C011
:102070006BE176E080E090E015DB8091DC02882364
:10208000B9F31092DC02B092010165E089E290E0C0
:102090000E94E0030E94E703782E65E089E290E069
:1020A0000E94E0030E94E503FC019281970102C0B7
:1020B000220F331F7A94E2F7209530959223928372
:1020C00060E083E290E00E94E0030E94E703782E44
:1020D00060E083E290E00E94E0030E94E503FC01DF
:1020E0009281970101C0220F7A94EAF7922B928392
:1020F000B09200015ECE65E089E290E00E94E003CC
:102100000E94E703782E65E089E290E00E94E003F8
:102110000E94E503FC019281970101C0220F7A948D
:10212000EAF7922B9283F89489819A81892B21F086
:10213000CE0101960E94A6068E010F5F1F4F28E177
:102140003EE040E15AE760E070E0C8010E94980676
:1021500078948091DC02811109C06BE176E080E027
:1021600090E0A0DA8091DC028823B9F31092DC02BF
:10217000A09201018ACF60E083E290E00E94E00338
:102180000E94E703782E60E083E290E00E94E00383
:102190000E94E503FC019281970102C0220F331FC8
:1021A0007A94E2F7209530959223928361E083E25E
:1021B00090E00E94E0030E94E703782E61E083E252
:1021C00090E00E94E0030E94E503FC0192819701E8
:1021D00001C0220F7A94EAF7922B9283809100013A
:1021E000853009F492C290E3492E9EE6592E66246A
:1021F0006394712CF89489819A81892B21F0CE0106
:1022000001960E94A6068E010F5F1F4F28E13EE057
:10221000B301A201C8010E94980678948091DC0263
:10222000882369F0BEC1049709F4B3C16BE176E07D
:1022300080E090E037DA8091DC028111B2C1E09158
:10224000F102F091F202808191818330910559F77A
:10225000B0928A04F89489819A81892B21F0CE0169
:1022600001960E94A6067894B092DC02DFCF64E06B
:1022700089E290E00E94E0030E94E703782E64E088
:1022800089E290E00E94E0030E94E503FC01928154
:10229000970101C0220F7A94EAF7922B9283F89467
:1022A00089819A81892B21F0CE0101960E94A60690
:1022B0008E010F5F1F4F28E13EE040E15AE760E0EA
:1022C00070E0C8010E94980678948091DC02811128
:1022D00009C06BE176E080E090E0E4D98091DC0217
:1022E0008823B9F31092DC029092010164E089E244
:1022F00090E00E94E0030E94E703782E64E089E208
:1023000090E00E94E0030E94E503FC0192819701A6
:1023100002C0220F331F7A94E2F720953095922362
:10232000928366E089E290E00E94E0030E94E70366
:10233000782E66E089E290E00E94E0030E94E503C7
:10234000FC019281970101C0220F7A94EAF7922B47
:10235000928385E0809300012CCD64E089E290E0D7
:102360000E94E0030E94E703782E64E089E290E097
:102370000E94E0030E94E503FC019281970101C0E5
:10238000220F7A94EAF7922B9283F89489819A81AA
:10239000892B21F0CE0101960E94A6068E010F5FC7
:1023A0001F4F28E13EE040E15AE760E070E0C801DD
:1023B0000E94980678948091DC02811109C06BE13B
:1023C00076E080E090E06ED98091DC028823B9F35A
:1023D0001092DC02A092010189CF7FDC6C0183E0C6
:1023E000C816D10409F444C180918A0491E0C91649
:1023F000D10409F439C1E4E0CE16D10409F0D1C109
:102400008111D7CCB092890484E08093010167E008
:1024100089E290E00E94E0030E94E703782E67E0E3
:1024200089E290E00E94E0030E94E503FC019281B2
:10243000970102C0220F331F7A94E2F7209530955E
:1024400092239283B6CC66E089E290E00E94E0039A
:102450000E94E703782E66E089E290E00E94E003A4
:102460000E94E503FC019281970102C0220F331FF5
:102470007A94E2F7209530959223928367E089E27F
:1024800090E00E94E0030E94E703782E67E089E273
:1024900090E00E94E0030E94E503FC019281970115
:1024A00001C0220F7A94EAF7922B928360E083E2D4
:1024B00090E00E94E0030E94E703782E60E083E250
:1024C00090E00E94E0030E94E503FC0192819701E5
:1024D00001C0220F7A94EAF7922B928362E083E2A2
:1024E00090E00E94E0030E94E703782E62E083E21E
:1024F00090E00E94E0030E94E503FC0192819701B5
:1025000001C0220F7A94EAF7922B92838091000106
:10251000813009F4B8C030E5432E32E6532E32E064
:10252000632E712CF89489819A81892B21F0CE0138
:1025300001960E94A6068E010F5F1F4F28E13EE024
:10254000B301A201C8010E94980678948091DC0230
:10255000882351F04DC06BE176E080E090E0A2D896
:102560008091DC02811144C0E091F102F091F2020D
:1025700080819181049779F7F89489819A81892BD8
:1025800021F0CE0101960E94A6067894B092DC025A
:10259000E2CF80918904811149CE9FDBB0928904FA
:1025A00045CE1092DC028091890407C096DB6C0155
:1025B000049709F440C0809189048111F7CF80917C
:1025C000ED029091EE02892BF1F580918A04882327
:1025D00009F43FC02092010161E083E290E00E9493
:1025E000E0030E94E703782E61E083E290E01ACFD7
:1025F0001092DC0282E080930101DBCB1092DC02BE
:102600008091ED029091EE02892BD1F591E0C916EF
:10261000D10439F1E4E0CE16D10419F1FCE0F093D5
:10262000010163E083E290E00E94E0030E94E7037F
:10263000782E63E0DACF109289048091ED029091B8
:10264000EE02892B11F249DB6C0180918A04811121
:10265000C1CF82E0C816D10409F0BCCF309201018D
:10266000BBCF80920101DDCF882309F4CDCEA1CB71
:1026700081E090918A04911180E080938A0499CB43
:102680002CDB6C01C3CFF89489819A81892B21F0CE
:10269000CE0101960E94A6068E010F5F1F4F28E112
:1026A0003EE048E251E361E070E0C8010E94980614
:1026B00078948091DC02882359F01AC06BE176E0AF
:1026C00080E090E00E94520B8091DC02811110C0EA
:1026D000E091F102F091F20280819181039771F70C
:1026E00081E090918A04911180E080938A04E6CF82
:1026F0008091000128E2422E21E3522E6624639449
:10270000712C813009F40ECF06CFF89489819A811B
:10271000892B21F0CE0101960E94A6068E010F5F43
:102720001F4F28E13EE048E251E361E070E0C8015C
:102730000E94980678948091DC02882369F025C075
:102740000397D9F06BE176E080E090E00E94520BB5
:102750008091DC02811119C0E091F102F091F20246
:10276000808191818430910559F78091890481118C
:10277000E9CFB3DAB0928904E5CF80918A04811160
:10278000E1CFABDAB0928A04DDCF809100018530D1
:1027900009F029CD88E0482E8DE3582E612C712C4C
:1027A00029CD811106CBF2E0CF16D10409F001CB7F
:1027B00083E02BCECF92DF92EF92CF936B01E82E86
:1027C000413069F1423009F447C0433009F461C037
:1027D000443041F081E082278923CF91EF90DF9050
:1027E000CF9008950E94E503FC01C0818E2DB601B3
:1027F0000E94E7032C2F30E002C0359527958A957B
:10280000E2F721709091550292272093550281E0C2
:1028100082278923CF91EF90DF90CF9008950E9477
:10282000E503FC01C0818E2DB6010E94E7032C2F29
:1028300030E002C0359527958A95E2F72170909196
:10284000580292272093580281E082278923CF9152
:10285000EF90DF90CF9008950E94E503FC01C081C6
:102860008E2DB6010E94E7032C2F30E002C0359573
:1028700027958A95E2F7217090915702922720932D
:10288000570281E082278923CF91EF90DF90CF908C
:1028900008950E94E503FC01C0818E2DB6010E94BF
:1028A000E7032C2F30E002C0359527958A95E2F793
:1028B00021709091560292272093560281E0822740
:1028C0008923CF91EF90DF90CF900895CF93DF933E
:1028D00000D01F92CDB7DEB78FEC90E09A8389834A
:1028E00083E08B83A9D90E9463000E94E904BE01A2
:1028F0006F5F7F4F83EF93E00E945B0362E086E2AD
:1029000090E00E94E0030E94E703F82E62E086E276
:1029100090E00E94E0030E94E50301E010E0B801AE
:1029200001C0660FFA94EAF743E00E94BC0364E03A
:1029300086E290E00E94E0030E94E703F82E64E044
:1029400086E290E00E94E0030E94E503B80101C026
:10295000660FFA94EAF743E00E94BC0363E086E264
:1029600090E00E94E0030E94E703F82E63E086E215
:1029700090E00E94E0030E94E503B80101C0660FE9
:10298000FA94EAF743E00E94BC0365E086E290E037
:102990000E94E0030E94E703F82E65E086E290E0E3
:1029A0000E94E0030E94E503B80101C0660FFA949B
:1029B000EAF743E00E94BC0363E083E290E00E94F8
:1029C000E0030E94E703F82E63E083E290E00E94B8
:1029D000E0030E94E503B80101C0660FFA94EAF72C
:1029E00046E00E94BC0363E083E290E00E94E003C3
:1029F0000E94E703F82E63E083E290E00E94E00388
:102A00000E94E503FC019281980102C0220F331F4E
:102A1000FA94E2F7209530959223928362E083E264
:102A200090E00E94E0030E94E703F82E62E083E258
:102A300090E00E94E0030E94E503B80101C0660F28
:102A4000FA94EAF746E00E94BC0362E083E290E079
:102A50000E94E0030E94E703F82E62E083E290E028
:102A60000E94E0030E94E503FC019281980102C0EC
:102A7000220F331FFA94E2F7209530959223928328
:102A800067E089E290E00E94E0030E94E703F82EED
:102A900067E089E290E00E94E0030E94E503B8014C
:102AA00001C0660FFA94EAF746E00E94BC0367E0B3
:102AB00089E290E00E94E0030E94E703F82E67E0BD
:102AC00089E290E00E94E0030E94E503FC0192810C
:102AD000980102C0220F331FFA94E2F72095309537
:102AE0009223928364E089E290E00E94E0030E94D6
:102AF000E703F82E64E089E290E00E94E0030E9480
:102B0000E503B80101C0660FFA94EAF746E00E94B7
:102B1000BC0364E089E290E00E94E0030E94E703C6
:102B2000F82E64E089E290E00E94E0030E94E50351
:102B3000FC019281980102C0220F331FFA94E2F740
:102B4000209530959223928366E089E290E00E947E
:102B5000E0030E94E703F82E66E089E290E00E941D
:102B6000E0030E94E503B80101C0660FFA94EAF79A
:102B700046E00E94BC0366E089E290E00E94E00328
:102B80000E94E703F82E66E089E290E00E94E003ED
:102B90000E94E503FC019281980102C0220F331FBD
:102BA000FA94E2F7209530959223928361E083E2D4
:102BB00090E00E94E0030E94E703F82E61E083E2C8
:102BC00090E00E94E0030E94E503B80101C0660F97
:102BD000FA94EAF746E00E94BC0361E083E290E0E9
:102BE0000E94E0030E94E703F82E61E083E290E098
:102BF0000E94E0030E94E503FC019281980102C05B
:102C0000220F331FFA94E2F7209530959223928396
:102C100065E089E290E00E94E0030E94E703F82E5D
:102C200065E089E290E00E94E0030E94E503B801BC
:102C300001C0660FFA94EAF746E00E94BC0365E023
:102C400089E290E00E94E0030E94E703F82E65E02D
:102C500089E290E00E94E0030E94E503FC0192817A
:102C6000980102C0220F331FFA94E2F720953095A5
:102C70009223928360E083E290E00E94E0030E944E
:102C8000E703F82E60E083E290E00E94E0030E94F8
:102C9000E503B80101C0660FFA94EAF746E00E9426
:102CA000BC0360E083E290E00E94E0030E94E7033F
:102CB000F82E60E083E290E00E94E0030E94E503CA
:102CC000FC019281980102C0220F331FFA94E2F7AF
:102CD000209530952923228310E000E025EA3EE08C
:102CE00040E863E870E089E592E00E94D50A0AC0F6
:102CF00084E090E00E94340E6EE073E080E090E0AB
:102D00000E94520B65E086E290E00E94E00341E001
:102D100051DD8111EDCF63E086E290E00E94E00397
:102D200042E048DD882329F083E090E00E94340EE1
:102D3000E3CF64E086E290E00E94E00343E03ADD06
:102D4000882329F081E090E00E94340ED5CF62E024
:102D500086E290E00E94E00344E02CDD882361F2EB
:102D600082E090E00E94340EC7CFABE0B0E0EAEB27
:102D7000F6E1CAC26C017B013A01FC01178216829E
:102D8000838181FFFFC0CE0101964C01F601B38023
:102D9000F701B3FC0591B3FE01917F01002341F1DE
:102DA000053239F4B3FC0591B3FE01917F01053280
:102DB00039F5B601802F90E032D353013501E6CFCB
:102DC0001068F701B3FC0591B3FE01917F0117FD77
:102DD0000DC0002369F0602F70E08FE690E0CFD245
:102DE000892B79F7033251F00C3651F301110AC0E7
:102DF000F601868197812B96EEE0A2C210E1E1CF29
:102E000010E0E5CF602F70E088E690E0B8D2892B23
:102E100049F05301F4E0AF0EB11CB6018FE390E02E
:102E2000FED2CCCF033609F452C0033709F459C09F
:102E3000033509F455C0043619F0093609F070C09D
:102E4000530117FF62C0F4E0AF0EB11CF3016081C3
:102E50007181828193811F7E97FF08C09095809534
:102E6000709561957F4F8F4F9F4F10642AE030E03F
:102E7000A4011DD3082F081916FF04C0B6018DE266
:102E800090E0CDD214FF13C0FE01E00FF11D808150
:102E9000803369F0B60180E390E0C1D212FF07C031
:102EA0001072812F90E0B601885A9F4FB8D201501E
:102EB00010E00F5F1F4F080D191DF80182918F015F
:102EC000B60190E0ACD208151905B9F777CF5301D8
:102ED00082E0A80EB11CB601F30180819181A0CFE0
:102EE00011605301F2E0AF0EB11CF30160807180FC
:102EF000F30110FD859110FF81913F01882309F4B2
:102F00005DCFB60190E08BD2F3CFF2E0AF0EB11CF3
:102F1000F30160817181072E000C880B990B9BCF08
:102F2000003709F140F4083501F10F3609F060CFA0
:102F300028E030E00CC0053739F0083709F058CFE9
:102F4000146220E130E003C01F7E2AE030E053012C
:102F500017FF0FC0F4E0AF0EB11CF3016081718167
:102F60008281938185CF1061EBCF146020E132E044
:102F7000EECFF2E0AF0EB11CF3016081718190E001
:102F800080E076CF8FEF9FEF36CF20FD09C0FC01A8
:102F900023FD05C022FF02C07383628351834083F7
:102FA000089544FD17C046FD1DC0DB01FC01AA0FBA
:102FB000BB1FEE1FFF1F1094D1F76A0F7B1F8E1FE0
:102FC0009F1F660F771F881F991F620F711D811D3C
:102FD000911D089533E0660F771F881F991F3150A8
:102FE000D1F7F3CF34E0F7CF0F931F93CF93DF9355
:102FF0008C01C801D8D1EC0197FD06C0B8D1892B4E
:10300000C1F7B801CE013BD2CE01DF91CF911F9124
:103010000F9108958F929F92AF92BF92EF92FF927D
:103020000F931F93CF93DF938C01D62F7A01B22E8B
:10303000BAD19C0133272B32310529F02D323105CD
:10304000A1F46894B7F8D15061F480E0DF91CF919A
:103050001F910F91FF90EF90BF90AF909F908F9036
:103060000895C801A0D197FDF0CFCB2DCD7F2B2D9A
:103070002073E9F48033D9F4AA24AA94AD0E79F030
:10308000C80191D197FD0BC0282F2F7D283559F409
:10309000C264D25021F0C80186D197FF08C0812CAC
:1030A000912C54011AC0B6FE29C0C260DA2D812CC1
:1030B000912C540120ED280F283018F1C4FD09C0CF
:1030C0002A30F8F0C6FF05C02F7D3FEE320F3630B4
:1030D000B8F0B801D4D1C1FFB8CFC7FF08C0B094D1
:1030E000A09490948094811C911CA11CB11C2C2F45
:1030F000B501A401C70149DF81E0A8CFC261D6CFE5
:1031000027504C2FC501B4014CDF4B015C01C2605C
:10311000D15019F3C80147D197FFCCCFDCCFB0E035
:10312000A0E0E4E9F8E1EFC06C01EB015A01FC0119
:1031300017821682512CF601F380FE01F3FC859173
:10314000F3FE8191182FEF018823C9F090E00FD191
:10315000892B19F0C60148DFEECF153241F4FE018C
:10316000F3FC1591F3FE1191EF01153259F4C601EC
:103170001AD197FD98C01817F1F2B60180D1852DAC
:1031800090E095C000E01A3231F4F3FC1591F3FEA3
:103190001191EF0101E0E12C20ED210F2A3038F1EF
:1031A00001FF34C0EE2059F3183699F11C3609F4AA
:1031B0003AC0112321F3612F70E08FE790E0DFD058
:1031C000892BE9F2912C812C00FD06C0F50180804D
:1031D0009180C50102965C011E3669F5F6014681B3
:1031E000578170E060E0202FC401CFDEA4CF0260E1
:1031F0006E2D70E090E080E040E2D3DEE62EFE012E
:10320000F3FC1591F3FE1191EF01C6CFEE24EA9481
:10321000CBCFFE01F3FC1591F3FE1191EF011836AF
:1032200009F0C7CF08600460FE01F3FC1591F3FEBE
:103230001191EF01BECF1336B9F401FD02C0EE24A7
:10324000E394C601B0D097FD2EC08114910429F0FB
:10325000F4018083C40101964C01EA94E110F1CF9E
:1032600000FD69CF539467CFC601BEDE97FD1BC03A
:103270001F3609F43DC030F4143641F0193639F0E8
:10328000006405C0133711F11537D1F70062202F04
:10329000A4016E2DC601BEDE8111E2CFF60183814D
:1032A000807309F46CCF8FEF9FEF511068CFCDB7CB
:1032B000DEB7EFE044C08114910429F0F40160828C
:1032C000C40101964C01EA94EE2059F0C6016BD07E
:1032D0003C0197FD06C04BD0892B69F3B601C301B1
:1032E000CED08114910409F4BBCFF4011082B8CF81
:1032F0000061CDCFEE0FFF1F0590F491E02D0994F2
:103300002F923F924F925F926F927F928F929F92F5
:10331000AF92BF92CF92DF92EF92FF920F931F93E3
:10332000CF93DF93CDB7DEB7CA1BDB0B0FB6F89494
:10333000DEBF0FBECDBF09942A88398848885F84D4
:103340006E847D848C849B84AA84B984C884DF8045
:10335000EE80FD800C811B81AA81B981CE0FD11D29
:103360000FB6F894DEBF0FBECDBFED0108959111E9
:10337000FCC0803219F089508550D0F70895FC01C7
:103380000590061621F00020D9F7C0010895319765
:10339000CF010895FB01DC0102C001900D92415064
:1033A0005040D8F70895CF93DF93EC012B8120FF95
:1033B0001AC026FF0CC02F7B2B838E819F81019624
:1033C0009F838E838A8190E0DF91CF91089522FFC1
:1033D00018C0E881F9818081082E000C990B0097B4
:1033E00029F420622B838FEF9FEFEECF3196F98384
:1033F000E8832E813F812F5F3F4F3F832E839927A4
:10340000E3CFEA85FB85099597FFF3CF2B810196E2
:1034100021F080E2822B8B83E6CF80E1FBCF0F93FC
:103420001F93CF93DF93182F092FEB018B8181FD21
:1034300009C01FEF0FEF812F902FDF91CF911F91C8
:103440000F91089582FF14C02E813F818C819D8150
:10345000281739073CF4E881F981CF010196998357
:10346000888310838E819F8101969F838E83E3CF13
:10347000E885F985812F0995892BA1F3DACFFB0126
:10348000238120FF11C026FD0FC08F3F980771F0E8
:1034900082832F7D20642383268137812150310947
:1034A00037832683992708958FEF9FEF0895FA01B8
:1034B000AA27283051F1203181F1E8946F936E7F73
:1034C0006E5F7F4F8F4F9F4FAF4FB1E03ED0B4E064
:1034D0003CD0670F781F891F9A1FA11D680F791FA5
:1034E0008A1F911DA11D6A0F711D811D911DA11DB6
:1034F00020D009F468943F912AE0269F11243019C6
:10350000305D3193DEF6CF010895462F4770405D60
:103510004193B3E00FD0C9F7F6CF462F4F70405D0F
:103520004A3318F0495D31FD4052419302D0A9F76A
:10353000EACFB4E0A6959795879577956795BA9564
:10354000C9F700976105710508959B01AC010A2E2A
:1035500006945795479537952795BA95C9F7620F01
:10356000731F841F951FA01D08959927882708950C
:04357000F894FFCFFD
:10357400020100000E03FD0221031A031F031803B6
:103584000703F6022603FF20FF00FF026330001C3E
:10359400015C01C70169646C65006E6F6E616D65E5
:1035A400006D61696E002B043802021E04050709D0
:1035B4000D000F10000000000000001504010001C0
:0C35C400000000000000050007191D1F9A
:00000001FF
