:1000000044C000005FC000005DC000005BC0000095
:1000100059C0000057C0000055C0000053C0000088
:1000200051C000004FC000004DC0000067C3000079
:1000300049C0000047C0000045C0000043C00000A8
:1000400041C000003FC00000A1C30000DDC30000AC
:1000500039C0000037C0000035C0000033C00000C8
:1000600031C000002FC0000045464765666700208C
:100070002B2D2E3031323334353637383968006322
:1000800064696E6F70737578580011241FBECFEFCE
:10009000D8E0DEBFCDBF11E0A0E0B1E0E2EDFDE1D0
:1000A00002C005900D92A237B107D9F723E0A2E76D
:1000B000B1E001C01D92A238B207E1F70E94C60A62
:1000C0000C94E70E9DCF0BD384E191E009D38CD241
:1000D00002D300C03EC380918400909185000895B2
:1000E000909389008093880082E086BB80936F00A4
:1000F000089510926F00089590938900809388006E
:100100000895AF92BF92CF92DF92EF92FF920F933A
:100110001F93CF93DF93EC016B018A018C819D814A
:100120008417950710F40C811D816C857D85E8840A
:10013000F984E61AF70A0E151F0598F1E016F10684
:10014000D0F0A801C6010E94F90D8E819F819D8784
:100150008C878C819D81801B910B9D838C83C80132
:10016000DF91CF911F910F91FF90EF90DF90CF9093
:10017000BF90AF900895A701C6010E94F90D5801E4
:10018000AE18BF086E817F81A501C6018E0D9F1D2F
:100190000E94F90D4E815F814A0D5B1D5D874C8782
:1001A000D8CFA801C6010E94F90D8C859D85800FCE
:1001B000911F9D878C87CDCFAF92BF92CF92DF9258
:1001C000EF92FF920F931F93CF93DF93EC016B019C
:1001D0008A018C819D818417950710F40C811D8103
:1001E0008A859B85E884F984E81AF90A0E151F05AB
:1001F00098F1E016F106D0F0A801B6010E94F90DC1
:100200008E819F819B878A878C819D81801B910B2A
:100210009D838C83C801DF91CF911F910F91FF9037
:10022000EF90DF90CF90BF90AF900895A701B601F7
:100230000E94F90D5801AE18BF08B6016E0D7F1D62
:10024000A5018E819F810E94F90D4E815F814A0D2B
:100250005B1D5B874A87D8CFA801B6010E94F90DC4
:100260008A859B85800F911F9B878A87CDCF0F93AF
:100270001F93FC0191838083938382831582148270
:10028000778366837587648773876287640F751FBA
:100290007187608737872687118B008B1F910F919D
:1002A0000895FC01A285B38584859585A817B907B3
:1002B000E9F084819581019695838483CD0101962F
:1002C000938782876C932285338580859185281753
:1002D000390720F08681978193878287CF0170E06C
:1002E00060E00E94E80990E080E0089584819581B3
:1002F000892BF9F28FEF9FEF08950F931F93CF9300
:10030000DF93EC018B01F89406C0B801CE010E9486
:10031000CB0997FD27C08C819D81892BB1F38C81FE
:100320009D8101979D838C83EC85FD85CF0101968E
:100330009D878C871081288539858217930720F047
:100340008E819F819D878C87EE85FF85309711F088
:10035000CE0109957894812F90E0DF91CF911F9184
:100360000F9108957894DF91CF911F910F91089587
:100370006F927F928F929F92AF92BF92CF92DF92B5
:10038000EF92FF920F931F93CF93DF936C017B014A
:100390004A013901FC01A684B784F894411551053E
:1003A000B9F08A01A801B701C601ABDEEC01892BC7
:1003B00001F1A114B10419F0C601F5010995789471
:1003C0000C1B1D0BEC0EFD1EF8940115110551F7C9
:1003D000C4017894DF91CF911F910F91FF90EF901E
:1003E000DF90CF90BF90AF909F908F907F906F9055
:1003F0000895B301C601CFD7892BA1F2C401801B98
:10040000910BE7CF0F931F93FC019183808393831C
:100410008283558344837783668375876487738774
:100420006287640F751F7187608737872687118BF6
:10043000008B1F910F910895FF920F931F93CF93FD
:10044000DF93EC01F62E8A01F89405C0B801CE01C5
:10045000A2D797FD2AC08C819D81892BB9F38C810D
:100460009D8101979D838C83EA85FB85CF01019651
:100470009B878A87F0822A853B85888599852817FE
:10048000390720F08E819F819B878A87EE85FF85C3
:10049000309711F0CE010995789490E080E0DF91DB
:1004A000CF911F910F91FF9008957894DF91CF9194
:1004B0001F910F91FF900895CF93FC01A485B585FE
:1004C000828593858A179B07E1F084819581019647
:1004D00095838483CD01019695878487CC9120856F
:1004E00031858217930740F4CF0170E060E070D748
:1004F0008C2F90E0CF91089586819781958784878E
:10050000F3CF84819581892B01F38FEF9FEFCF91FA
:1005100008956F927F928F929F92AF92BF92CF92E7
:10052000DF92EF92FF920F931F93CF93DF936C01B3
:100530007B014A013901FC01A684B784F894411576
:100540005105B9F08A01A801B701C60135DEEC01F9
:10055000892B01F1A114B10419F0C601F501099527
:1005600078940C1B1D0BEC0EFD1EF8940115110563
:1005700051F7C4017894DF91CF911F910F91FF90B3
:10058000EF90DF90CF90BF90AF909F908F907F9033
:100590006F900895B301C601FED6892BA1F2C40164
:1005A000801B910BE7CF0596E3CE2FEF3FEF05962B
:1005B000DFCE4796AECF2FEF3FEF4796AACF0596F7
:1005C0009CCE6FEF7FEF059698CE479635CF4FEFD5
:1005D0005FEF479631CF6130710519F08CEE9FEFD8
:1005E000089590E080E0089546C1EF92FF920F9346
:1005F0001F93CF93DF93EC019B017A01FC0180E014
:1006000091E081939193FB83EA8381E08C83BE0127
:10061000675D7F4F8E0140E150E0CE01059627DEF9
:10062000BE01675C7F4F970140E150E0CE014796E5
:10063000E9DEDF91CF911F910F91FF90EF90089528
:10064000CF93DF93EC01F8941DD182E08C837894F2
:1006500090E080E0DF91CF9108951F93CF93DF93D7
:10066000EC01162F89859A85892B51F0612FCE01D7
:10067000059617DE97FD0EC0DF91CF911F9108956B
:1006800064E0CE010296DBD6612FCE01059609DE2D
:1006900097FFF2CF60E0CE010296DF91CF911F91DC
:1006A000CEC60F931F93CF93DF938C01479604DF41
:1006B000EC0197FD06C0CE01DF91CF911F910F9104
:1006C000089568E0C8010296BAD6CE01DF91CF91B5
:1006D0001F910F910895109269001DBA0895089511
:1006E000FC01808185B9818184B9828188B9838147
:1006F00087B984818BB985818AB908951F920F9239
:100700000FB60F9211242F933F934F935F936F93E4
:100710007F938F939F93AF93BF93EF93FF9381E06A
:100720008093810300D11092810357D4811165D445
:10073000FF91EF91BF91AF919F918F917F916F91B9
:100740005F914F913F912F910F900FBE0F901F908F
:10075000189510928000E1E8F0E088E08083109224
:1007600082001092890010928800109285001092E9
:10077000840082E086BB10926F0085E0808308953C
:10078000E1ECF0E080818062808308951F920F92F7
:100790000FB60F9211242F933F934F935F936F9354
:1007A0007F938F939F93AF93BF93EF93FF9381E0DA
:1007B000809381038091C000982F9C7141F060E28A
:1007C00082FF60E084FD1EC080EF92E038D6609129
:1007D000C6008EEE92E041DF10928103FED38111BC
:1007E0000CD4FF91EF91BF91AF919F918F917F9129
:1007F0006F915F914F913F912F910F900FBE0F908E
:100800001F9018956064E0CF1F920F920FB60F9261
:1008100011242F933F934F935F936F937F938F9305
:100820009F93AF93BF93EF93FF9381E080938103F6
:100830008EEE92E036DF97FD18C08093C6001092CE
:100840008103CBD38111D9D3FF91EF91BF91AF91A8
:100850009F918F917F916F915F914F913F912F91D8
:100860000F900FBE0F901F9018958091C1008F7D43
:100870008093C100E4CF40EC53E070E060E08EEE86
:1008800092E0B3CE6115710521F08E5E924089F041
:1008900008958E5E9240E1F783E38093C400109246
:1008A000C50082E08093C00088E98093C10086E0A3
:1008B0001CC0FB0180818093C40081818F70809374
:1008C000C50082E08093C00088E98093C1008281E6
:1008D000813091F078F0823059F0843041F7809186
:1008E000C10084608093C10086E08093C2000895B7
:1008F00084E0FBCF80E0F9CF82E0F7CFCF93DF93A6
:10090000C7E3D3E081E088831A821982BDD5ECD594
:100910006DE171E08AE393E0B0D382E0888378945C
:10092000DF91CF91089581C10F931F93EAE3F3E024
:10093000058D168D278D30A1DC01CB01802B912BED
:10094000A22BB32B858F968FA78FB0A31F910F91EA
:100950000895CF92DF92EF92FF920F931F93CF9360
:10096000DF93FC018B01709348036093470344833A
:10097000558381E493E093838283A0914103B091F6
:100980004203B183A0831396FC93EE931297F093E6
:100990004203E0934103EA014230510510F4C2E002
:1009A000D0E0C8018C0F9D1F9BDB82E0C82ED12CAC
:1009B00008C0E6012196C8018C0F9D1F9DDB8701B1
:1009C0006E0189DB7C01801B910B8C179D0788F7DA
:1009D00083E0C816D10448F4DF91CF911F910F91A5
:1009E000FF90EF90DF90CF90089561E070E080E09D
:1009F00090E0DF91CF911F910F91FF90EF90DF90EA
:100A0000CF9092CFEF92FF920F931F93CF93DF93EC
:100A10008C01EB016230710510F4C2E0D0E082E09D
:100A2000E82EF12C04C0E70121968C017E01C8015B
:100A30008C0F9D1F61DB4FDB9C01201B310B2C17A2
:100A40003D0788F783E0E816F10438F4DF91CF9191
:100A50001F910F91FF90EF90089561E070E080E0AA
:100A600090E0DF91CF911F910F91FF90EF905CCFBD
:100A7000EF92FF920F931F93CF93DF938C017B0133
:100A80002ADBE0914103F091420323E0E134F207D5
:100A900009F454C02091470330914803AC01421B34
:100AA000530BE701C40FD51FC417D507C0F124812C
:100AB0003581C217D307C8F12C173D0750F4C21B6C
:100AC000D30B0190F081E02D248135812C173D0757
:100AD000B0F3D8011596DC93CE9314971196FC933E
:100AE000EE938281938113969C938E931297DC01EF
:100AF0000D931C9313830283848195818C1B9D0B22
:100B0000958384838FEF9FEF9093460380934503F3
:100B1000DF91CF911F910F91FF90EF900895E70122
:100B200024813581C217D30738F6B7016BDFE09116
:100B30004103F091420324813581BECFA701BC015E
:100B4000C801DF91CF911F910F91FF90EF9001CFDE
:100B5000FC0131872087578346831386128688CF0E
:100B6000CF93DF93FC01A081B181809141039091EB
:100B70004203E817F90709F1C281D381B983A88339
:100B8000A081B1811396DC93CE93129714968D9128
:100B90009C91159724813581820F931F15969C9304
:100BA0008E931497118210828FEF9FEF90934603DC
:100BB00080934503DF91CF910895B0934203A093B2
:100BC000410381E493E013969C938E9312971182D4
:100BD0001082A0914103B0914203A817B90711F107
:100BE00014968D919C91159724813581820F931FC6
:100BF00015969C938E9314976EDA2091470330914B
:100C00004803AC01421B530BE0914103F0914203B6
:100C1000648175814617570768F6641B750BDF9171
:100C2000CF91F0CEDF91CF9164CACF92DF92EF9255
:100C3000FF920F931F93CF93DF93EE24EA94FE2C41
:100C40000BC068857985EE81FF81CE0109958A8583
:100C50009B85892B09F047C0C0914103D091420385
:100C60003ADA00914703109148039C01201B310B95
:100C70006C817D8126173707E8F0060F171F109348
:100C8000480300934703EA81FB818881998191831E
:100C90008083A881B9811396FC93EE9312971982F1
:100CA000188280914103909142038154934049F608
:100CB00020DAC7CF40914103509142034154534041
:100CC00009F44AC09093480380934703621B730B57
:100CD0007D836C83DF91CF911F910F91FF90EF90F7
:100CE000DF90CF908FCEF7D96C01801B910B8C01D8
:100CF0004A855B8548175907C0F1E0914103F0919F
:100D0000420323E0E134F20709F43EC08481958177
:100D10008417950750F4481B590B0190F081E02D82
:100D20008481958184179507B0F35D834C83F983A3
:100D3000E883A281B381BB83AA83CD93DC93D38361
:100D4000C28384819581841B950B95838483F09263
:100D50004603E092450380CFDF91CF911F910F9121
:100D6000FF90EF90DF90CF90089562E070E080E018
:100D700090E0DADDE0914103F091420393E0E13449
:100D8000F90779F0A801C2CF481B590BB601CE0173
:100D9000DF91CF911F910F91FF90EF90DF90CF9057
:100DA000D8CD50E040E0F2CFCF93DF93DB011F9628
:100DB0008C911F978430F1F180F5882359F18330AD
:100DC00031F45296ED91FC915397118210828FEF7E
:100DD0009FEF53969C938E9352971F961C921F974A
:100DE0001B96ED91FC911C9714969C911497019081
:100DF000F081E02D84818917D0F71196FC93EE9352
:100E0000C281D3811396DC93CE931297B983A883C2
:100E1000B383A283DF91CF910895873059F08C304E
:100E200049F08530A1F65296ED91FC91539784815B
:100E30008F5F84831296ED91FC9113978D919C9115
:100E4000119791838083CD91DC911197FB83EA8385
:100E5000BECFCF93DF93DC011F961C921F971B968A
:100E6000ED91FC911C9714968C9114970190F08150
:100E7000E02D94819817D0F71196FC93EE93C281E0
:100E8000D3811396DC93CE931297B983A883B3834F
:100E9000A283CD01DF91CF910895CF93DF93EAE351
:100EA000F3E065817681DB011F968C9380819181CF
:100EB000EC01A881B981B183A0831396FC93EE93D2
:100EC000129721E02F87968385831BD3DF91CF91E3
:100ED0000895FF920F931F93CF93DF93CDB7DEB7A3
:100EE0002C970FB6F894DEBF0FBECDBFF82E009141
:100EF0003F03109140036F3F7607F1F0980144EDF6
:100F000056E0CE01019624DE8F2DC7DF89819A81BC
:100F1000892B19F0CE01019623DEF801828993898D
:100F20002C960FB6F894DEBF0FBECDBFDF91CF91E8
:100F30001F910F91FF9008958F2DAFDFEECFCF93CC
:100F4000DF93DC01C0913F03D091400353967C9323
:100F50006E93529714962C9114979C819217E8F0F7
:100F60001F961C921F971B96ED91FC911C97019068
:100F7000F081E02D84818217D0F71196FC93EE93D7
:100F8000C281D3811396DC93CE931297B983A88341
:100F9000B383A283DF91CF9108951F86EB85FC85F3
:100FA0000190F081E02D84819817D0F3CD01F98371
:100FB000E883A281B381BB83AA83CD93DC93D383DF
:100FC000C28321E0FC0127879093400380933F0375
:100FD000BE0197D2DF91CF910895A0913A03B091CD
:100FE0003B03E0913F03F091400381E014962C9184
:100FF0009481921708F080E00895CF93DF93A09139
:101000003F03B091400340913A0350913B03EA0102
:10101000E881F981F0933B03E0933A038AE393E09C
:101020009383828381E08F875093400340933F03F3
:101030001F961C921F971B96ED91FC911C9714967E
:101040002C9114970190F081E02D94812917D0F311
:101050001196FC93EE938281938113969C938E93C9
:101060001297EC01B983A883B383A283BD01CA019F
:1010700048D2DF91CF910895FFCFCF92DF92FF92B8
:101080000F931F93CF93DF93CDB7DEB72B970FB698
:10109000F894DEBF0FBECDBF8C016B019093390376
:1010A00080933803FC01148E138E72A361A3FF2476
:1010B000F394F092810391838083938382831482DB
:1010C0004796908F878B928F818F158E168E178EF5
:1010D00010A2409790878783928781878FEF9FEF39
:1010E00094878387168615860E946B009C01F80101
:1010F0002787308B118A128A138A148A158A168AD6
:10110000EF5BFF4F11821082B8016D5D7F4F20E8C9
:101110004FE251E0C8012AD0F80196838583FC0193
:10112000F78683E291E09A838983F6018281938135
:101130009C838B83848195819E838D83FF828CE346
:1011400098E0998788871B861A86CE0101969ED0E3
:101150002B960FB6F894DEBF0FBECDBFDF91CF91B7
:101160001F910F91FF90DF90CF900895CF93DF9361
:10117000FB01248332E03787108A94878387258F89
:10118000148E138E128E21E0218B568745879B018A
:10119000295F3F4FAC01495E5F4F50874783EC01A9
:1011A000A98DBA8DB287A1872D933C933A8F298F51
:1011B000CB014496958B848B0296978B868B918F6F
:1011C000808FCB01DF91CF910895CF93DF93DC0126
:1011D00014962D913C911597F9017E97E901E397BB
:1011E000D683C58317969C91179718968C9118975C
:1011F0009A8B898B19969C9119971A968C911A97AC
:10120000988B8F8780EB9AE09B8B8C8B16968C91BA
:1012100016974D915C91848392E09787108A6AE3D8
:1012200073E074876387858F148E138E128E81E02E
:10123000818B56874587D901579781E593E01196B1
:101240009C938E93EB01898D9A8D13969C938E932C
:101250001297EC01B983A883EB01BA8FA98F1D9671
:101260000B2E11960C921197AC9312960B2E119691
:101270000C921197AC930A2E1B2E13961C920E9271
:1012800011241297CF01DF91CF9108959EDFE1CD18
:101290000F931F93CF93DF93F8946E517109EC0174
:1012A000C60FD71FFE017597FE83ED83228B318B0E
:1012B000008B178780EB9AE0938B848B4C8382E0C2
:1012C0008F87188AEAE3F3E0FC87EB874D8F1C8E4B
:1012D0001B8E1A8E81E0898B88E291E09E878D8734
:1012E000CE01079621E533E038872F83A18DB28D9B
:1012F000BA87A9878D939C93928F818F0D969D8B32
:101300008C8B02969F8B8E8B998F888F70E060E01C
:10131000CE0115DE7894CE01DF91CF911F910F9110
:1013200008950F931F93CF93DF93C0913F03D09104
:1013300040039B8B8A8B8E010C5E1F4F8C899D898D
:101340000817190759F0FC01208131813D8B2C8B46
:1013500080DD8C899D8980179107A9F78989811182
:101360000CC0E985FA858F81988591838083AF8150
:10137000B8851396FC93EE9312978FE0DF91CF918F
:101380001F910F918ACDF894CCCFF894BC0188E0DE
:10139000A0DD78940895CF93DF93E0913F03F0911F
:1013A00040036115710579F091838083EC01AA8176
:1013B000BB81B383A283ED93FC93FB83EA8384E038
:1013C000DF91CF9186CD8FEF9FEFDF91CF91089581
:1013D000CF93DF93FC0180819181E817F90771F0C9
:1013E000EC01A881B981B183A0831396FC93EE939D
:1013F00012977B8B6A8BDF91CF912BCDDF91CF91B1
:101400000895FC01918380839383828315821482E3
:101410000895FC01828D682B628F87858A3059F090
:101420008B3009F00895828968238613FBCF138AD5
:10143000128ACF010ECD82896823C9F70895EF92F1
:10144000FF921F93CF93DF937C01162FFC01C08185
:10145000D1818C179D0791F08D81812B8D83112374
:1014600019F08E81812321F06C818A819B81D1DFEB
:101470000990D881C02DEC16FD0671F7DF91CF9150
:101480001F91FF90EF900895EDE7F3E08DED91E06F
:10149000918380838DE592E0938382830895F8940D
:1014A000E0917F03F09180039F01281B390BC90154
:1014B000719561957109862397239C01241B350B37
:1014C00040917D0350917E032417350748F0E217C1
:1014D000F30730F03093800320937F0378940895CE
:1014E00090E080E078940895EDE5F2E08FE49AE0F2
:1014F00091838083138212821582148283E692E0A4
:1015000080CF2F923F924F925F926F927F928F92F5
:101510009F92AF92BF92CF92DF92EF92FF920F9382
:101520001F93CF93DF93FB010DB605820EB60682A3
:10153000FC0105800DBE06800EBEDF91CF911F918C
:101540000F91FF90EF90DF90CF90BF90AF909F9062
:101550008F907F906F905F904F903F902F90089565
:101560007894C201F10109950ECF0895E0913F03EF
:10157000F09140038AE591E096878587C0E285B1C6
:101580008C2785B98BE196E000DFF9CF0E946300DC
:10159000B5D970E060E08EEE92E052D810E000E045
:1015A00026EB3AE040E863E870E08BE692E070DE1C
:1015B000E091EE02F091EF020280F381E02D4EE027
:1015C00050E062E671E08EEE92E0099588E09DE3DE
:1015D000DCDEFCCFABE0B0E0EFEEFAE0C4C26C01C1
:1015E0007B013A01FC0117821682838181FFFFC0D3
:1015F000CE0101964C01F601B380F701B3FC0591D1
:10160000B3FE01917F01002341F1053239F4B3FCAF
:101610000591B3FE01917F01053239F5B601802FA6
:1016200090E02CD353013501E6CF1068F701B3FCED
:101630000591B3FE01917F0117FD0DC0002369F0F4
:10164000602F70E08FE690E0C9D2892B79F70332E2
:1016500051F00C3651F301110AC0F60186819781D1
:101660002B96EEE09CC210E1E1CF10E0E5CF602FB9
:1016700070E088E690E0B2D2892B49F05301F4E0A3
:10168000AF0EB11CB6018FE390E0F8D2CCCF033699
:1016900009F452C0033709F459C0033509F455C0A1
:1016A000043619F0093609F070C0530117FF62C003
:1016B000F4E0AF0EB11CF3016081718182819381EE
:1016C0001F7E97FF08C090958095709561957F4F1C
:1016D0008F4F9F4F10642AE030E0A40117D3082FEA
:1016E000081916FF04C0B6018DE290E0C7D214FFBE
:1016F00013C0FE01E00FF11D8081803369F0B60157
:1017000080E390E0BBD212FF07C01072812F90E0FF
:10171000B601885A9F4FB2D2015010E00F5F1F4FA1
:10172000080D191DF80182918F01B60190E0A6D233
:1017300008151905B9F777CF530182E0A80EB11C3F
:10174000B601F30180819181A0CF11605301F2E0D5
:10175000AF0EB11CF30160807180F30110FD859123
:1017600010FF81913F01882309F45DCFB60190E01D
:1017700085D2F3CFF2E0AF0EB11CF301608171812D
:10178000072E000C880B990B9BCF003709F140F412
:10179000083501F10F3609F060CF28E030E00CC0C9
:1017A000053739F0083709F058CF146220E130E0EE
:1017B00003C01F7E2AE030E0530117FF0FC0F4E0A2
:1017C000AF0EB11CF301608171818281938185CF5D
:1017D0001061EBCF146020E132E0EECFF2E0AF0E0B
:1017E000B11CF3016081718190E080E076CF8FEFD2
:1017F0009FEF36CF20FD09C0FC0123FD05C022FF6D
:1018000002C07383628351834083089544FD17C0EF
:1018100046FD1DC0DB01FC01AA0FBB1FEE1FFF1F11
:101820001094D1F76A0F7B1F8E1F9F1F660F771FC3
:10183000881F991F620F711D811D911D089533E04E
:10184000660F771F881F991F3150D1F7F3CF34E00F
:10185000F7CF0F931F93CF93DF938C01C801D2D1A1
:10186000EC0197FD06C0B2D1892BC1F7B801CE01BA
:1018700035D2CE01DF91CF911F910F9108958F92B4
:101880009F92AF92BF92EF92FF920F931F93CF93CD
:10189000DF938C01D62F7A01B22EB4D19C0133276D
:1018A0002B32310529F02D323105A1F46894B7F8B7
:1018B000D15061F480E0DF91CF911F910F91FF90A3
:1018C000EF90BF90AF909F908F900895C8019AD1EC
:1018D00097FDF0CFCB2DCD7F2B2D2073E9F48033F6
:1018E000D9F4AA24AA94AD0E79F0C8018BD197FD42
:1018F0000BC0282F2F7D283559F4C264D25021F017
:10190000C80180D197FF08C0812C912C54011AC0C6
:10191000B6FE29C0C260DA2D812C912C540120ED35
:10192000280F283018F1C4FD09C02A30F8F0C6FF8E
:1019300005C02F7D3FEE320F3630B8F0B801CED162
:10194000C1FFB8CFC7FF08C0B094A0949094809412
:10195000811C911CA11CB11C2C2FB501A401C70135
:1019600049DF81E0A8CFC261D6CF27504C2FC501F7
:10197000B4014CDF4B015C01C260D15019F3C801C6
:1019800041D197FFCCCFDCCFB0E0A0E0E9ECFCE0A8
:10199000E9C06C01EB015A01FC0117821682512C3F
:1019A000F601F380FE01F3FC8591F3FE8191182F7F
:1019B000EF018823C9F090E009D1892B19F0C60105
:1019C00048DFEECF153241F4FE01F3FC1591F3FE32
:1019D0001191EF01153259F4C60114D197FD98C049
:1019E0001817F1F2B6017AD1852D90E095C000E08C
:1019F0001A3231F4F3FC1591F3FE1191EF0101E07D
:101A0000E12C20ED210F2A3038F101FF34C0EE2007
:101A100059F3183699F11C3609F43AC0112321F311
:101A2000612F70E08FE790E0D9D0892BE9F2912CFB
:101A3000812C00FD06C0F50180809180C5010296D1
:101A40005C011E3669F5F6014681578170E060E061
:101A5000202FC401CFDEA4CF02606E2D70E090E095
:101A600080E040E2D3DEE62EFE01F3FC1591F3FEAA
:101A70001191EF01C6CFEE24EA94CBCFFE01F3FC27
:101A80001591F3FE1191EF01183609F0C7CF0860E8
:101A90000460FE01F3FC1591F3FE1191EF01BECF3E
:101AA0001336B9F401FD02C0EE24E394C601AAD0B6
:101AB00097FD2EC08114910429F0F4018083C401A4
:101AC00001964C01EA94E110F1CF00FD69CF5394E7
:101AD00067CFC601BEDE97FD1BC01F3609F43DC0AF
:101AE00030F4143641F0193639F0006405C013376C
:101AF00011F11537D1F70062202FA4016E2DC60118
:101B0000BEDE8111E2CFF6018381807309F46CCFD0
:101B10008FEF9FEF511068CFCDB7DEB7EFE03EC03B
:101B20008114910429F0F4016082C40101964C01F2
:101B3000EA94EE2059F0C60165D03C0197FD06C03D
:101B400045D0892B69F3B601C301C8D08114910433
:101B500009F4BBCFF4011082B8CF0061CDCF2F9232
:101B60003F924F925F926F927F928F929F92AF922D
:101B7000BF92CF92DF92EF92FF920F931F93CF937A
:101B8000DF93CDB7DEB7CA1BDB0B0FB6F894DEBF11
:101B90000FBECDBF09942A88398848885F846E8437
:101BA0007D848C849B84AA84B984C884DF80EE8081
:101BB000FD800C811B81AA81B981CE0FD11D0FB68A
:101BC000F894DEBF0FBECDBFED0108959111FCC0AA
:101BD000803219F089508550D0F70895FC010590A6
:101BE000061621F00020D9F7C00108953197CF01E2
:101BF0000895FB01DC0102C001900D92415050405C
:101C0000D8F70895CF93DF93EC012B8120FF1AC002
:101C100026FF0CC02F7B2B838E819F8101969F8393
:101C20008E838A8190E0DF91CF91089522FF18C0C2
:101C3000E881F9818081082E000C990B009729F426
:101C400020622B838FEF9FEFEECF3196F983E883ED
:101C50002E813F812F5F3F4F3F832E839927E3CF14
:101C6000EA85FB85099597FFF3CF2B81019621F03B
:101C700080E2822B8B83E6CF80E1FBCF0F931F9313
:101C8000CF93DF93182F092FEB018B8181FD09C0C2
:101C90001FEF0FEF812F902FDF91CF911F910F91A9
:101CA000089582FF14C02E813F818C819D81281769
:101CB00039073CF4E881F981CF0101969983888343
:101CC00010838E819F8101969F838E83E3CFE88569
:101CD000F985812F0995892BA1F3DACFFB012381A7
:101CE00020FF11C026FD0FC08F3F980771F082833F
:101CF0002F7D20642383268137812150310937834A
:101D00002683992708958FEF9FEF0895FA01AA2758
:101D1000283051F1203181F1E8946F936E7F6E5F2E
:101D20007F4F8F4F9F4FAF4FB1E03ED0B4E03CD0DC
:101D3000670F781F891F9A1FA11D680F791F8A1FBF
:101D4000911DA11D6A0F711D811D911DA11D20D026
:101D500009F468943F912AE0269F11243019305DE0
:101D60003193DEF6CF010895462F4770405D4193D1
:101D7000B3E00FD0C9F7F6CF462F4F70405D4A331E
:101D800018F0495D31FD4052419302D0A9F7EACFE6
:101D9000B4E0A6959795879577956795BA95C9F715
:101DA00000976105710508959B01AC010A2E069408
:101DB0005795479537952795BA95C9F7620F731FC1
:101DC000841F951FA01D0895992788270895F894CA
:021DD000FFCF43
:101DD2000000DB02D502E702E102E502DF02D902DE
:101DE200D302EB02FF20FF00FF026330001A0172F0
:101DF20001DD0169646C65006E6F6E616D65006D79
:101E020061696E002B043802021E040507090D00E9
:101E12000F10000000000000001502010001000088
:101E220000000000050007171B1D426C696E6B6500
:101E3200720048656C6C6F20576F726C64210D0ADA
:021E420000009E
:00000001FF
